{
	"contracts/Storage/AddFiveStorage.sol": {
		"AddFiveStorage": {
			"abi": [
				{
					"anonymous": false,
					"inputs": [
						{
							"indexed": true,
							"internalType": "uint256",
							"name": "oldNumber",
							"type": "uint256"
						},
						{
							"indexed": false,
							"internalType": "uint256",
							"name": "newFavoriteNumber",
							"type": "uint256"
						},
						{
							"indexed": false,
							"internalType": "address",
							"name": "sender",
							"type": "address"
						}
					],
					"name": "StoredNumber",
					"type": "event"
				},
				{
					"inputs": [
						{
							"internalType": "string",
							"name": "_name",
							"type": "string"
						},
						{
							"internalType": "uint256",
							"name": "_favoriteNumber",
							"type": "uint256"
						}
					],
					"name": "addPerson",
					"outputs": [],
					"stateMutability": "nonpayable",
					"type": "function"
				},
				{
					"inputs": [],
					"name": "favoriteNumber",
					"outputs": [
						{
							"internalType": "uint256",
							"name": "",
							"type": "uint256"
						}
					],
					"stateMutability": "view",
					"type": "function"
				},
				{
					"inputs": [
						{
							"internalType": "uint256",
							"name": "",
							"type": "uint256"
						}
					],
					"name": "listOfPeople",
					"outputs": [
						{
							"internalType": "uint256",
							"name": "favoriteNumber",
							"type": "uint256"
						},
						{
							"internalType": "string",
							"name": "name",
							"type": "string"
						}
					],
					"stateMutability": "view",
					"type": "function"
				},
				{
					"inputs": [
						{
							"internalType": "string",
							"name": "",
							"type": "string"
						}
					],
					"name": "nameToFavoriteNumber",
					"outputs": [
						{
							"internalType": "uint256",
							"name": "",
							"type": "uint256"
						}
					],
					"stateMutability": "view",
					"type": "function"
				},
				{
					"inputs": [],
					"name": "retrieve",
					"outputs": [
						{
							"internalType": "uint256",
							"name": "",
							"type": "uint256"
						}
					],
					"stateMutability": "view",
					"type": "function"
				},
				{
					"inputs": [
						{
							"internalType": "uint256",
							"name": "_favoriteNumber",
							"type": "uint256"
						}
					],
					"name": "store",
					"outputs": [],
					"stateMutability": "nonpayable",
					"type": "function"
				}
			],
			"devdoc": {
				"kind": "dev",
				"methods": {},
				"version": 1
			},
			"evm": {
				"assembly": "    /* \"contracts/Storage/AddFiveStorage.sol\":110:268  contract AddFiveStorage is SimpleStorage{ ... */\n  mstore(0x40, 0x80)\n  callvalue\n  dup1\n  iszero\n  tag_1\n  jumpi\n  0x00\n  dup1\n  revert\ntag_1:\n  pop\n  dataSize(sub_0)\n  dup1\n  dataOffset(sub_0)\n  0x00\n  codecopy\n  0x00\n  return\nstop\n\nsub_0: assembly {\n        /* \"contracts/Storage/AddFiveStorage.sol\":110:268  contract AddFiveStorage is SimpleStorage{ ... */\n      mstore(0x40, 0x80)\n      callvalue\n      dup1\n      iszero\n      tag_1\n      jumpi\n      0x00\n      dup1\n      revert\n    tag_1:\n      pop\n      jumpi(tag_2, lt(calldatasize, 0x04))\n      shr(0xe0, calldataload(0x00))\n      dup1\n      0x2e64cec1\n      eq\n      tag_3\n      jumpi\n      dup1\n      0x2ebce631\n      eq\n      tag_4\n      jumpi\n      dup1\n      0x471f7cdf\n      eq\n      tag_5\n      jumpi\n      dup1\n      0x6057361d\n      eq\n      tag_6\n      jumpi\n      dup1\n      0x6f760f41\n      eq\n      tag_7\n      jumpi\n      dup1\n      0x8bab8dd5\n      eq\n      tag_8\n      jumpi\n    tag_2:\n      0x00\n      dup1\n      revert\n        /* \"contracts/Storage/SimpleStorage.sol\":609:697  function retrieve() public view returns (uint256) {... */\n    tag_3:\n      tag_9\n      tag_10\n      jump\t// in\n    tag_9:\n      mload(0x40)\n      tag_11\n      swap2\n      swap1\n      tag_12\n      jump\t// in\n    tag_11:\n      mload(0x40)\n      dup1\n      swap2\n      sub\n      swap1\n      return\n        /* \"contracts/Storage/SimpleStorage.sol\":512:540  Person[] public listOfPeople */\n    tag_4:\n      tag_13\n      0x04\n      dup1\n      calldatasize\n      sub\n      dup2\n      add\n      swap1\n      tag_14\n      swap2\n      swap1\n      tag_15\n      jump\t// in\n    tag_14:\n      tag_16\n      jump\t// in\n    tag_13:\n      mload(0x40)\n      tag_17\n      swap3\n      swap2\n      swap1\n      tag_18\n      jump\t// in\n    tag_17:\n      mload(0x40)\n      dup1\n      swap2\n      sub\n      swap1\n      return\n        /* \"contracts/Storage/SimpleStorage.sol\":87:116  uint256 public favoriteNumber */\n    tag_5:\n      tag_19\n      tag_20\n      jump\t// in\n    tag_19:\n      mload(0x40)\n      tag_21\n      swap2\n      swap1\n      tag_12\n      jump\t// in\n    tag_21:\n      mload(0x40)\n      dup1\n      swap2\n      sub\n      swap1\n      return\n        /* \"contracts/Storage/AddFiveStorage.sol\":157:266  function store(uint256 _favoriteNumber) public override {... */\n    tag_6:\n      tag_22\n      0x04\n      dup1\n      calldatasize\n      sub\n      dup2\n      add\n      swap1\n      tag_23\n      swap2\n      swap1\n      tag_15\n      jump\t// in\n    tag_23:\n      tag_24\n      jump\t// in\n    tag_22:\n      stop\n        /* \"contracts/Storage/SimpleStorage.sol\":703:896  function addPerson(string memory _name, uint256 _favoriteNumber) public {... */\n    tag_7:\n      tag_25\n      0x04\n      dup1\n      calldatasize\n      sub\n      dup2\n      add\n      swap1\n      tag_26\n      swap2\n      swap1\n      tag_27\n      jump\t// in\n    tag_26:\n      tag_28\n      jump\t// in\n    tag_25:\n      stop\n        /* \"contracts/Storage/SimpleStorage.sol\":547:601  mapping(string => uint256) public nameToFavoriteNumber */\n    tag_8:\n      tag_29\n      0x04\n      dup1\n      calldatasize\n      sub\n      dup2\n      add\n      swap1\n      tag_30\n      swap2\n      swap1\n      tag_31\n      jump\t// in\n    tag_30:\n      tag_32\n      jump\t// in\n    tag_29:\n      mload(0x40)\n      tag_33\n      swap2\n      swap1\n      tag_12\n      jump\t// in\n    tag_33:\n      mload(0x40)\n      dup1\n      swap2\n      sub\n      swap1\n      return\n        /* \"contracts/Storage/SimpleStorage.sol\":609:697  function retrieve() public view returns (uint256) {... */\n    tag_10:\n        /* \"contracts/Storage/SimpleStorage.sol\":650:657  uint256 */\n      0x00\n        /* \"contracts/Storage/SimpleStorage.sol\":676:690  favoriteNumber */\n      dup1\n      sload\n        /* \"contracts/Storage/SimpleStorage.sol\":669:690  return favoriteNumber */\n      swap1\n      pop\n        /* \"contracts/Storage/SimpleStorage.sol\":609:697  function retrieve() public view returns (uint256) {... */\n      swap1\n      jump\t// out\n        /* \"contracts/Storage/SimpleStorage.sol\":512:540  Person[] public listOfPeople */\n    tag_16:\n      0x01\n      dup2\n      dup2\n      sload\n      dup2\n      lt\n      tag_35\n      jumpi\n      0x00\n      dup1\n      revert\n    tag_35:\n      swap1\n      0x00\n      mstore\n      keccak256(0x00, 0x20)\n      swap1\n      0x02\n      mul\n      add\n      0x00\n      swap2\n      pop\n      swap1\n      pop\n      dup1\n      0x00\n      add\n      sload\n      swap1\n      dup1\n      0x01\n      add\n      dup1\n      sload\n      tag_37\n      swap1\n      tag_38\n      jump\t// in\n    tag_37:\n      dup1\n      0x1f\n      add\n      0x20\n      dup1\n      swap2\n      div\n      mul\n      0x20\n      add\n      mload(0x40)\n      swap1\n      dup2\n      add\n      0x40\n      mstore\n      dup1\n      swap3\n      swap2\n      swap1\n      dup2\n      dup2\n      mstore\n      0x20\n      add\n      dup3\n      dup1\n      sload\n      tag_39\n      swap1\n      tag_38\n      jump\t// in\n    tag_39:\n      dup1\n      iszero\n      tag_40\n      jumpi\n      dup1\n      0x1f\n      lt\n      tag_41\n      jumpi\n      0x0100\n      dup1\n      dup4\n      sload\n      div\n      mul\n      dup4\n      mstore\n      swap2\n      0x20\n      add\n      swap2\n      jump(tag_40)\n    tag_41:\n      dup3\n      add\n      swap2\n      swap1\n      0x00\n      mstore\n      keccak256(0x00, 0x20)\n      swap1\n    tag_42:\n      dup2\n      sload\n      dup2\n      mstore\n      swap1\n      0x01\n      add\n      swap1\n      0x20\n      add\n      dup1\n      dup4\n      gt\n      tag_42\n      jumpi\n      dup3\n      swap1\n      sub\n      0x1f\n      and\n      dup3\n      add\n      swap2\n    tag_40:\n      pop\n      pop\n      pop\n      pop\n      pop\n      swap1\n      pop\n      dup3\n      jump\t// out\n        /* \"contracts/Storage/SimpleStorage.sol\":87:116  uint256 public favoriteNumber */\n    tag_20:\n      sload(0x00)\n      dup2\n      jump\t// out\n        /* \"contracts/Storage/AddFiveStorage.sol\":157:266  function store(uint256 _favoriteNumber) public override {... */\n    tag_24:\n        /* \"contracts/Storage/AddFiveStorage.sol\":258:259  5 */\n      0x05\n        /* \"contracts/Storage/AddFiveStorage.sol\":240:255  _favoriteNumber */\n      dup2\n        /* \"contracts/Storage/AddFiveStorage.sol\":240:259  _favoriteNumber + 5 */\n      tag_44\n      swap2\n      swap1\n      tag_45\n      jump\t// in\n    tag_44:\n        /* \"contracts/Storage/AddFiveStorage.sol\":223:237  favoriteNumber */\n      0x00\n        /* \"contracts/Storage/AddFiveStorage.sol\":223:259  favoriteNumber = _favoriteNumber + 5 */\n      dup2\n      swap1\n      sstore\n      pop\n        /* \"contracts/Storage/AddFiveStorage.sol\":157:266  function store(uint256 _favoriteNumber) public override {... */\n      pop\n      jump\t// out\n        /* \"contracts/Storage/SimpleStorage.sol\":703:896  function addPerson(string memory _name, uint256 _favoriteNumber) public {... */\n    tag_28:\n        /* \"contracts/Storage/SimpleStorage.sol\":785:797  listOfPeople */\n      0x01\n        /* \"contracts/Storage/SimpleStorage.sol\":803:833  Person(_favoriteNumber, _name) */\n      mload(0x40)\n      dup1\n      0x40\n      add\n      0x40\n      mstore\n      dup1\n        /* \"contracts/Storage/SimpleStorage.sol\":810:825  _favoriteNumber */\n      dup4\n        /* \"contracts/Storage/SimpleStorage.sol\":803:833  Person(_favoriteNumber, _name) */\n      dup2\n      mstore\n      0x20\n      add\n        /* \"contracts/Storage/SimpleStorage.sol\":827:832  _name */\n      dup5\n        /* \"contracts/Storage/SimpleStorage.sol\":803:833  Person(_favoriteNumber, _name) */\n      dup2\n      mstore\n      pop\n        /* \"contracts/Storage/SimpleStorage.sol\":785:834  listOfPeople.push(Person(_favoriteNumber, _name)) */\n      swap1\n      dup1\n      0x01\n      dup2\n      sload\n      add\n      dup1\n      dup3\n      sstore\n      dup1\n      swap2\n      pop\n      pop\n      0x01\n      swap1\n      sub\n      swap1\n      0x00\n      mstore\n      keccak256(0x00, 0x20)\n      swap1\n      0x02\n      mul\n      add\n      0x00\n      swap1\n      swap2\n      swap1\n      swap2\n      swap1\n      swap2\n      pop\n      0x00\n      dup3\n      add\n      mload\n      dup2\n      0x00\n      add\n      sstore\n      0x20\n      dup3\n      add\n      mload\n      dup2\n      0x01\n      add\n      swap1\n      dup2\n      tag_48\n      swap2\n      swap1\n      tag_49\n      jump\t// in\n    tag_48:\n      pop\n      pop\n      pop\n        /* \"contracts/Storage/SimpleStorage.sol\":874:889  _favoriteNumber */\n      dup1\n        /* \"contracts/Storage/SimpleStorage.sol\":844:864  nameToFavoriteNumber */\n      0x02\n        /* \"contracts/Storage/SimpleStorage.sol\":865:870  _name */\n      dup4\n        /* \"contracts/Storage/SimpleStorage.sol\":844:871  nameToFavoriteNumber[_name] */\n      mload(0x40)\n      tag_50\n      swap2\n      swap1\n      tag_51\n      jump\t// in\n    tag_50:\n      swap1\n      dup2\n      mstore\n      0x20\n      add\n      mload(0x40)\n      dup1\n      swap2\n      sub\n      swap1\n      keccak256\n        /* \"contracts/Storage/SimpleStorage.sol\":844:889  nameToFavoriteNumber[_name] = _favoriteNumber */\n      dup2\n      swap1\n      sstore\n      pop\n        /* \"contracts/Storage/SimpleStorage.sol\":703:896  function addPerson(string memory _name, uint256 _favoriteNumber) public {... */\n      pop\n      pop\n      jump\t// out\n        /* \"contracts/Storage/SimpleStorage.sol\":547:601  mapping(string => uint256) public nameToFavoriteNumber */\n    tag_32:\n      0x02\n      dup2\n      dup1\n      mload\n      0x20\n      dup2\n      add\n      dup3\n      add\n      dup1\n      mload\n      dup5\n      dup3\n      mstore\n      0x20\n      dup4\n      add\n      0x20\n      dup6\n      add\n      keccak256\n      dup2\n      dup4\n      mstore\n      dup1\n      swap6\n      pop\n      pop\n      pop\n      pop\n      pop\n      pop\n      0x00\n      swap2\n      pop\n      swap1\n      pop\n      sload\n      dup2\n      jump\t// out\n        /* \"#utility.yul\":7:84   */\n    tag_52:\n        /* \"#utility.yul\":44:51   */\n      0x00\n        /* \"#utility.yul\":73:78   */\n      dup2\n        /* \"#utility.yul\":62:78   */\n      swap1\n      pop\n        /* \"#utility.yul\":7:84   */\n      swap2\n      swap1\n      pop\n      jump\t// out\n        /* \"#utility.yul\":90:208   */\n    tag_53:\n        /* \"#utility.yul\":177:201   */\n      tag_95\n        /* \"#utility.yul\":195:200   */\n      dup2\n        /* \"#utility.yul\":177:201   */\n      tag_52\n      jump\t// in\n    tag_95:\n        /* \"#utility.yul\":172:175   */\n      dup3\n        /* \"#utility.yul\":165:202   */\n      mstore\n        /* \"#utility.yul\":90:208   */\n      pop\n      pop\n      jump\t// out\n        /* \"#utility.yul\":214:436   */\n    tag_12:\n        /* \"#utility.yul\":307:311   */\n      0x00\n        /* \"#utility.yul\":345:347   */\n      0x20\n        /* \"#utility.yul\":334:343   */\n      dup3\n        /* \"#utility.yul\":330:348   */\n      add\n        /* \"#utility.yul\":322:348   */\n      swap1\n      pop\n        /* \"#utility.yul\":358:429   */\n      tag_97\n        /* \"#utility.yul\":426:427   */\n      0x00\n        /* \"#utility.yul\":415:424   */\n      dup4\n        /* \"#utility.yul\":411:428   */\n      add\n        /* \"#utility.yul\":402:408   */\n      dup5\n        /* \"#utility.yul\":358:429   */\n      tag_53\n      jump\t// in\n    tag_97:\n        /* \"#utility.yul\":214:436   */\n      swap3\n      swap2\n      pop\n      pop\n      jump\t// out\n        /* \"#utility.yul\":442:517   */\n    tag_54:\n        /* \"#utility.yul\":475:481   */\n      0x00\n        /* \"#utility.yul\":508:510   */\n      0x40\n        /* \"#utility.yul\":502:511   */\n      mload\n        /* \"#utility.yul\":492:511   */\n      swap1\n      pop\n        /* \"#utility.yul\":442:517   */\n      swap1\n      jump\t// out\n        /* \"#utility.yul\":523:640   */\n    tag_55:\n        /* \"#utility.yul\":632:633   */\n      0x00\n        /* \"#utility.yul\":629:630   */\n      dup1\n        /* \"#utility.yul\":622:634   */\n      revert\n        /* \"#utility.yul\":646:763   */\n    tag_56:\n        /* \"#utility.yul\":755:756   */\n      0x00\n        /* \"#utility.yul\":752:753   */\n      dup1\n        /* \"#utility.yul\":745:757   */\n      revert\n        /* \"#utility.yul\":769:891   */\n    tag_57:\n        /* \"#utility.yul\":842:866   */\n      tag_102\n        /* \"#utility.yul\":860:865   */\n      dup2\n        /* \"#utility.yul\":842:866   */\n      tag_52\n      jump\t// in\n    tag_102:\n        /* \"#utility.yul\":835:840   */\n      dup2\n        /* \"#utility.yul\":832:867   */\n      eq\n        /* \"#utility.yul\":822:885   */\n      tag_103\n      jumpi\n        /* \"#utility.yul\":881:882   */\n      0x00\n        /* \"#utility.yul\":878:879   */\n      dup1\n        /* \"#utility.yul\":871:883   */\n      revert\n        /* \"#utility.yul\":822:885   */\n    tag_103:\n        /* \"#utility.yul\":769:891   */\n      pop\n      jump\t// out\n        /* \"#utility.yul\":897:1036   */\n    tag_58:\n        /* \"#utility.yul\":943:948   */\n      0x00\n        /* \"#utility.yul\":981:987   */\n      dup2\n        /* \"#utility.yul\":968:988   */\n      calldataload\n        /* \"#utility.yul\":959:988   */\n      swap1\n      pop\n        /* \"#utility.yul\":997:1030   */\n      tag_105\n        /* \"#utility.yul\":1024:1029   */\n      dup2\n        /* \"#utility.yul\":997:1030   */\n      tag_57\n      jump\t// in\n    tag_105:\n        /* \"#utility.yul\":897:1036   */\n      swap3\n      swap2\n      pop\n      pop\n      jump\t// out\n        /* \"#utility.yul\":1042:1371   */\n    tag_15:\n        /* \"#utility.yul\":1101:1107   */\n      0x00\n        /* \"#utility.yul\":1150:1152   */\n      0x20\n        /* \"#utility.yul\":1138:1147   */\n      dup3\n        /* \"#utility.yul\":1129:1136   */\n      dup5\n        /* \"#utility.yul\":1125:1148   */\n      sub\n        /* \"#utility.yul\":1121:1153   */\n      slt\n        /* \"#utility.yul\":1118:1237   */\n      iszero\n      tag_107\n      jumpi\n        /* \"#utility.yul\":1156:1235   */\n      tag_108\n      tag_55\n      jump\t// in\n    tag_108:\n        /* \"#utility.yul\":1118:1237   */\n    tag_107:\n        /* \"#utility.yul\":1276:1277   */\n      0x00\n        /* \"#utility.yul\":1301:1354   */\n      tag_109\n        /* \"#utility.yul\":1346:1353   */\n      dup5\n        /* \"#utility.yul\":1337:1343   */\n      dup3\n        /* \"#utility.yul\":1326:1335   */\n      dup6\n        /* \"#utility.yul\":1322:1344   */\n      add\n        /* \"#utility.yul\":1301:1354   */\n      tag_58\n      jump\t// in\n    tag_109:\n        /* \"#utility.yul\":1291:1354   */\n      swap2\n      pop\n        /* \"#utility.yul\":1247:1364   */\n      pop\n        /* \"#utility.yul\":1042:1371   */\n      swap3\n      swap2\n      pop\n      pop\n      jump\t// out\n        /* \"#utility.yul\":1377:1476   */\n    tag_59:\n        /* \"#utility.yul\":1429:1435   */\n      0x00\n        /* \"#utility.yul\":1463:1468   */\n      dup2\n        /* \"#utility.yul\":1457:1469   */\n      mload\n        /* \"#utility.yul\":1447:1469   */\n      swap1\n      pop\n        /* \"#utility.yul\":1377:1476   */\n      swap2\n      swap1\n      pop\n      jump\t// out\n        /* \"#utility.yul\":1482:1651   */\n    tag_60:\n        /* \"#utility.yul\":1566:1577   */\n      0x00\n        /* \"#utility.yul\":1600:1606   */\n      dup3\n        /* \"#utility.yul\":1595:1598   */\n      dup3\n        /* \"#utility.yul\":1588:1607   */\n      mstore\n        /* \"#utility.yul\":1640:1644   */\n      0x20\n        /* \"#utility.yul\":1635:1638   */\n      dup3\n        /* \"#utility.yul\":1631:1645   */\n      add\n        /* \"#utility.yul\":1616:1645   */\n      swap1\n      pop\n        /* \"#utility.yul\":1482:1651   */\n      swap3\n      swap2\n      pop\n      pop\n      jump\t// out\n        /* \"#utility.yul\":1657:1903   */\n    tag_61:\n        /* \"#utility.yul\":1738:1739   */\n      0x00\n        /* \"#utility.yul\":1748:1861   */\n    tag_113:\n        /* \"#utility.yul\":1762:1768   */\n      dup4\n        /* \"#utility.yul\":1759:1760   */\n      dup2\n        /* \"#utility.yul\":1756:1769   */\n      lt\n        /* \"#utility.yul\":1748:1861   */\n      iszero\n      tag_115\n      jumpi\n        /* \"#utility.yul\":1847:1848   */\n      dup1\n        /* \"#utility.yul\":1842:1845   */\n      dup3\n        /* \"#utility.yul\":1838:1849   */\n      add\n        /* \"#utility.yul\":1832:1850   */\n      mload\n        /* \"#utility.yul\":1828:1829   */\n      dup2\n        /* \"#utility.yul\":1823:1826   */\n      dup5\n        /* \"#utility.yul\":1819:1830   */\n      add\n        /* \"#utility.yul\":1812:1851   */\n      mstore\n        /* \"#utility.yul\":1784:1786   */\n      0x20\n        /* \"#utility.yul\":1781:1782   */\n      dup2\n        /* \"#utility.yul\":1777:1787   */\n      add\n        /* \"#utility.yul\":1772:1787   */\n      swap1\n      pop\n        /* \"#utility.yul\":1748:1861   */\n      jump(tag_113)\n    tag_115:\n        /* \"#utility.yul\":1895:1896   */\n      0x00\n        /* \"#utility.yul\":1886:1892   */\n      dup5\n        /* \"#utility.yul\":1881:1884   */\n      dup5\n        /* \"#utility.yul\":1877:1893   */\n      add\n        /* \"#utility.yul\":1870:1897   */\n      mstore\n        /* \"#utility.yul\":1719:1903   */\n      pop\n        /* \"#utility.yul\":1657:1903   */\n      pop\n      pop\n      pop\n      jump\t// out\n        /* \"#utility.yul\":1909:2011   */\n    tag_62:\n        /* \"#utility.yul\":1950:1956   */\n      0x00\n        /* \"#utility.yul\":2001:2003   */\n      0x1f\n        /* \"#utility.yul\":1997:2004   */\n      not\n        /* \"#utility.yul\":1992:1994   */\n      0x1f\n        /* \"#utility.yul\":1985:1990   */\n      dup4\n        /* \"#utility.yul\":1981:1995   */\n      add\n        /* \"#utility.yul\":1977:2005   */\n      and\n        /* \"#utility.yul\":1967:2005   */\n      swap1\n      pop\n        /* \"#utility.yul\":1909:2011   */\n      swap2\n      swap1\n      pop\n      jump\t// out\n        /* \"#utility.yul\":2017:2394   */\n    tag_63:\n        /* \"#utility.yul\":2105:2108   */\n      0x00\n        /* \"#utility.yul\":2133:2172   */\n      tag_118\n        /* \"#utility.yul\":2166:2171   */\n      dup3\n        /* \"#utility.yul\":2133:2172   */\n      tag_59\n      jump\t// in\n    tag_118:\n        /* \"#utility.yul\":2188:2259   */\n      tag_119\n        /* \"#utility.yul\":2252:2258   */\n      dup2\n        /* \"#utility.yul\":2247:2250   */\n      dup6\n        /* \"#utility.yul\":2188:2259   */\n      tag_60\n      jump\t// in\n    tag_119:\n        /* \"#utility.yul\":2181:2259   */\n      swap4\n      pop\n        /* \"#utility.yul\":2268:2333   */\n      tag_120\n        /* \"#utility.yul\":2326:2332   */\n      dup2\n        /* \"#utility.yul\":2321:2324   */\n      dup6\n        /* \"#utility.yul\":2314:2318   */\n      0x20\n        /* \"#utility.yul\":2307:2312   */\n      dup7\n        /* \"#utility.yul\":2303:2319   */\n      add\n        /* \"#utility.yul\":2268:2333   */\n      tag_61\n      jump\t// in\n    tag_120:\n        /* \"#utility.yul\":2358:2387   */\n      tag_121\n        /* \"#utility.yul\":2380:2386   */\n      dup2\n        /* \"#utility.yul\":2358:2387   */\n      tag_62\n      jump\t// in\n    tag_121:\n        /* \"#utility.yul\":2353:2356   */\n      dup5\n        /* \"#utility.yul\":2349:2388   */\n      add\n        /* \"#utility.yul\":2342:2388   */\n      swap2\n      pop\n        /* \"#utility.yul\":2109:2394   */\n      pop\n        /* \"#utility.yul\":2017:2394   */\n      swap3\n      swap2\n      pop\n      pop\n      jump\t// out\n        /* \"#utility.yul\":2400:2823   */\n    tag_18:\n        /* \"#utility.yul\":2541:2545   */\n      0x00\n        /* \"#utility.yul\":2579:2581   */\n      0x40\n        /* \"#utility.yul\":2568:2577   */\n      dup3\n        /* \"#utility.yul\":2564:2582   */\n      add\n        /* \"#utility.yul\":2556:2582   */\n      swap1\n      pop\n        /* \"#utility.yul\":2592:2663   */\n      tag_123\n        /* \"#utility.yul\":2660:2661   */\n      0x00\n        /* \"#utility.yul\":2649:2658   */\n      dup4\n        /* \"#utility.yul\":2645:2662   */\n      add\n        /* \"#utility.yul\":2636:2642   */\n      dup6\n        /* \"#utility.yul\":2592:2663   */\n      tag_53\n      jump\t// in\n    tag_123:\n        /* \"#utility.yul\":2710:2719   */\n      dup2\n        /* \"#utility.yul\":2704:2708   */\n      dup2\n        /* \"#utility.yul\":2700:2720   */\n      sub\n        /* \"#utility.yul\":2695:2697   */\n      0x20\n        /* \"#utility.yul\":2684:2693   */\n      dup4\n        /* \"#utility.yul\":2680:2698   */\n      add\n        /* \"#utility.yul\":2673:2721   */\n      mstore\n        /* \"#utility.yul\":2738:2816   */\n      tag_124\n        /* \"#utility.yul\":2811:2815   */\n      dup2\n        /* \"#utility.yul\":2802:2808   */\n      dup5\n        /* \"#utility.yul\":2738:2816   */\n      tag_63\n      jump\t// in\n    tag_124:\n        /* \"#utility.yul\":2730:2816   */\n      swap1\n      pop\n        /* \"#utility.yul\":2400:2823   */\n      swap4\n      swap3\n      pop\n      pop\n      pop\n      jump\t// out\n        /* \"#utility.yul\":2829:2946   */\n    tag_64:\n        /* \"#utility.yul\":2938:2939   */\n      0x00\n        /* \"#utility.yul\":2935:2936   */\n      dup1\n        /* \"#utility.yul\":2928:2940   */\n      revert\n        /* \"#utility.yul\":2952:3069   */\n    tag_65:\n        /* \"#utility.yul\":3061:3062   */\n      0x00\n        /* \"#utility.yul\":3058:3059   */\n      dup1\n        /* \"#utility.yul\":3051:3063   */\n      revert\n        /* \"#utility.yul\":3075:3255   */\n    tag_66:\n        /* \"#utility.yul\":3123:3200   */\n      0x4e487b7100000000000000000000000000000000000000000000000000000000\n        /* \"#utility.yul\":3120:3121   */\n      0x00\n        /* \"#utility.yul\":3113:3201   */\n      mstore\n        /* \"#utility.yul\":3220:3224   */\n      0x41\n        /* \"#utility.yul\":3217:3218   */\n      0x04\n        /* \"#utility.yul\":3210:3225   */\n      mstore\n        /* \"#utility.yul\":3244:3248   */\n      0x24\n        /* \"#utility.yul\":3241:3242   */\n      0x00\n        /* \"#utility.yul\":3234:3249   */\n      revert\n        /* \"#utility.yul\":3261:3542   */\n    tag_67:\n        /* \"#utility.yul\":3344:3371   */\n      tag_129\n        /* \"#utility.yul\":3366:3370   */\n      dup3\n        /* \"#utility.yul\":3344:3371   */\n      tag_62\n      jump\t// in\n    tag_129:\n        /* \"#utility.yul\":3336:3342   */\n      dup2\n        /* \"#utility.yul\":3332:3372   */\n      add\n        /* \"#utility.yul\":3474:3480   */\n      dup2\n        /* \"#utility.yul\":3462:3472   */\n      dup2\n        /* \"#utility.yul\":3459:3481   */\n      lt\n        /* \"#utility.yul\":3438:3456   */\n      0xffffffffffffffff\n        /* \"#utility.yul\":3426:3436   */\n      dup3\n        /* \"#utility.yul\":3423:3457   */\n      gt\n        /* \"#utility.yul\":3420:3482   */\n      or\n        /* \"#utility.yul\":3417:3505   */\n      iszero\n      tag_130\n      jumpi\n        /* \"#utility.yul\":3485:3503   */\n      tag_131\n      tag_66\n      jump\t// in\n    tag_131:\n        /* \"#utility.yul\":3417:3505   */\n    tag_130:\n        /* \"#utility.yul\":3525:3535   */\n      dup1\n        /* \"#utility.yul\":3521:3523   */\n      0x40\n        /* \"#utility.yul\":3514:3536   */\n      mstore\n        /* \"#utility.yul\":3304:3542   */\n      pop\n        /* \"#utility.yul\":3261:3542   */\n      pop\n      pop\n      jump\t// out\n        /* \"#utility.yul\":3548:3677   */\n    tag_68:\n        /* \"#utility.yul\":3582:3588   */\n      0x00\n        /* \"#utility.yul\":3609:3629   */\n      tag_133\n      tag_54\n      jump\t// in\n    tag_133:\n        /* \"#utility.yul\":3599:3629   */\n      swap1\n      pop\n        /* \"#utility.yul\":3638:3671   */\n      tag_134\n        /* \"#utility.yul\":3666:3670   */\n      dup3\n        /* \"#utility.yul\":3658:3664   */\n      dup3\n        /* \"#utility.yul\":3638:3671   */\n      tag_67\n      jump\t// in\n    tag_134:\n        /* \"#utility.yul\":3548:3677   */\n      swap2\n      swap1\n      pop\n      jump\t// out\n        /* \"#utility.yul\":3683:3991   */\n    tag_69:\n        /* \"#utility.yul\":3745:3749   */\n      0x00\n        /* \"#utility.yul\":3835:3853   */\n      0xffffffffffffffff\n        /* \"#utility.yul\":3827:3833   */\n      dup3\n        /* \"#utility.yul\":3824:3854   */\n      gt\n        /* \"#utility.yul\":3821:3877   */\n      iszero\n      tag_136\n      jumpi\n        /* \"#utility.yul\":3857:3875   */\n      tag_137\n      tag_66\n      jump\t// in\n    tag_137:\n        /* \"#utility.yul\":3821:3877   */\n    tag_136:\n        /* \"#utility.yul\":3895:3924   */\n      tag_138\n        /* \"#utility.yul\":3917:3923   */\n      dup3\n        /* \"#utility.yul\":3895:3924   */\n      tag_62\n      jump\t// in\n    tag_138:\n        /* \"#utility.yul\":3887:3924   */\n      swap1\n      pop\n        /* \"#utility.yul\":3979:3983   */\n      0x20\n        /* \"#utility.yul\":3973:3977   */\n      dup2\n        /* \"#utility.yul\":3969:3984   */\n      add\n        /* \"#utility.yul\":3961:3984   */\n      swap1\n      pop\n        /* \"#utility.yul\":3683:3991   */\n      swap2\n      swap1\n      pop\n      jump\t// out\n        /* \"#utility.yul\":3997:4143   */\n    tag_70:\n        /* \"#utility.yul\":4094:4100   */\n      dup3\n        /* \"#utility.yul\":4089:4092   */\n      dup2\n        /* \"#utility.yul\":4084:4087   */\n      dup4\n        /* \"#utility.yul\":4071:4101   */\n      calldatacopy\n        /* \"#utility.yul\":4135:4136   */\n      0x00\n        /* \"#utility.yul\":4126:4132   */\n      dup4\n        /* \"#utility.yul\":4121:4124   */\n      dup4\n        /* \"#utility.yul\":4117:4133   */\n      add\n        /* \"#utility.yul\":4110:4137   */\n      mstore\n        /* \"#utility.yul\":3997:4143   */\n      pop\n      pop\n      pop\n      jump\t// out\n        /* \"#utility.yul\":4149:4574   */\n    tag_71:\n        /* \"#utility.yul\":4227:4232   */\n      0x00\n        /* \"#utility.yul\":4252:4318   */\n      tag_141\n        /* \"#utility.yul\":4268:4317   */\n      tag_142\n        /* \"#utility.yul\":4310:4316   */\n      dup5\n        /* \"#utility.yul\":4268:4317   */\n      tag_69\n      jump\t// in\n    tag_142:\n        /* \"#utility.yul\":4252:4318   */\n      tag_68\n      jump\t// in\n    tag_141:\n        /* \"#utility.yul\":4243:4318   */\n      swap1\n      pop\n        /* \"#utility.yul\":4341:4347   */\n      dup3\n        /* \"#utility.yul\":4334:4339   */\n      dup2\n        /* \"#utility.yul\":4327:4348   */\n      mstore\n        /* \"#utility.yul\":4379:4383   */\n      0x20\n        /* \"#utility.yul\":4372:4377   */\n      dup2\n        /* \"#utility.yul\":4368:4384   */\n      add\n        /* \"#utility.yul\":4417:4420   */\n      dup5\n        /* \"#utility.yul\":4408:4414   */\n      dup5\n        /* \"#utility.yul\":4403:4406   */\n      dup5\n        /* \"#utility.yul\":4399:4415   */\n      add\n        /* \"#utility.yul\":4396:4421   */\n      gt\n        /* \"#utility.yul\":4393:4505   */\n      iszero\n      tag_143\n      jumpi\n        /* \"#utility.yul\":4424:4503   */\n      tag_144\n      tag_65\n      jump\t// in\n    tag_144:\n        /* \"#utility.yul\":4393:4505   */\n    tag_143:\n        /* \"#utility.yul\":4514:4568   */\n      tag_145\n        /* \"#utility.yul\":4561:4567   */\n      dup5\n        /* \"#utility.yul\":4556:4559   */\n      dup3\n        /* \"#utility.yul\":4551:4554   */\n      dup6\n        /* \"#utility.yul\":4514:4568   */\n      tag_70\n      jump\t// in\n    tag_145:\n        /* \"#utility.yul\":4233:4574   */\n      pop\n        /* \"#utility.yul\":4149:4574   */\n      swap4\n      swap3\n      pop\n      pop\n      pop\n      jump\t// out\n        /* \"#utility.yul\":4594:4934   */\n    tag_72:\n        /* \"#utility.yul\":4650:4655   */\n      0x00\n        /* \"#utility.yul\":4699:4702   */\n      dup3\n        /* \"#utility.yul\":4692:4696   */\n      0x1f\n        /* \"#utility.yul\":4684:4690   */\n      dup4\n        /* \"#utility.yul\":4680:4697   */\n      add\n        /* \"#utility.yul\":4676:4703   */\n      slt\n        /* \"#utility.yul\":4666:4788   */\n      tag_147\n      jumpi\n        /* \"#utility.yul\":4707:4786   */\n      tag_148\n      tag_64\n      jump\t// in\n    tag_148:\n        /* \"#utility.yul\":4666:4788   */\n    tag_147:\n        /* \"#utility.yul\":4824:4830   */\n      dup2\n        /* \"#utility.yul\":4811:4831   */\n      calldataload\n        /* \"#utility.yul\":4849:4928   */\n      tag_149\n        /* \"#utility.yul\":4924:4927   */\n      dup5\n        /* \"#utility.yul\":4916:4922   */\n      dup3\n        /* \"#utility.yul\":4909:4913   */\n      0x20\n        /* \"#utility.yul\":4901:4907   */\n      dup7\n        /* \"#utility.yul\":4897:4914   */\n      add\n        /* \"#utility.yul\":4849:4928   */\n      tag_71\n      jump\t// in\n    tag_149:\n        /* \"#utility.yul\":4840:4928   */\n      swap2\n      pop\n        /* \"#utility.yul\":4656:4934   */\n      pop\n        /* \"#utility.yul\":4594:4934   */\n      swap3\n      swap2\n      pop\n      pop\n      jump\t// out\n        /* \"#utility.yul\":4940:5594   */\n    tag_27:\n        /* \"#utility.yul\":5018:5024   */\n      0x00\n        /* \"#utility.yul\":5026:5032   */\n      dup1\n        /* \"#utility.yul\":5075:5077   */\n      0x40\n        /* \"#utility.yul\":5063:5072   */\n      dup4\n        /* \"#utility.yul\":5054:5061   */\n      dup6\n        /* \"#utility.yul\":5050:5073   */\n      sub\n        /* \"#utility.yul\":5046:5078   */\n      slt\n        /* \"#utility.yul\":5043:5162   */\n      iszero\n      tag_151\n      jumpi\n        /* \"#utility.yul\":5081:5160   */\n      tag_152\n      tag_55\n      jump\t// in\n    tag_152:\n        /* \"#utility.yul\":5043:5162   */\n    tag_151:\n        /* \"#utility.yul\":5229:5230   */\n      0x00\n        /* \"#utility.yul\":5218:5227   */\n      dup4\n        /* \"#utility.yul\":5214:5231   */\n      add\n        /* \"#utility.yul\":5201:5232   */\n      calldataload\n        /* \"#utility.yul\":5259:5277   */\n      0xffffffffffffffff\n        /* \"#utility.yul\":5251:5257   */\n      dup2\n        /* \"#utility.yul\":5248:5278   */\n      gt\n        /* \"#utility.yul\":5245:5362   */\n      iszero\n      tag_153\n      jumpi\n        /* \"#utility.yul\":5281:5360   */\n      tag_154\n      tag_56\n      jump\t// in\n    tag_154:\n        /* \"#utility.yul\":5245:5362   */\n    tag_153:\n        /* \"#utility.yul\":5386:5449   */\n      tag_155\n        /* \"#utility.yul\":5441:5448   */\n      dup6\n        /* \"#utility.yul\":5432:5438   */\n      dup3\n        /* \"#utility.yul\":5421:5430   */\n      dup7\n        /* \"#utility.yul\":5417:5439   */\n      add\n        /* \"#utility.yul\":5386:5449   */\n      tag_72\n      jump\t// in\n    tag_155:\n        /* \"#utility.yul\":5376:5449   */\n      swap3\n      pop\n        /* \"#utility.yul\":5172:5459   */\n      pop\n        /* \"#utility.yul\":5498:5500   */\n      0x20\n        /* \"#utility.yul\":5524:5577   */\n      tag_156\n        /* \"#utility.yul\":5569:5576   */\n      dup6\n        /* \"#utility.yul\":5560:5566   */\n      dup3\n        /* \"#utility.yul\":5549:5558   */\n      dup7\n        /* \"#utility.yul\":5545:5567   */\n      add\n        /* \"#utility.yul\":5524:5577   */\n      tag_58\n      jump\t// in\n    tag_156:\n        /* \"#utility.yul\":5514:5577   */\n      swap2\n      pop\n        /* \"#utility.yul\":5469:5587   */\n      pop\n        /* \"#utility.yul\":4940:5594   */\n      swap3\n      pop\n      swap3\n      swap1\n      pop\n      jump\t// out\n        /* \"#utility.yul\":5600:6109   */\n    tag_31:\n        /* \"#utility.yul\":5669:5675   */\n      0x00\n        /* \"#utility.yul\":5718:5720   */\n      0x20\n        /* \"#utility.yul\":5706:5715   */\n      dup3\n        /* \"#utility.yul\":5697:5704   */\n      dup5\n        /* \"#utility.yul\":5693:5716   */\n      sub\n        /* \"#utility.yul\":5689:5721   */\n      slt\n        /* \"#utility.yul\":5686:5805   */\n      iszero\n      tag_158\n      jumpi\n        /* \"#utility.yul\":5724:5803   */\n      tag_159\n      tag_55\n      jump\t// in\n    tag_159:\n        /* \"#utility.yul\":5686:5805   */\n    tag_158:\n        /* \"#utility.yul\":5872:5873   */\n      0x00\n        /* \"#utility.yul\":5861:5870   */\n      dup3\n        /* \"#utility.yul\":5857:5874   */\n      add\n        /* \"#utility.yul\":5844:5875   */\n      calldataload\n        /* \"#utility.yul\":5902:5920   */\n      0xffffffffffffffff\n        /* \"#utility.yul\":5894:5900   */\n      dup2\n        /* \"#utility.yul\":5891:5921   */\n      gt\n        /* \"#utility.yul\":5888:6005   */\n      iszero\n      tag_160\n      jumpi\n        /* \"#utility.yul\":5924:6003   */\n      tag_161\n      tag_56\n      jump\t// in\n    tag_161:\n        /* \"#utility.yul\":5888:6005   */\n    tag_160:\n        /* \"#utility.yul\":6029:6092   */\n      tag_162\n        /* \"#utility.yul\":6084:6091   */\n      dup5\n        /* \"#utility.yul\":6075:6081   */\n      dup3\n        /* \"#utility.yul\":6064:6073   */\n      dup6\n        /* \"#utility.yul\":6060:6082   */\n      add\n        /* \"#utility.yul\":6029:6092   */\n      tag_72\n      jump\t// in\n    tag_162:\n        /* \"#utility.yul\":6019:6092   */\n      swap2\n      pop\n        /* \"#utility.yul\":5815:6102   */\n      pop\n        /* \"#utility.yul\":5600:6109   */\n      swap3\n      swap2\n      pop\n      pop\n      jump\t// out\n        /* \"#utility.yul\":6115:6295   */\n    tag_73:\n        /* \"#utility.yul\":6163:6240   */\n      0x4e487b7100000000000000000000000000000000000000000000000000000000\n        /* \"#utility.yul\":6160:6161   */\n      0x00\n        /* \"#utility.yul\":6153:6241   */\n      mstore\n        /* \"#utility.yul\":6260:6264   */\n      0x22\n        /* \"#utility.yul\":6257:6258   */\n      0x04\n        /* \"#utility.yul\":6250:6265   */\n      mstore\n        /* \"#utility.yul\":6284:6288   */\n      0x24\n        /* \"#utility.yul\":6281:6282   */\n      0x00\n        /* \"#utility.yul\":6274:6289   */\n      revert\n        /* \"#utility.yul\":6301:6621   */\n    tag_38:\n        /* \"#utility.yul\":6345:6351   */\n      0x00\n        /* \"#utility.yul\":6382:6383   */\n      0x02\n        /* \"#utility.yul\":6376:6380   */\n      dup3\n        /* \"#utility.yul\":6372:6384   */\n      div\n        /* \"#utility.yul\":6362:6384   */\n      swap1\n      pop\n        /* \"#utility.yul\":6429:6430   */\n      0x01\n        /* \"#utility.yul\":6423:6427   */\n      dup3\n        /* \"#utility.yul\":6419:6431   */\n      and\n        /* \"#utility.yul\":6450:6468   */\n      dup1\n        /* \"#utility.yul\":6440:6521   */\n      tag_165\n      jumpi\n        /* \"#utility.yul\":6506:6510   */\n      0x7f\n        /* \"#utility.yul\":6498:6504   */\n      dup3\n        /* \"#utility.yul\":6494:6511   */\n      and\n        /* \"#utility.yul\":6484:6511   */\n      swap2\n      pop\n        /* \"#utility.yul\":6440:6521   */\n    tag_165:\n        /* \"#utility.yul\":6568:6570   */\n      0x20\n        /* \"#utility.yul\":6560:6566   */\n      dup3\n        /* \"#utility.yul\":6557:6571   */\n      lt\n        /* \"#utility.yul\":6537:6555   */\n      dup2\n        /* \"#utility.yul\":6534:6572   */\n      sub\n        /* \"#utility.yul\":6531:6615   */\n      tag_166\n      jumpi\n        /* \"#utility.yul\":6587:6605   */\n      tag_167\n      tag_73\n      jump\t// in\n    tag_167:\n        /* \"#utility.yul\":6531:6615   */\n    tag_166:\n        /* \"#utility.yul\":6352:6621   */\n      pop\n        /* \"#utility.yul\":6301:6621   */\n      swap2\n      swap1\n      pop\n      jump\t// out\n        /* \"#utility.yul\":6627:6807   */\n    tag_74:\n        /* \"#utility.yul\":6675:6752   */\n      0x4e487b7100000000000000000000000000000000000000000000000000000000\n        /* \"#utility.yul\":6672:6673   */\n      0x00\n        /* \"#utility.yul\":6665:6753   */\n      mstore\n        /* \"#utility.yul\":6772:6776   */\n      0x11\n        /* \"#utility.yul\":6769:6770   */\n      0x04\n        /* \"#utility.yul\":6762:6777   */\n      mstore\n        /* \"#utility.yul\":6796:6800   */\n      0x24\n        /* \"#utility.yul\":6793:6794   */\n      0x00\n        /* \"#utility.yul\":6786:6801   */\n      revert\n        /* \"#utility.yul\":6813:7004   */\n    tag_45:\n        /* \"#utility.yul\":6853:6856   */\n      0x00\n        /* \"#utility.yul\":6872:6892   */\n      tag_170\n        /* \"#utility.yul\":6890:6891   */\n      dup3\n        /* \"#utility.yul\":6872:6892   */\n      tag_52\n      jump\t// in\n    tag_170:\n        /* \"#utility.yul\":6867:6892   */\n      swap2\n      pop\n        /* \"#utility.yul\":6906:6926   */\n      tag_171\n        /* \"#utility.yul\":6924:6925   */\n      dup4\n        /* \"#utility.yul\":6906:6926   */\n      tag_52\n      jump\t// in\n    tag_171:\n        /* \"#utility.yul\":6901:6926   */\n      swap3\n      pop\n        /* \"#utility.yul\":6949:6950   */\n      dup3\n        /* \"#utility.yul\":6946:6947   */\n      dup3\n        /* \"#utility.yul\":6942:6951   */\n      add\n        /* \"#utility.yul\":6935:6951   */\n      swap1\n      pop\n        /* \"#utility.yul\":6970:6973   */\n      dup1\n        /* \"#utility.yul\":6967:6968   */\n      dup3\n        /* \"#utility.yul\":6964:6974   */\n      gt\n        /* \"#utility.yul\":6961:6997   */\n      iszero\n      tag_172\n      jumpi\n        /* \"#utility.yul\":6977:6995   */\n      tag_173\n      tag_74\n      jump\t// in\n    tag_173:\n        /* \"#utility.yul\":6961:6997   */\n    tag_172:\n        /* \"#utility.yul\":6813:7004   */\n      swap3\n      swap2\n      pop\n      pop\n      jump\t// out\n        /* \"#utility.yul\":7010:7151   */\n    tag_75:\n        /* \"#utility.yul\":7059:7063   */\n      0x00\n        /* \"#utility.yul\":7082:7085   */\n      dup2\n        /* \"#utility.yul\":7074:7085   */\n      swap1\n      pop\n        /* \"#utility.yul\":7105:7108   */\n      dup2\n        /* \"#utility.yul\":7102:7103   */\n      0x00\n        /* \"#utility.yul\":7095:7109   */\n      mstore\n        /* \"#utility.yul\":7139:7143   */\n      0x20\n        /* \"#utility.yul\":7136:7137   */\n      0x00\n        /* \"#utility.yul\":7126:7144   */\n      keccak256\n        /* \"#utility.yul\":7118:7144   */\n      swap1\n      pop\n        /* \"#utility.yul\":7010:7151   */\n      swap2\n      swap1\n      pop\n      jump\t// out\n        /* \"#utility.yul\":7157:7250   */\n    tag_76:\n        /* \"#utility.yul\":7194:7200   */\n      0x00\n        /* \"#utility.yul\":7241:7243   */\n      0x20\n        /* \"#utility.yul\":7236:7238   */\n      0x1f\n        /* \"#utility.yul\":7229:7234   */\n      dup4\n        /* \"#utility.yul\":7225:7239   */\n      add\n        /* \"#utility.yul\":7221:7244   */\n      div\n        /* \"#utility.yul\":7211:7244   */\n      swap1\n      pop\n        /* \"#utility.yul\":7157:7250   */\n      swap2\n      swap1\n      pop\n      jump\t// out\n        /* \"#utility.yul\":7256:7363   */\n    tag_77:\n        /* \"#utility.yul\":7300:7308   */\n      0x00\n        /* \"#utility.yul\":7350:7355   */\n      dup3\n        /* \"#utility.yul\":7344:7348   */\n      dup3\n        /* \"#utility.yul\":7340:7356   */\n      shl\n        /* \"#utility.yul\":7319:7356   */\n      swap1\n      pop\n        /* \"#utility.yul\":7256:7363   */\n      swap3\n      swap2\n      pop\n      pop\n      jump\t// out\n        /* \"#utility.yul\":7369:7762   */\n    tag_78:\n        /* \"#utility.yul\":7438:7444   */\n      0x00\n        /* \"#utility.yul\":7488:7489   */\n      0x08\n        /* \"#utility.yul\":7476:7486   */\n      dup4\n        /* \"#utility.yul\":7472:7490   */\n      mul\n        /* \"#utility.yul\":7511:7608   */\n      tag_178\n        /* \"#utility.yul\":7541:7607   */\n      0xffffffffffffffffffffffffffffffffffffffffffffffffffffffffffffffff\n        /* \"#utility.yul\":7530:7539   */\n      dup3\n        /* \"#utility.yul\":7511:7608   */\n      tag_77\n      jump\t// in\n    tag_178:\n        /* \"#utility.yul\":7629:7668   */\n      tag_179\n        /* \"#utility.yul\":7659:7667   */\n      dup7\n        /* \"#utility.yul\":7648:7657   */\n      dup4\n        /* \"#utility.yul\":7629:7668   */\n      tag_77\n      jump\t// in\n    tag_179:\n        /* \"#utility.yul\":7617:7668   */\n      swap6\n      pop\n        /* \"#utility.yul\":7701:7705   */\n      dup1\n        /* \"#utility.yul\":7697:7706   */\n      not\n        /* \"#utility.yul\":7690:7695   */\n      dup5\n        /* \"#utility.yul\":7686:7707   */\n      and\n        /* \"#utility.yul\":7677:7707   */\n      swap4\n      pop\n        /* \"#utility.yul\":7750:7754   */\n      dup1\n        /* \"#utility.yul\":7740:7748   */\n      dup7\n        /* \"#utility.yul\":7736:7755   */\n      and\n        /* \"#utility.yul\":7729:7734   */\n      dup5\n        /* \"#utility.yul\":7726:7756   */\n      or\n        /* \"#utility.yul\":7716:7756   */\n      swap3\n      pop\n        /* \"#utility.yul\":7445:7762   */\n      pop\n      pop\n        /* \"#utility.yul\":7369:7762   */\n      swap4\n      swap3\n      pop\n      pop\n      pop\n      jump\t// out\n        /* \"#utility.yul\":7768:7828   */\n    tag_79:\n        /* \"#utility.yul\":7796:7799   */\n      0x00\n        /* \"#utility.yul\":7817:7822   */\n      dup2\n        /* \"#utility.yul\":7810:7822   */\n      swap1\n      pop\n        /* \"#utility.yul\":7768:7828   */\n      swap2\n      swap1\n      pop\n      jump\t// out\n        /* \"#utility.yul\":7834:7976   */\n    tag_80:\n        /* \"#utility.yul\":7884:7893   */\n      0x00\n        /* \"#utility.yul\":7917:7970   */\n      tag_182\n        /* \"#utility.yul\":7935:7969   */\n      tag_183\n        /* \"#utility.yul\":7944:7968   */\n      tag_184\n        /* \"#utility.yul\":7962:7967   */\n      dup5\n        /* \"#utility.yul\":7944:7968   */\n      tag_52\n      jump\t// in\n    tag_184:\n        /* \"#utility.yul\":7935:7969   */\n      tag_79\n      jump\t// in\n    tag_183:\n        /* \"#utility.yul\":7917:7970   */\n      tag_52\n      jump\t// in\n    tag_182:\n        /* \"#utility.yul\":7904:7970   */\n      swap1\n      pop\n        /* \"#utility.yul\":7834:7976   */\n      swap2\n      swap1\n      pop\n      jump\t// out\n        /* \"#utility.yul\":7982:8057   */\n    tag_81:\n        /* \"#utility.yul\":8025:8028   */\n      0x00\n        /* \"#utility.yul\":8046:8051   */\n      dup2\n        /* \"#utility.yul\":8039:8051   */\n      swap1\n      pop\n        /* \"#utility.yul\":7982:8057   */\n      swap2\n      swap1\n      pop\n      jump\t// out\n        /* \"#utility.yul\":8063:8332   */\n    tag_82:\n        /* \"#utility.yul\":8173:8212   */\n      tag_187\n        /* \"#utility.yul\":8204:8211   */\n      dup4\n        /* \"#utility.yul\":8173:8212   */\n      tag_80\n      jump\t// in\n    tag_187:\n        /* \"#utility.yul\":8234:8325   */\n      tag_188\n        /* \"#utility.yul\":8283:8324   */\n      tag_189\n        /* \"#utility.yul\":8307:8323   */\n      dup3\n        /* \"#utility.yul\":8283:8324   */\n      tag_81\n      jump\t// in\n    tag_189:\n        /* \"#utility.yul\":8275:8281   */\n      dup5\n        /* \"#utility.yul\":8268:8272   */\n      dup5\n        /* \"#utility.yul\":8262:8273   */\n      sload\n        /* \"#utility.yul\":8234:8325   */\n      tag_78\n      jump\t// in\n    tag_188:\n        /* \"#utility.yul\":8228:8232   */\n      dup3\n        /* \"#utility.yul\":8221:8326   */\n      sstore\n        /* \"#utility.yul\":8139:8332   */\n      pop\n        /* \"#utility.yul\":8063:8332   */\n      pop\n      pop\n      pop\n      jump\t// out\n        /* \"#utility.yul\":8338:8411   */\n    tag_83:\n        /* \"#utility.yul\":8383:8386   */\n      0x00\n        /* \"#utility.yul\":8338:8411   */\n      swap1\n      jump\t// out\n        /* \"#utility.yul\":8417:8606   */\n    tag_84:\n        /* \"#utility.yul\":8494:8526   */\n      tag_192\n      tag_83\n      jump\t// in\n    tag_192:\n        /* \"#utility.yul\":8535:8600   */\n      tag_193\n        /* \"#utility.yul\":8593:8599   */\n      dup2\n        /* \"#utility.yul\":8585:8591   */\n      dup5\n        /* \"#utility.yul\":8579:8583   */\n      dup5\n        /* \"#utility.yul\":8535:8600   */\n      tag_82\n      jump\t// in\n    tag_193:\n        /* \"#utility.yul\":8470:8606   */\n      pop\n        /* \"#utility.yul\":8417:8606   */\n      pop\n      pop\n      jump\t// out\n        /* \"#utility.yul\":8612:8798   */\n    tag_85:\n        /* \"#utility.yul\":8672:8792   */\n    tag_195:\n        /* \"#utility.yul\":8689:8692   */\n      dup2\n        /* \"#utility.yul\":8682:8687   */\n      dup2\n        /* \"#utility.yul\":8679:8693   */\n      lt\n        /* \"#utility.yul\":8672:8792   */\n      iszero\n      tag_197\n      jumpi\n        /* \"#utility.yul\":8743:8782   */\n      tag_198\n        /* \"#utility.yul\":8780:8781   */\n      0x00\n        /* \"#utility.yul\":8773:8778   */\n      dup3\n        /* \"#utility.yul\":8743:8782   */\n      tag_84\n      jump\t// in\n    tag_198:\n        /* \"#utility.yul\":8716:8717   */\n      0x01\n        /* \"#utility.yul\":8709:8714   */\n      dup2\n        /* \"#utility.yul\":8705:8718   */\n      add\n        /* \"#utility.yul\":8696:8718   */\n      swap1\n      pop\n        /* \"#utility.yul\":8672:8792   */\n      jump(tag_195)\n    tag_197:\n        /* \"#utility.yul\":8612:8798   */\n      pop\n      pop\n      jump\t// out\n        /* \"#utility.yul\":8804:9347   */\n    tag_86:\n        /* \"#utility.yul\":8905:8907   */\n      0x1f\n        /* \"#utility.yul\":8900:8903   */\n      dup3\n        /* \"#utility.yul\":8897:8908   */\n      gt\n        /* \"#utility.yul\":8894:9340   */\n      iszero\n      tag_200\n      jumpi\n        /* \"#utility.yul\":8939:8977   */\n      tag_201\n        /* \"#utility.yul\":8971:8976   */\n      dup2\n        /* \"#utility.yul\":8939:8977   */\n      tag_75\n      jump\t// in\n    tag_201:\n        /* \"#utility.yul\":9023:9052   */\n      tag_202\n        /* \"#utility.yul\":9041:9051   */\n      dup5\n        /* \"#utility.yul\":9023:9052   */\n      tag_76\n      jump\t// in\n    tag_202:\n        /* \"#utility.yul\":9013:9021   */\n      dup2\n        /* \"#utility.yul\":9009:9053   */\n      add\n        /* \"#utility.yul\":9206:9208   */\n      0x20\n        /* \"#utility.yul\":9194:9204   */\n      dup6\n        /* \"#utility.yul\":9191:9209   */\n      lt\n        /* \"#utility.yul\":9188:9237   */\n      iszero\n      tag_203\n      jumpi\n        /* \"#utility.yul\":9227:9235   */\n      dup2\n        /* \"#utility.yul\":9212:9235   */\n      swap1\n      pop\n        /* \"#utility.yul\":9188:9237   */\n    tag_203:\n        /* \"#utility.yul\":9250:9330   */\n      tag_204\n        /* \"#utility.yul\":9306:9328   */\n      tag_205\n        /* \"#utility.yul\":9324:9327   */\n      dup6\n        /* \"#utility.yul\":9306:9328   */\n      tag_76\n      jump\t// in\n    tag_205:\n        /* \"#utility.yul\":9296:9304   */\n      dup4\n        /* \"#utility.yul\":9292:9329   */\n      add\n        /* \"#utility.yul\":9279:9290   */\n      dup3\n        /* \"#utility.yul\":9250:9330   */\n      tag_85\n      jump\t// in\n    tag_204:\n        /* \"#utility.yul\":8909:9340   */\n      pop\n      pop\n        /* \"#utility.yul\":8894:9340   */\n    tag_200:\n        /* \"#utility.yul\":8804:9347   */\n      pop\n      pop\n      pop\n      jump\t// out\n        /* \"#utility.yul\":9353:9470   */\n    tag_87:\n        /* \"#utility.yul\":9407:9415   */\n      0x00\n        /* \"#utility.yul\":9457:9462   */\n      dup3\n        /* \"#utility.yul\":9451:9455   */\n      dup3\n        /* \"#utility.yul\":9447:9463   */\n      shr\n        /* \"#utility.yul\":9426:9463   */\n      swap1\n      pop\n        /* \"#utility.yul\":9353:9470   */\n      swap3\n      swap2\n      pop\n      pop\n      jump\t// out\n        /* \"#utility.yul\":9476:9645   */\n    tag_88:\n        /* \"#utility.yul\":9520:9526   */\n      0x00\n        /* \"#utility.yul\":9553:9604   */\n      tag_208\n        /* \"#utility.yul\":9601:9602   */\n      0x00\n        /* \"#utility.yul\":9597:9603   */\n      not\n        /* \"#utility.yul\":9589:9594   */\n      dup5\n        /* \"#utility.yul\":9586:9587   */\n      0x08\n        /* \"#utility.yul\":9582:9595   */\n      mul\n        /* \"#utility.yul\":9553:9604   */\n      tag_87\n      jump\t// in\n    tag_208:\n        /* \"#utility.yul\":9549:9605   */\n      not\n        /* \"#utility.yul\":9634:9638   */\n      dup1\n        /* \"#utility.yul\":9628:9632   */\n      dup4\n        /* \"#utility.yul\":9624:9639   */\n      and\n        /* \"#utility.yul\":9614:9639   */\n      swap2\n      pop\n        /* \"#utility.yul\":9527:9645   */\n      pop\n        /* \"#utility.yul\":9476:9645   */\n      swap3\n      swap2\n      pop\n      pop\n      jump\t// out\n        /* \"#utility.yul\":9650:9945   */\n    tag_89:\n        /* \"#utility.yul\":9726:9730   */\n      0x00\n        /* \"#utility.yul\":9872:9901   */\n      tag_210\n        /* \"#utility.yul\":9897:9900   */\n      dup4\n        /* \"#utility.yul\":9891:9895   */\n      dup4\n        /* \"#utility.yul\":9872:9901   */\n      tag_88\n      jump\t// in\n    tag_210:\n        /* \"#utility.yul\":9864:9901   */\n      swap2\n      pop\n        /* \"#utility.yul\":9934:9937   */\n      dup3\n        /* \"#utility.yul\":9931:9932   */\n      0x02\n        /* \"#utility.yul\":9927:9938   */\n      mul\n        /* \"#utility.yul\":9921:9925   */\n      dup3\n        /* \"#utility.yul\":9918:9939   */\n      or\n        /* \"#utility.yul\":9910:9939   */\n      swap1\n      pop\n        /* \"#utility.yul\":9650:9945   */\n      swap3\n      swap2\n      pop\n      pop\n      jump\t// out\n        /* \"#utility.yul\":9950:11345   */\n    tag_49:\n        /* \"#utility.yul\":10067:10104   */\n      tag_212\n        /* \"#utility.yul\":10100:10103   */\n      dup3\n        /* \"#utility.yul\":10067:10104   */\n      tag_59\n      jump\t// in\n    tag_212:\n        /* \"#utility.yul\":10169:10187   */\n      0xffffffffffffffff\n        /* \"#utility.yul\":10161:10167   */\n      dup2\n        /* \"#utility.yul\":10158:10188   */\n      gt\n        /* \"#utility.yul\":10155:10211   */\n      iszero\n      tag_213\n      jumpi\n        /* \"#utility.yul\":10191:10209   */\n      tag_214\n      tag_66\n      jump\t// in\n    tag_214:\n        /* \"#utility.yul\":10155:10211   */\n    tag_213:\n        /* \"#utility.yul\":10235:10273   */\n      tag_215\n        /* \"#utility.yul\":10267:10271   */\n      dup3\n        /* \"#utility.yul\":10261:10272   */\n      sload\n        /* \"#utility.yul\":10235:10273   */\n      tag_38\n      jump\t// in\n    tag_215:\n        /* \"#utility.yul\":10320:10387   */\n      tag_216\n        /* \"#utility.yul\":10380:10386   */\n      dup3\n        /* \"#utility.yul\":10372:10378   */\n      dup3\n        /* \"#utility.yul\":10366:10370   */\n      dup6\n        /* \"#utility.yul\":10320:10387   */\n      tag_86\n      jump\t// in\n    tag_216:\n        /* \"#utility.yul\":10414:10415   */\n      0x00\n        /* \"#utility.yul\":10438:10442   */\n      0x20\n        /* \"#utility.yul\":10425:10442   */\n      swap1\n      pop\n        /* \"#utility.yul\":10470:10472   */\n      0x1f\n        /* \"#utility.yul\":10462:10468   */\n      dup4\n        /* \"#utility.yul\":10459:10473   */\n      gt\n        /* \"#utility.yul\":10487:10488   */\n      0x01\n        /* \"#utility.yul\":10482:11100   */\n      dup2\n      eq\n      tag_218\n      jumpi\n        /* \"#utility.yul\":11144:11145   */\n      0x00\n        /* \"#utility.yul\":11161:11167   */\n      dup5\n        /* \"#utility.yul\":11158:11235   */\n      iszero\n      tag_219\n      jumpi\n        /* \"#utility.yul\":11210:11219   */\n      dup3\n        /* \"#utility.yul\":11205:11208   */\n      dup8\n        /* \"#utility.yul\":11201:11220   */\n      add\n        /* \"#utility.yul\":11195:11221   */\n      mload\n        /* \"#utility.yul\":11186:11221   */\n      swap1\n      pop\n        /* \"#utility.yul\":11158:11235   */\n    tag_219:\n        /* \"#utility.yul\":11261:11328   */\n      tag_220\n        /* \"#utility.yul\":11321:11327   */\n      dup6\n        /* \"#utility.yul\":11314:11319   */\n      dup3\n        /* \"#utility.yul\":11261:11328   */\n      tag_89\n      jump\t// in\n    tag_220:\n        /* \"#utility.yul\":11255:11259   */\n      dup7\n        /* \"#utility.yul\":11248:11329   */\n      sstore\n        /* \"#utility.yul\":11117:11339   */\n      pop\n        /* \"#utility.yul\":10452:11339   */\n      jump(tag_217)\n        /* \"#utility.yul\":10482:11100   */\n    tag_218:\n        /* \"#utility.yul\":10534:10538   */\n      0x1f\n        /* \"#utility.yul\":10530:10539   */\n      not\n        /* \"#utility.yul\":10522:10528   */\n      dup5\n        /* \"#utility.yul\":10518:10540   */\n      and\n        /* \"#utility.yul\":10568:10605   */\n      tag_221\n        /* \"#utility.yul\":10600:10604   */\n      dup7\n        /* \"#utility.yul\":10568:10605   */\n      tag_75\n      jump\t// in\n    tag_221:\n        /* \"#utility.yul\":10627:10628   */\n      0x00\n        /* \"#utility.yul\":10641:10849   */\n    tag_222:\n        /* \"#utility.yul\":10655:10662   */\n      dup3\n        /* \"#utility.yul\":10652:10653   */\n      dup2\n        /* \"#utility.yul\":10649:10663   */\n      lt\n        /* \"#utility.yul\":10641:10849   */\n      iszero\n      tag_224\n      jumpi\n        /* \"#utility.yul\":10734:10743   */\n      dup5\n        /* \"#utility.yul\":10729:10732   */\n      dup10\n        /* \"#utility.yul\":10725:10744   */\n      add\n        /* \"#utility.yul\":10719:10745   */\n      mload\n        /* \"#utility.yul\":10711:10717   */\n      dup3\n        /* \"#utility.yul\":10704:10746   */\n      sstore\n        /* \"#utility.yul\":10785:10786   */\n      0x01\n        /* \"#utility.yul\":10777:10783   */\n      dup3\n        /* \"#utility.yul\":10773:10787   */\n      add\n        /* \"#utility.yul\":10763:10787   */\n      swap2\n      pop\n        /* \"#utility.yul\":10832:10834   */\n      0x20\n        /* \"#utility.yul\":10821:10830   */\n      dup6\n        /* \"#utility.yul\":10817:10835   */\n      add\n        /* \"#utility.yul\":10804:10835   */\n      swap5\n      pop\n        /* \"#utility.yul\":10678:10682   */\n      0x20\n        /* \"#utility.yul\":10675:10676   */\n      dup2\n        /* \"#utility.yul\":10671:10683   */\n      add\n        /* \"#utility.yul\":10666:10683   */\n      swap1\n      pop\n        /* \"#utility.yul\":10641:10849   */\n      jump(tag_222)\n    tag_224:\n        /* \"#utility.yul\":10877:10883   */\n      dup7\n        /* \"#utility.yul\":10868:10875   */\n      dup4\n        /* \"#utility.yul\":10865:10884   */\n      lt\n        /* \"#utility.yul\":10862:11041   */\n      iszero\n      tag_225\n      jumpi\n        /* \"#utility.yul\":10935:10944   */\n      dup5\n        /* \"#utility.yul\":10930:10933   */\n      dup10\n        /* \"#utility.yul\":10926:10945   */\n      add\n        /* \"#utility.yul\":10920:10946   */\n      mload\n        /* \"#utility.yul\":10978:11026   */\n      tag_226\n        /* \"#utility.yul\":11020:11024   */\n      0x1f\n        /* \"#utility.yul\":11012:11018   */\n      dup10\n        /* \"#utility.yul\":11008:11025   */\n      and\n        /* \"#utility.yul\":10997:11006   */\n      dup3\n        /* \"#utility.yul\":10978:11026   */\n      tag_88\n      jump\t// in\n    tag_226:\n        /* \"#utility.yul\":10970:10976   */\n      dup4\n        /* \"#utility.yul\":10963:11027   */\n      sstore\n        /* \"#utility.yul\":10885:11041   */\n      pop\n        /* \"#utility.yul\":10862:11041   */\n    tag_225:\n        /* \"#utility.yul\":11087:11088   */\n      0x01\n        /* \"#utility.yul\":11083:11084   */\n      0x02\n        /* \"#utility.yul\":11075:11081   */\n      dup9\n        /* \"#utility.yul\":11071:11085   */\n      mul\n        /* \"#utility.yul\":11067:11089   */\n      add\n        /* \"#utility.yul\":11061:11065   */\n      dup9\n        /* \"#utility.yul\":11054:11090   */\n      sstore\n        /* \"#utility.yul\":10489:11100   */\n      pop\n      pop\n      pop\n        /* \"#utility.yul\":10452:11339   */\n    tag_217:\n      pop\n        /* \"#utility.yul\":10042:11345   */\n      pop\n      pop\n      pop\n        /* \"#utility.yul\":9950:11345   */\n      pop\n      pop\n      jump\t// out\n        /* \"#utility.yul\":11351:11499   */\n    tag_90:\n        /* \"#utility.yul\":11453:11464   */\n      0x00\n        /* \"#utility.yul\":11490:11493   */\n      dup2\n        /* \"#utility.yul\":11475:11493   */\n      swap1\n      pop\n        /* \"#utility.yul\":11351:11499   */\n      swap3\n      swap2\n      pop\n      pop\n      jump\t// out\n        /* \"#utility.yul\":11505:11895   */\n    tag_91:\n        /* \"#utility.yul\":11611:11614   */\n      0x00\n        /* \"#utility.yul\":11639:11678   */\n      tag_229\n        /* \"#utility.yul\":11672:11677   */\n      dup3\n        /* \"#utility.yul\":11639:11678   */\n      tag_59\n      jump\t// in\n    tag_229:\n        /* \"#utility.yul\":11694:11783   */\n      tag_230\n        /* \"#utility.yul\":11776:11782   */\n      dup2\n        /* \"#utility.yul\":11771:11774   */\n      dup6\n        /* \"#utility.yul\":11694:11783   */\n      tag_90\n      jump\t// in\n    tag_230:\n        /* \"#utility.yul\":11687:11783   */\n      swap4\n      pop\n        /* \"#utility.yul\":11792:11857   */\n      tag_231\n        /* \"#utility.yul\":11850:11856   */\n      dup2\n        /* \"#utility.yul\":11845:11848   */\n      dup6\n        /* \"#utility.yul\":11838:11842   */\n      0x20\n        /* \"#utility.yul\":11831:11836   */\n      dup7\n        /* \"#utility.yul\":11827:11843   */\n      add\n        /* \"#utility.yul\":11792:11857   */\n      tag_61\n      jump\t// in\n    tag_231:\n        /* \"#utility.yul\":11882:11888   */\n      dup1\n        /* \"#utility.yul\":11877:11880   */\n      dup5\n        /* \"#utility.yul\":11873:11889   */\n      add\n        /* \"#utility.yul\":11866:11889   */\n      swap2\n      pop\n        /* \"#utility.yul\":11615:11895   */\n      pop\n        /* \"#utility.yul\":11505:11895   */\n      swap3\n      swap2\n      pop\n      pop\n      jump\t// out\n        /* \"#utility.yul\":11901:12176   */\n    tag_51:\n        /* \"#utility.yul\":12033:12036   */\n      0x00\n        /* \"#utility.yul\":12055:12150   */\n      tag_233\n        /* \"#utility.yul\":12146:12149   */\n      dup3\n        /* \"#utility.yul\":12137:12143   */\n      dup5\n        /* \"#utility.yul\":12055:12150   */\n      tag_91\n      jump\t// in\n    tag_233:\n        /* \"#utility.yul\":12048:12150   */\n      swap2\n      pop\n        /* \"#utility.yul\":12167:12170   */\n      dup2\n        /* \"#utility.yul\":12160:12170   */\n      swap1\n      pop\n        /* \"#utility.yul\":11901:12176   */\n      swap3\n      swap2\n      pop\n      pop\n      jump\t// out\n\n    auxdata: 0xa2646970667358221220c538998ab22d4d11df85af8fdbd7c71f02ef47b3569320a348925ff5bb80adfb64736f6c63430008180033\n}\n",
				"bytecode": {
					"linkReferences": {},
					"object": "608060405234801561000f575f80fd5b5061098c8061001d5f395ff3fe608060405234801561000f575f80fd5b5060043610610060575f3560e01c80632e64cec1146100645780632ebce63114610082578063471f7cdf146100b35780636057361d146100d15780636f760f41146100ed5780638bab8dd514610109575b5f80fd5b61006c610139565b60405161007991906102d9565b60405180910390f35b61009c6004803603810190610097919061032d565b610141565b6040516100aa9291906103e2565b60405180910390f35b6100bb6101f6565b6040516100c891906102d9565b60405180910390f35b6100eb60048036038101906100e6919061032d565b6101fb565b005b6101076004803603810190610102919061053c565b610210565b005b610123600480360381019061011e9190610596565b610294565b60405161013091906102d9565b60405180910390f35b5f8054905090565b60018181548110610150575f80fd5b905f5260205f2090600202015f91509050805f0154908060010180546101759061060a565b80601f01602080910402602001604051908101604052809291908181526020018280546101a19061060a565b80156101ec5780601f106101c3576101008083540402835291602001916101ec565b820191905f5260205f20905b8154815290600101906020018083116101cf57829003601f168201915b5050505050905082565b5f5481565b6005816102089190610667565b5f8190555050565b6001604051806040016040528083815260200184815250908060018154018082558091505060019003905f5260205f2090600202015f909190919091505f820151815f0155602082015181600101908161026a9190610837565b5050508060028360405161027e9190610940565b9081526020016040518091039020819055505050565b6002818051602081018201805184825260208301602085012081835280955050505050505f915090505481565b5f819050919050565b6102d3816102c1565b82525050565b5f6020820190506102ec5f8301846102ca565b92915050565b5f604051905090565b5f80fd5b5f80fd5b61030c816102c1565b8114610316575f80fd5b50565b5f8135905061032781610303565b92915050565b5f60208284031215610342576103416102fb565b5b5f61034f84828501610319565b91505092915050565b5f81519050919050565b5f82825260208201905092915050565b5f5b8381101561038f578082015181840152602081019050610374565b5f8484015250505050565b5f601f19601f8301169050919050565b5f6103b482610358565b6103be8185610362565b93506103ce818560208601610372565b6103d78161039a565b840191505092915050565b5f6040820190506103f55f8301856102ca565b818103602083015261040781846103aa565b90509392505050565b5f80fd5b5f80fd5b7f4e487b71000000000000000000000000000000000000000000000000000000005f52604160045260245ffd5b61044e8261039a565b810181811067ffffffffffffffff8211171561046d5761046c610418565b5b80604052505050565b5f61047f6102f2565b905061048b8282610445565b919050565b5f67ffffffffffffffff8211156104aa576104a9610418565b5b6104b38261039a565b9050602081019050919050565b828183375f83830152505050565b5f6104e06104db84610490565b610476565b9050828152602081018484840111156104fc576104fb610414565b5b6105078482856104c0565b509392505050565b5f82601f83011261052357610522610410565b5b81356105338482602086016104ce565b91505092915050565b5f8060408385031215610552576105516102fb565b5b5f83013567ffffffffffffffff81111561056f5761056e6102ff565b5b61057b8582860161050f565b925050602061058c85828601610319565b9150509250929050565b5f602082840312156105ab576105aa6102fb565b5b5f82013567ffffffffffffffff8111156105c8576105c76102ff565b5b6105d48482850161050f565b91505092915050565b7f4e487b71000000000000000000000000000000000000000000000000000000005f52602260045260245ffd5b5f600282049050600182168061062157607f821691505b602082108103610634576106336105dd565b5b50919050565b7f4e487b71000000000000000000000000000000000000000000000000000000005f52601160045260245ffd5b5f610671826102c1565b915061067c836102c1565b92508282019050808211156106945761069361063a565b5b92915050565b5f819050815f5260205f209050919050565b5f6020601f8301049050919050565b5f82821b905092915050565b5f600883026106f67fffffffffffffffffffffffffffffffffffffffffffffffffffffffffffffffff826106bb565b61070086836106bb565b95508019841693508086168417925050509392505050565b5f819050919050565b5f61073b610736610731846102c1565b610718565b6102c1565b9050919050565b5f819050919050565b61075483610721565b61076861076082610742565b8484546106c7565b825550505050565b5f90565b61077c610770565b61078781848461074b565b505050565b5b818110156107aa5761079f5f82610774565b60018101905061078d565b5050565b601f8211156107ef576107c08161069a565b6107c9846106ac565b810160208510156107d8578190505b6107ec6107e4856106ac565b83018261078c565b50505b505050565b5f82821c905092915050565b5f61080f5f19846008026107f4565b1980831691505092915050565b5f6108278383610800565b9150826002028217905092915050565b61084082610358565b67ffffffffffffffff81111561085957610858610418565b5b610863825461060a565b61086e8282856107ae565b5f60209050601f83116001811461089f575f841561088d578287015190505b610897858261081c565b8655506108fe565b601f1984166108ad8661069a565b5f5b828110156108d4578489015182556001820191506020850194506020810190506108af565b868310156108f157848901516108ed601f891682610800565b8355505b6001600288020188555050505b505050505050565b5f81905092915050565b5f61091a82610358565b6109248185610906565b9350610934818560208601610372565b80840191505092915050565b5f61094b8284610910565b91508190509291505056fea2646970667358221220c538998ab22d4d11df85af8fdbd7c71f02ef47b3569320a348925ff5bb80adfb64736f6c63430008180033",
					"opcodes": "PUSH1 0x80 PUSH1 0x40 MSTORE CALLVALUE DUP1 ISZERO PUSH2 0xF JUMPI PUSH0 DUP1 REVERT JUMPDEST POP PUSH2 0x98C DUP1 PUSH2 0x1D PUSH0 CODECOPY PUSH0 RETURN INVALID PUSH1 0x80 PUSH1 0x40 MSTORE CALLVALUE DUP1 ISZERO PUSH2 0xF JUMPI PUSH0 DUP1 REVERT JUMPDEST POP PUSH1 0x4 CALLDATASIZE LT PUSH2 0x60 JUMPI PUSH0 CALLDATALOAD PUSH1 0xE0 SHR DUP1 PUSH4 0x2E64CEC1 EQ PUSH2 0x64 JUMPI DUP1 PUSH4 0x2EBCE631 EQ PUSH2 0x82 JUMPI DUP1 PUSH4 0x471F7CDF EQ PUSH2 0xB3 JUMPI DUP1 PUSH4 0x6057361D EQ PUSH2 0xD1 JUMPI DUP1 PUSH4 0x6F760F41 EQ PUSH2 0xED JUMPI DUP1 PUSH4 0x8BAB8DD5 EQ PUSH2 0x109 JUMPI JUMPDEST PUSH0 DUP1 REVERT JUMPDEST PUSH2 0x6C PUSH2 0x139 JUMP JUMPDEST PUSH1 0x40 MLOAD PUSH2 0x79 SWAP2 SWAP1 PUSH2 0x2D9 JUMP JUMPDEST PUSH1 0x40 MLOAD DUP1 SWAP2 SUB SWAP1 RETURN JUMPDEST PUSH2 0x9C PUSH1 0x4 DUP1 CALLDATASIZE SUB DUP2 ADD SWAP1 PUSH2 0x97 SWAP2 SWAP1 PUSH2 0x32D JUMP JUMPDEST PUSH2 0x141 JUMP JUMPDEST PUSH1 0x40 MLOAD PUSH2 0xAA SWAP3 SWAP2 SWAP1 PUSH2 0x3E2 JUMP JUMPDEST PUSH1 0x40 MLOAD DUP1 SWAP2 SUB SWAP1 RETURN JUMPDEST PUSH2 0xBB PUSH2 0x1F6 JUMP JUMPDEST PUSH1 0x40 MLOAD PUSH2 0xC8 SWAP2 SWAP1 PUSH2 0x2D9 JUMP JUMPDEST PUSH1 0x40 MLOAD DUP1 SWAP2 SUB SWAP1 RETURN JUMPDEST PUSH2 0xEB PUSH1 0x4 DUP1 CALLDATASIZE SUB DUP2 ADD SWAP1 PUSH2 0xE6 SWAP2 SWAP1 PUSH2 0x32D JUMP JUMPDEST PUSH2 0x1FB JUMP JUMPDEST STOP JUMPDEST PUSH2 0x107 PUSH1 0x4 DUP1 CALLDATASIZE SUB DUP2 ADD SWAP1 PUSH2 0x102 SWAP2 SWAP1 PUSH2 0x53C JUMP JUMPDEST PUSH2 0x210 JUMP JUMPDEST STOP JUMPDEST PUSH2 0x123 PUSH1 0x4 DUP1 CALLDATASIZE SUB DUP2 ADD SWAP1 PUSH2 0x11E SWAP2 SWAP1 PUSH2 0x596 JUMP JUMPDEST PUSH2 0x294 JUMP JUMPDEST PUSH1 0x40 MLOAD PUSH2 0x130 SWAP2 SWAP1 PUSH2 0x2D9 JUMP JUMPDEST PUSH1 0x40 MLOAD DUP1 SWAP2 SUB SWAP1 RETURN JUMPDEST PUSH0 DUP1 SLOAD SWAP1 POP SWAP1 JUMP JUMPDEST PUSH1 0x1 DUP2 DUP2 SLOAD DUP2 LT PUSH2 0x150 JUMPI PUSH0 DUP1 REVERT JUMPDEST SWAP1 PUSH0 MSTORE PUSH1 0x20 PUSH0 KECCAK256 SWAP1 PUSH1 0x2 MUL ADD PUSH0 SWAP2 POP SWAP1 POP DUP1 PUSH0 ADD SLOAD SWAP1 DUP1 PUSH1 0x1 ADD DUP1 SLOAD PUSH2 0x175 SWAP1 PUSH2 0x60A JUMP JUMPDEST DUP1 PUSH1 0x1F ADD PUSH1 0x20 DUP1 SWAP2 DIV MUL PUSH1 0x20 ADD PUSH1 0x40 MLOAD SWAP1 DUP2 ADD PUSH1 0x40 MSTORE DUP1 SWAP3 SWAP2 SWAP1 DUP2 DUP2 MSTORE PUSH1 0x20 ADD DUP3 DUP1 SLOAD PUSH2 0x1A1 SWAP1 PUSH2 0x60A JUMP JUMPDEST DUP1 ISZERO PUSH2 0x1EC JUMPI DUP1 PUSH1 0x1F LT PUSH2 0x1C3 JUMPI PUSH2 0x100 DUP1 DUP4 SLOAD DIV MUL DUP4 MSTORE SWAP2 PUSH1 0x20 ADD SWAP2 PUSH2 0x1EC JUMP JUMPDEST DUP3 ADD SWAP2 SWAP1 PUSH0 MSTORE PUSH1 0x20 PUSH0 KECCAK256 SWAP1 JUMPDEST DUP2 SLOAD DUP2 MSTORE SWAP1 PUSH1 0x1 ADD SWAP1 PUSH1 0x20 ADD DUP1 DUP4 GT PUSH2 0x1CF JUMPI DUP3 SWAP1 SUB PUSH1 0x1F AND DUP3 ADD SWAP2 JUMPDEST POP POP POP POP POP SWAP1 POP DUP3 JUMP JUMPDEST PUSH0 SLOAD DUP2 JUMP JUMPDEST PUSH1 0x5 DUP2 PUSH2 0x208 SWAP2 SWAP1 PUSH2 0x667 JUMP JUMPDEST PUSH0 DUP2 SWAP1 SSTORE POP POP JUMP JUMPDEST PUSH1 0x1 PUSH1 0x40 MLOAD DUP1 PUSH1 0x40 ADD PUSH1 0x40 MSTORE DUP1 DUP4 DUP2 MSTORE PUSH1 0x20 ADD DUP5 DUP2 MSTORE POP SWAP1 DUP1 PUSH1 0x1 DUP2 SLOAD ADD DUP1 DUP3 SSTORE DUP1 SWAP2 POP POP PUSH1 0x1 SWAP1 SUB SWAP1 PUSH0 MSTORE PUSH1 0x20 PUSH0 KECCAK256 SWAP1 PUSH1 0x2 MUL ADD PUSH0 SWAP1 SWAP2 SWAP1 SWAP2 SWAP1 SWAP2 POP PUSH0 DUP3 ADD MLOAD DUP2 PUSH0 ADD SSTORE PUSH1 0x20 DUP3 ADD MLOAD DUP2 PUSH1 0x1 ADD SWAP1 DUP2 PUSH2 0x26A SWAP2 SWAP1 PUSH2 0x837 JUMP JUMPDEST POP POP POP DUP1 PUSH1 0x2 DUP4 PUSH1 0x40 MLOAD PUSH2 0x27E SWAP2 SWAP1 PUSH2 0x940 JUMP JUMPDEST SWAP1 DUP2 MSTORE PUSH1 0x20 ADD PUSH1 0x40 MLOAD DUP1 SWAP2 SUB SWAP1 KECCAK256 DUP2 SWAP1 SSTORE POP POP POP JUMP JUMPDEST PUSH1 0x2 DUP2 DUP1 MLOAD PUSH1 0x20 DUP2 ADD DUP3 ADD DUP1 MLOAD DUP5 DUP3 MSTORE PUSH1 0x20 DUP4 ADD PUSH1 0x20 DUP6 ADD KECCAK256 DUP2 DUP4 MSTORE DUP1 SWAP6 POP POP POP POP POP POP PUSH0 SWAP2 POP SWAP1 POP SLOAD DUP2 JUMP JUMPDEST PUSH0 DUP2 SWAP1 POP SWAP2 SWAP1 POP JUMP JUMPDEST PUSH2 0x2D3 DUP2 PUSH2 0x2C1 JUMP JUMPDEST DUP3 MSTORE POP POP JUMP JUMPDEST PUSH0 PUSH1 0x20 DUP3 ADD SWAP1 POP PUSH2 0x2EC PUSH0 DUP4 ADD DUP5 PUSH2 0x2CA JUMP JUMPDEST SWAP3 SWAP2 POP POP JUMP JUMPDEST PUSH0 PUSH1 0x40 MLOAD SWAP1 POP SWAP1 JUMP JUMPDEST PUSH0 DUP1 REVERT JUMPDEST PUSH0 DUP1 REVERT JUMPDEST PUSH2 0x30C DUP2 PUSH2 0x2C1 JUMP JUMPDEST DUP2 EQ PUSH2 0x316 JUMPI PUSH0 DUP1 REVERT JUMPDEST POP JUMP JUMPDEST PUSH0 DUP2 CALLDATALOAD SWAP1 POP PUSH2 0x327 DUP2 PUSH2 0x303 JUMP JUMPDEST SWAP3 SWAP2 POP POP JUMP JUMPDEST PUSH0 PUSH1 0x20 DUP3 DUP5 SUB SLT ISZERO PUSH2 0x342 JUMPI PUSH2 0x341 PUSH2 0x2FB JUMP JUMPDEST JUMPDEST PUSH0 PUSH2 0x34F DUP5 DUP3 DUP6 ADD PUSH2 0x319 JUMP JUMPDEST SWAP2 POP POP SWAP3 SWAP2 POP POP JUMP JUMPDEST PUSH0 DUP2 MLOAD SWAP1 POP SWAP2 SWAP1 POP JUMP JUMPDEST PUSH0 DUP3 DUP3 MSTORE PUSH1 0x20 DUP3 ADD SWAP1 POP SWAP3 SWAP2 POP POP JUMP JUMPDEST PUSH0 JUMPDEST DUP4 DUP2 LT ISZERO PUSH2 0x38F JUMPI DUP1 DUP3 ADD MLOAD DUP2 DUP5 ADD MSTORE PUSH1 0x20 DUP2 ADD SWAP1 POP PUSH2 0x374 JUMP JUMPDEST PUSH0 DUP5 DUP5 ADD MSTORE POP POP POP POP JUMP JUMPDEST PUSH0 PUSH1 0x1F NOT PUSH1 0x1F DUP4 ADD AND SWAP1 POP SWAP2 SWAP1 POP JUMP JUMPDEST PUSH0 PUSH2 0x3B4 DUP3 PUSH2 0x358 JUMP JUMPDEST PUSH2 0x3BE DUP2 DUP6 PUSH2 0x362 JUMP JUMPDEST SWAP4 POP PUSH2 0x3CE DUP2 DUP6 PUSH1 0x20 DUP7 ADD PUSH2 0x372 JUMP JUMPDEST PUSH2 0x3D7 DUP2 PUSH2 0x39A JUMP JUMPDEST DUP5 ADD SWAP2 POP POP SWAP3 SWAP2 POP POP JUMP JUMPDEST PUSH0 PUSH1 0x40 DUP3 ADD SWAP1 POP PUSH2 0x3F5 PUSH0 DUP4 ADD DUP6 PUSH2 0x2CA JUMP JUMPDEST DUP2 DUP2 SUB PUSH1 0x20 DUP4 ADD MSTORE PUSH2 0x407 DUP2 DUP5 PUSH2 0x3AA JUMP JUMPDEST SWAP1 POP SWAP4 SWAP3 POP POP POP JUMP JUMPDEST PUSH0 DUP1 REVERT JUMPDEST PUSH0 DUP1 REVERT JUMPDEST PUSH32 0x4E487B7100000000000000000000000000000000000000000000000000000000 PUSH0 MSTORE PUSH1 0x41 PUSH1 0x4 MSTORE PUSH1 0x24 PUSH0 REVERT JUMPDEST PUSH2 0x44E DUP3 PUSH2 0x39A JUMP JUMPDEST DUP2 ADD DUP2 DUP2 LT PUSH8 0xFFFFFFFFFFFFFFFF DUP3 GT OR ISZERO PUSH2 0x46D JUMPI PUSH2 0x46C PUSH2 0x418 JUMP JUMPDEST JUMPDEST DUP1 PUSH1 0x40 MSTORE POP POP POP JUMP JUMPDEST PUSH0 PUSH2 0x47F PUSH2 0x2F2 JUMP JUMPDEST SWAP1 POP PUSH2 0x48B DUP3 DUP3 PUSH2 0x445 JUMP JUMPDEST SWAP2 SWAP1 POP JUMP JUMPDEST PUSH0 PUSH8 0xFFFFFFFFFFFFFFFF DUP3 GT ISZERO PUSH2 0x4AA JUMPI PUSH2 0x4A9 PUSH2 0x418 JUMP JUMPDEST JUMPDEST PUSH2 0x4B3 DUP3 PUSH2 0x39A JUMP JUMPDEST SWAP1 POP PUSH1 0x20 DUP2 ADD SWAP1 POP SWAP2 SWAP1 POP JUMP JUMPDEST DUP3 DUP2 DUP4 CALLDATACOPY PUSH0 DUP4 DUP4 ADD MSTORE POP POP POP JUMP JUMPDEST PUSH0 PUSH2 0x4E0 PUSH2 0x4DB DUP5 PUSH2 0x490 JUMP JUMPDEST PUSH2 0x476 JUMP JUMPDEST SWAP1 POP DUP3 DUP2 MSTORE PUSH1 0x20 DUP2 ADD DUP5 DUP5 DUP5 ADD GT ISZERO PUSH2 0x4FC JUMPI PUSH2 0x4FB PUSH2 0x414 JUMP JUMPDEST JUMPDEST PUSH2 0x507 DUP5 DUP3 DUP6 PUSH2 0x4C0 JUMP JUMPDEST POP SWAP4 SWAP3 POP POP POP JUMP JUMPDEST PUSH0 DUP3 PUSH1 0x1F DUP4 ADD SLT PUSH2 0x523 JUMPI PUSH2 0x522 PUSH2 0x410 JUMP JUMPDEST JUMPDEST DUP2 CALLDATALOAD PUSH2 0x533 DUP5 DUP3 PUSH1 0x20 DUP7 ADD PUSH2 0x4CE JUMP JUMPDEST SWAP2 POP POP SWAP3 SWAP2 POP POP JUMP JUMPDEST PUSH0 DUP1 PUSH1 0x40 DUP4 DUP6 SUB SLT ISZERO PUSH2 0x552 JUMPI PUSH2 0x551 PUSH2 0x2FB JUMP JUMPDEST JUMPDEST PUSH0 DUP4 ADD CALLDATALOAD PUSH8 0xFFFFFFFFFFFFFFFF DUP2 GT ISZERO PUSH2 0x56F JUMPI PUSH2 0x56E PUSH2 0x2FF JUMP JUMPDEST JUMPDEST PUSH2 0x57B DUP6 DUP3 DUP7 ADD PUSH2 0x50F JUMP JUMPDEST SWAP3 POP POP PUSH1 0x20 PUSH2 0x58C DUP6 DUP3 DUP7 ADD PUSH2 0x319 JUMP JUMPDEST SWAP2 POP POP SWAP3 POP SWAP3 SWAP1 POP JUMP JUMPDEST PUSH0 PUSH1 0x20 DUP3 DUP5 SUB SLT ISZERO PUSH2 0x5AB JUMPI PUSH2 0x5AA PUSH2 0x2FB JUMP JUMPDEST JUMPDEST PUSH0 DUP3 ADD CALLDATALOAD PUSH8 0xFFFFFFFFFFFFFFFF DUP2 GT ISZERO PUSH2 0x5C8 JUMPI PUSH2 0x5C7 PUSH2 0x2FF JUMP JUMPDEST JUMPDEST PUSH2 0x5D4 DUP5 DUP3 DUP6 ADD PUSH2 0x50F JUMP JUMPDEST SWAP2 POP POP SWAP3 SWAP2 POP POP JUMP JUMPDEST PUSH32 0x4E487B7100000000000000000000000000000000000000000000000000000000 PUSH0 MSTORE PUSH1 0x22 PUSH1 0x4 MSTORE PUSH1 0x24 PUSH0 REVERT JUMPDEST PUSH0 PUSH1 0x2 DUP3 DIV SWAP1 POP PUSH1 0x1 DUP3 AND DUP1 PUSH2 0x621 JUMPI PUSH1 0x7F DUP3 AND SWAP2 POP JUMPDEST PUSH1 0x20 DUP3 LT DUP2 SUB PUSH2 0x634 JUMPI PUSH2 0x633 PUSH2 0x5DD JUMP JUMPDEST JUMPDEST POP SWAP2 SWAP1 POP JUMP JUMPDEST PUSH32 0x4E487B7100000000000000000000000000000000000000000000000000000000 PUSH0 MSTORE PUSH1 0x11 PUSH1 0x4 MSTORE PUSH1 0x24 PUSH0 REVERT JUMPDEST PUSH0 PUSH2 0x671 DUP3 PUSH2 0x2C1 JUMP JUMPDEST SWAP2 POP PUSH2 0x67C DUP4 PUSH2 0x2C1 JUMP JUMPDEST SWAP3 POP DUP3 DUP3 ADD SWAP1 POP DUP1 DUP3 GT ISZERO PUSH2 0x694 JUMPI PUSH2 0x693 PUSH2 0x63A JUMP JUMPDEST JUMPDEST SWAP3 SWAP2 POP POP JUMP JUMPDEST PUSH0 DUP2 SWAP1 POP DUP2 PUSH0 MSTORE PUSH1 0x20 PUSH0 KECCAK256 SWAP1 POP SWAP2 SWAP1 POP JUMP JUMPDEST PUSH0 PUSH1 0x20 PUSH1 0x1F DUP4 ADD DIV SWAP1 POP SWAP2 SWAP1 POP JUMP JUMPDEST PUSH0 DUP3 DUP3 SHL SWAP1 POP SWAP3 SWAP2 POP POP JUMP JUMPDEST PUSH0 PUSH1 0x8 DUP4 MUL PUSH2 0x6F6 PUSH32 0xFFFFFFFFFFFFFFFFFFFFFFFFFFFFFFFFFFFFFFFFFFFFFFFFFFFFFFFFFFFFFFFF DUP3 PUSH2 0x6BB JUMP JUMPDEST PUSH2 0x700 DUP7 DUP4 PUSH2 0x6BB JUMP JUMPDEST SWAP6 POP DUP1 NOT DUP5 AND SWAP4 POP DUP1 DUP7 AND DUP5 OR SWAP3 POP POP POP SWAP4 SWAP3 POP POP POP JUMP JUMPDEST PUSH0 DUP2 SWAP1 POP SWAP2 SWAP1 POP JUMP JUMPDEST PUSH0 PUSH2 0x73B PUSH2 0x736 PUSH2 0x731 DUP5 PUSH2 0x2C1 JUMP JUMPDEST PUSH2 0x718 JUMP JUMPDEST PUSH2 0x2C1 JUMP JUMPDEST SWAP1 POP SWAP2 SWAP1 POP JUMP JUMPDEST PUSH0 DUP2 SWAP1 POP SWAP2 SWAP1 POP JUMP JUMPDEST PUSH2 0x754 DUP4 PUSH2 0x721 JUMP JUMPDEST PUSH2 0x768 PUSH2 0x760 DUP3 PUSH2 0x742 JUMP JUMPDEST DUP5 DUP5 SLOAD PUSH2 0x6C7 JUMP JUMPDEST DUP3 SSTORE POP POP POP POP JUMP JUMPDEST PUSH0 SWAP1 JUMP JUMPDEST PUSH2 0x77C PUSH2 0x770 JUMP JUMPDEST PUSH2 0x787 DUP2 DUP5 DUP5 PUSH2 0x74B JUMP JUMPDEST POP POP POP JUMP JUMPDEST JUMPDEST DUP2 DUP2 LT ISZERO PUSH2 0x7AA JUMPI PUSH2 0x79F PUSH0 DUP3 PUSH2 0x774 JUMP JUMPDEST PUSH1 0x1 DUP2 ADD SWAP1 POP PUSH2 0x78D JUMP JUMPDEST POP POP JUMP JUMPDEST PUSH1 0x1F DUP3 GT ISZERO PUSH2 0x7EF JUMPI PUSH2 0x7C0 DUP2 PUSH2 0x69A JUMP JUMPDEST PUSH2 0x7C9 DUP5 PUSH2 0x6AC JUMP JUMPDEST DUP2 ADD PUSH1 0x20 DUP6 LT ISZERO PUSH2 0x7D8 JUMPI DUP2 SWAP1 POP JUMPDEST PUSH2 0x7EC PUSH2 0x7E4 DUP6 PUSH2 0x6AC JUMP JUMPDEST DUP4 ADD DUP3 PUSH2 0x78C JUMP JUMPDEST POP POP JUMPDEST POP POP POP JUMP JUMPDEST PUSH0 DUP3 DUP3 SHR SWAP1 POP SWAP3 SWAP2 POP POP JUMP JUMPDEST PUSH0 PUSH2 0x80F PUSH0 NOT DUP5 PUSH1 0x8 MUL PUSH2 0x7F4 JUMP JUMPDEST NOT DUP1 DUP4 AND SWAP2 POP POP SWAP3 SWAP2 POP POP JUMP JUMPDEST PUSH0 PUSH2 0x827 DUP4 DUP4 PUSH2 0x800 JUMP JUMPDEST SWAP2 POP DUP3 PUSH1 0x2 MUL DUP3 OR SWAP1 POP SWAP3 SWAP2 POP POP JUMP JUMPDEST PUSH2 0x840 DUP3 PUSH2 0x358 JUMP JUMPDEST PUSH8 0xFFFFFFFFFFFFFFFF DUP2 GT ISZERO PUSH2 0x859 JUMPI PUSH2 0x858 PUSH2 0x418 JUMP JUMPDEST JUMPDEST PUSH2 0x863 DUP3 SLOAD PUSH2 0x60A JUMP JUMPDEST PUSH2 0x86E DUP3 DUP3 DUP6 PUSH2 0x7AE JUMP JUMPDEST PUSH0 PUSH1 0x20 SWAP1 POP PUSH1 0x1F DUP4 GT PUSH1 0x1 DUP2 EQ PUSH2 0x89F JUMPI PUSH0 DUP5 ISZERO PUSH2 0x88D JUMPI DUP3 DUP8 ADD MLOAD SWAP1 POP JUMPDEST PUSH2 0x897 DUP6 DUP3 PUSH2 0x81C JUMP JUMPDEST DUP7 SSTORE POP PUSH2 0x8FE JUMP JUMPDEST PUSH1 0x1F NOT DUP5 AND PUSH2 0x8AD DUP7 PUSH2 0x69A JUMP JUMPDEST PUSH0 JUMPDEST DUP3 DUP2 LT ISZERO PUSH2 0x8D4 JUMPI DUP5 DUP10 ADD MLOAD DUP3 SSTORE PUSH1 0x1 DUP3 ADD SWAP2 POP PUSH1 0x20 DUP6 ADD SWAP5 POP PUSH1 0x20 DUP2 ADD SWAP1 POP PUSH2 0x8AF JUMP JUMPDEST DUP7 DUP4 LT ISZERO PUSH2 0x8F1 JUMPI DUP5 DUP10 ADD MLOAD PUSH2 0x8ED PUSH1 0x1F DUP10 AND DUP3 PUSH2 0x800 JUMP JUMPDEST DUP4 SSTORE POP JUMPDEST PUSH1 0x1 PUSH1 0x2 DUP9 MUL ADD DUP9 SSTORE POP POP POP JUMPDEST POP POP POP POP POP POP JUMP JUMPDEST PUSH0 DUP2 SWAP1 POP SWAP3 SWAP2 POP POP JUMP JUMPDEST PUSH0 PUSH2 0x91A DUP3 PUSH2 0x358 JUMP JUMPDEST PUSH2 0x924 DUP2 DUP6 PUSH2 0x906 JUMP JUMPDEST SWAP4 POP PUSH2 0x934 DUP2 DUP6 PUSH1 0x20 DUP7 ADD PUSH2 0x372 JUMP JUMPDEST DUP1 DUP5 ADD SWAP2 POP POP SWAP3 SWAP2 POP POP JUMP JUMPDEST PUSH0 PUSH2 0x94B DUP3 DUP5 PUSH2 0x910 JUMP JUMPDEST SWAP2 POP DUP2 SWAP1 POP SWAP3 SWAP2 POP POP JUMP INVALID LOG2 PUSH5 0x6970667358 0x22 SLT KECCAK256 0xC5 CODESIZE SWAP10 DUP11 0xB2 0x2D 0x4D GT 0xDF DUP6 0xAF DUP16 0xDB 0xD7 0xC7 0x1F MUL 0xEF SELFBALANCE 0xB3 JUMP SWAP4 KECCAK256 LOG3 BASEFEE SWAP3 PUSH0 CREATE2 0xBB DUP1 0xAD 0xFB PUSH5 0x736F6C6343 STOP ADDMOD XOR STOP CALLER "
				},
				"gasEstimates": {
					"creation": {
						"codeDepositCost": "488800",
						"executionCost": "522",
						"totalCost": "489322"
					},
					"external": {
						"addPerson(string,uint256)": "infinite",
						"favoriteNumber()": "2446",
						"listOfPeople(uint256)": "infinite",
						"nameToFavoriteNumber(string)": "infinite",
						"retrieve()": "2410",
						"store(uint256)": "infinite"
					}
				},
				"methodIdentifiers": {
					"addPerson(string,uint256)": "6f760f41",
					"favoriteNumber()": "471f7cdf",
					"listOfPeople(uint256)": "2ebce631",
					"nameToFavoriteNumber(string)": "8bab8dd5",
					"retrieve()": "2e64cec1",
					"store(uint256)": "6057361d"
				}
			},
			"storageLayout": {
				"storage": [
					{
						"astId": 23,
						"contract": "contracts/Storage/AddFiveStorage.sol:AddFiveStorage",
						"label": "favoriteNumber",
						"offset": 0,
						"slot": "0",
						"type": "t_uint256"
					},
					{
						"astId": 57,
						"contract": "contracts/Storage/AddFiveStorage.sol:AddFiveStorage",
						"label": "listOfPeople",
						"offset": 0,
						"slot": "1",
						"type": "t_array(t_struct(Person)36_storage)dyn_storage"
					},
					{
						"astId": 61,
						"contract": "contracts/Storage/AddFiveStorage.sol:AddFiveStorage",
						"label": "nameToFavoriteNumber",
						"offset": 0,
						"slot": "2",
						"type": "t_mapping(t_string_memory_ptr,t_uint256)"
					}
				],
				"types": {
					"t_array(t_struct(Person)36_storage)dyn_storage": {
						"base": "t_struct(Person)36_storage",
						"encoding": "dynamic_array",
						"label": "struct SimpleStorage.Person[]",
						"numberOfBytes": "32"
					},
					"t_mapping(t_string_memory_ptr,t_uint256)": {
						"encoding": "mapping",
						"key": "t_string_memory_ptr",
						"label": "mapping(string => uint256)",
						"numberOfBytes": "32",
						"value": "t_uint256"
					},
					"t_string_memory_ptr": {
						"encoding": "bytes",
						"label": "string",
						"numberOfBytes": "32"
					},
					"t_string_storage": {
						"encoding": "bytes",
						"label": "string",
						"numberOfBytes": "32"
					},
					"t_struct(Person)36_storage": {
						"encoding": "inplace",
						"label": "struct SimpleStorage.Person",
						"members": [
							{
								"astId": 33,
								"contract": "contracts/Storage/AddFiveStorage.sol:AddFiveStorage",
								"label": "favoriteNumber",
								"offset": 0,
								"slot": "0",
								"type": "t_uint256"
							},
							{
								"astId": 35,
								"contract": "contracts/Storage/AddFiveStorage.sol:AddFiveStorage",
								"label": "name",
								"offset": 0,
								"slot": "1",
								"type": "t_string_storage"
							}
						],
						"numberOfBytes": "64"
					},
					"t_uint256": {
						"encoding": "inplace",
						"label": "uint256",
						"numberOfBytes": "32"
					}
				}
			},
			"userdoc": {
				"kind": "user",
				"methods": {},
				"version": 1
			}
		}
	}
}