{
	"contracts/Storage/SimpleStorage.sol": {
		"SimpleStorage": {
			"abi": [
				{
					"anonymous": false,
					"inputs": [
						{
							"indexed": true,
							"internalType": "uint256",
							"name": "oldNumber",
							"type": "uint256"
						},
						{
							"indexed": false,
							"internalType": "uint256",
							"name": "newFavoriteNumber",
							"type": "uint256"
						},
						{
							"indexed": false,
							"internalType": "address",
							"name": "sender",
							"type": "address"
						}
					],
					"name": "StoredNumber",
					"type": "event"
				},
				{
					"inputs": [
						{
							"internalType": "string",
							"name": "_name",
							"type": "string"
						},
						{
							"internalType": "uint256",
							"name": "_favoriteNumber",
							"type": "uint256"
						}
					],
					"name": "addPerson",
					"outputs": [],
					"stateMutability": "nonpayable",
					"type": "function"
				},
				{
					"inputs": [],
					"name": "favoriteNumber",
					"outputs": [
						{
							"internalType": "uint256",
							"name": "",
							"type": "uint256"
						}
					],
					"stateMutability": "view",
					"type": "function"
				},
				{
					"inputs": [
						{
							"internalType": "uint256",
							"name": "",
							"type": "uint256"
						}
					],
					"name": "listOfPeople",
					"outputs": [
						{
							"internalType": "uint256",
							"name": "favoriteNumber",
							"type": "uint256"
						},
						{
							"internalType": "string",
							"name": "name",
							"type": "string"
						}
					],
					"stateMutability": "view",
					"type": "function"
				},
				{
					"inputs": [
						{
							"internalType": "string",
							"name": "",
							"type": "string"
						}
					],
					"name": "nameToFavoriteNumber",
					"outputs": [
						{
							"internalType": "uint256",
							"name": "",
							"type": "uint256"
						}
					],
					"stateMutability": "view",
					"type": "function"
				},
				{
					"inputs": [],
					"name": "retrieve",
					"outputs": [
						{
							"internalType": "uint256",
							"name": "",
							"type": "uint256"
						}
					],
					"stateMutability": "view",
					"type": "function"
				},
				{
					"inputs": [
						{
							"internalType": "uint256",
							"name": "_favoriteNumber",
							"type": "uint256"
						}
					],
					"name": "store",
					"outputs": [],
					"stateMutability": "nonpayable",
					"type": "function"
				}
			],
			"devdoc": {
				"kind": "dev",
				"methods": {},
				"version": 1
			},
			"evm": {
				"assembly": "    /* \"contracts/Storage/SimpleStorage.sol\":58:898  contract SimpleStorage {... */\n  mstore(0x40, 0x80)\n  callvalue\n  dup1\n  iszero\n  tag_1\n  jumpi\n  0x00\n  dup1\n  revert\ntag_1:\n  pop\n  dataSize(sub_0)\n  dup1\n  dataOffset(sub_0)\n  0x00\n  codecopy\n  0x00\n  return\nstop\n\nsub_0: assembly {\n        /* \"contracts/Storage/SimpleStorage.sol\":58:898  contract SimpleStorage {... */\n      mstore(0x40, 0x80)\n      callvalue\n      dup1\n      iszero\n      tag_1\n      jumpi\n      0x00\n      dup1\n      revert\n    tag_1:\n      pop\n      jumpi(tag_2, lt(calldatasize, 0x04))\n      shr(0xe0, calldataload(0x00))\n      dup1\n      0x2e64cec1\n      eq\n      tag_3\n      jumpi\n      dup1\n      0x2ebce631\n      eq\n      tag_4\n      jumpi\n      dup1\n      0x471f7cdf\n      eq\n      tag_5\n      jumpi\n      dup1\n      0x6057361d\n      eq\n      tag_6\n      jumpi\n      dup1\n      0x6f760f41\n      eq\n      tag_7\n      jumpi\n      dup1\n      0x8bab8dd5\n      eq\n      tag_8\n      jumpi\n    tag_2:\n      0x00\n      dup1\n      revert\n        /* \"contracts/Storage/SimpleStorage.sol\":609:697  function retrieve() public view returns (uint256) {... */\n    tag_3:\n      tag_9\n      tag_10\n      jump\t// in\n    tag_9:\n      mload(0x40)\n      tag_11\n      swap2\n      swap1\n      tag_12\n      jump\t// in\n    tag_11:\n      mload(0x40)\n      dup1\n      swap2\n      sub\n      swap1\n      return\n        /* \"contracts/Storage/SimpleStorage.sol\":512:540  Person[] public listOfPeople */\n    tag_4:\n      tag_13\n      0x04\n      dup1\n      calldatasize\n      sub\n      dup2\n      add\n      swap1\n      tag_14\n      swap2\n      swap1\n      tag_15\n      jump\t// in\n    tag_14:\n      tag_16\n      jump\t// in\n    tag_13:\n      mload(0x40)\n      tag_17\n      swap3\n      swap2\n      swap1\n      tag_18\n      jump\t// in\n    tag_17:\n      mload(0x40)\n      dup1\n      swap2\n      sub\n      swap1\n      return\n        /* \"contracts/Storage/SimpleStorage.sol\":87:116  uint256 public favoriteNumber */\n    tag_5:\n      tag_19\n      tag_20\n      jump\t// in\n    tag_19:\n      mload(0x40)\n      tag_21\n      swap2\n      swap1\n      tag_12\n      jump\t// in\n    tag_21:\n      mload(0x40)\n      dup1\n      swap2\n      sub\n      swap1\n      return\n        /* \"contracts/Storage/SimpleStorage.sol\":295:472  function store(uint256 _favoriteNumber) public virtual {... */\n    tag_6:\n      tag_22\n      0x04\n      dup1\n      calldatasize\n      sub\n      dup2\n      add\n      swap1\n      tag_23\n      swap2\n      swap1\n      tag_15\n      jump\t// in\n    tag_23:\n      tag_24\n      jump\t// in\n    tag_22:\n      stop\n        /* \"contracts/Storage/SimpleStorage.sol\":703:896  function addPerson(string memory _name, uint256 _favoriteNumber) public {... */\n    tag_7:\n      tag_25\n      0x04\n      dup1\n      calldatasize\n      sub\n      dup2\n      add\n      swap1\n      tag_26\n      swap2\n      swap1\n      tag_27\n      jump\t// in\n    tag_26:\n      tag_28\n      jump\t// in\n    tag_25:\n      stop\n        /* \"contracts/Storage/SimpleStorage.sol\":547:601  mapping(string => uint256) public nameToFavoriteNumber */\n    tag_8:\n      tag_29\n      0x04\n      dup1\n      calldatasize\n      sub\n      dup2\n      add\n      swap1\n      tag_30\n      swap2\n      swap1\n      tag_31\n      jump\t// in\n    tag_30:\n      tag_32\n      jump\t// in\n    tag_29:\n      mload(0x40)\n      tag_33\n      swap2\n      swap1\n      tag_12\n      jump\t// in\n    tag_33:\n      mload(0x40)\n      dup1\n      swap2\n      sub\n      swap1\n      return\n        /* \"contracts/Storage/SimpleStorage.sol\":609:697  function retrieve() public view returns (uint256) {... */\n    tag_10:\n        /* \"contracts/Storage/SimpleStorage.sol\":650:657  uint256 */\n      0x00\n        /* \"contracts/Storage/SimpleStorage.sol\":676:690  favoriteNumber */\n      dup1\n      sload\n        /* \"contracts/Storage/SimpleStorage.sol\":669:690  return favoriteNumber */\n      swap1\n      pop\n        /* \"contracts/Storage/SimpleStorage.sol\":609:697  function retrieve() public view returns (uint256) {... */\n      swap1\n      jump\t// out\n        /* \"contracts/Storage/SimpleStorage.sol\":512:540  Person[] public listOfPeople */\n    tag_16:\n      0x01\n      dup2\n      dup2\n      sload\n      dup2\n      lt\n      tag_35\n      jumpi\n      0x00\n      dup1\n      revert\n    tag_35:\n      swap1\n      0x00\n      mstore\n      keccak256(0x00, 0x20)\n      swap1\n      0x02\n      mul\n      add\n      0x00\n      swap2\n      pop\n      swap1\n      pop\n      dup1\n      0x00\n      add\n      sload\n      swap1\n      dup1\n      0x01\n      add\n      dup1\n      sload\n      tag_37\n      swap1\n      tag_38\n      jump\t// in\n    tag_37:\n      dup1\n      0x1f\n      add\n      0x20\n      dup1\n      swap2\n      div\n      mul\n      0x20\n      add\n      mload(0x40)\n      swap1\n      dup2\n      add\n      0x40\n      mstore\n      dup1\n      swap3\n      swap2\n      swap1\n      dup2\n      dup2\n      mstore\n      0x20\n      add\n      dup3\n      dup1\n      sload\n      tag_39\n      swap1\n      tag_38\n      jump\t// in\n    tag_39:\n      dup1\n      iszero\n      tag_40\n      jumpi\n      dup1\n      0x1f\n      lt\n      tag_41\n      jumpi\n      0x0100\n      dup1\n      dup4\n      sload\n      div\n      mul\n      dup4\n      mstore\n      swap2\n      0x20\n      add\n      swap2\n      jump(tag_40)\n    tag_41:\n      dup3\n      add\n      swap2\n      swap1\n      0x00\n      mstore\n      keccak256(0x00, 0x20)\n      swap1\n    tag_42:\n      dup2\n      sload\n      dup2\n      mstore\n      swap1\n      0x01\n      add\n      swap1\n      0x20\n      add\n      dup1\n      dup4\n      gt\n      tag_42\n      jumpi\n      dup3\n      swap1\n      sub\n      0x1f\n      and\n      dup3\n      add\n      swap2\n    tag_40:\n      pop\n      pop\n      pop\n      pop\n      pop\n      swap1\n      pop\n      dup3\n      jump\t// out\n        /* \"contracts/Storage/SimpleStorage.sol\":87:116  uint256 public favoriteNumber */\n    tag_20:\n      sload(0x00)\n      dup2\n      jump\t// out\n        /* \"contracts/Storage/SimpleStorage.sol\":295:472  function store(uint256 _favoriteNumber) public virtual {... */\n    tag_24:\n        /* \"contracts/Storage/SimpleStorage.sol\":378:392  favoriteNumber */\n      sload(0x00)\n        /* \"contracts/Storage/SimpleStorage.sol\":365:422  StoredNumber(favoriteNumber, _favoriteNumber, msg.sender) */\n      0xfd80bdf4e1fe7264964c4ddaa96ea8fcfcd2cca0a02493201f234b1bc3ae0368\n        /* \"contracts/Storage/SimpleStorage.sol\":394:409  _favoriteNumber */\n      dup3\n        /* \"contracts/Storage/SimpleStorage.sol\":411:421  msg.sender */\n      caller\n        /* \"contracts/Storage/SimpleStorage.sol\":365:422  StoredNumber(favoriteNumber, _favoriteNumber, msg.sender) */\n      mload(0x40)\n      tag_44\n      swap3\n      swap2\n      swap1\n      tag_45\n      jump\t// in\n    tag_44:\n      mload(0x40)\n      dup1\n      swap2\n      sub\n      swap1\n      log2\n        /* \"contracts/Storage/SimpleStorage.sol\":449:464  _favoriteNumber */\n      dup1\n        /* \"contracts/Storage/SimpleStorage.sol\":432:446  favoriteNumber */\n      0x00\n        /* \"contracts/Storage/SimpleStorage.sol\":432:464  favoriteNumber = _favoriteNumber */\n      dup2\n      swap1\n      sstore\n      pop\n        /* \"contracts/Storage/SimpleStorage.sol\":295:472  function store(uint256 _favoriteNumber) public virtual {... */\n      pop\n      jump\t// out\n        /* \"contracts/Storage/SimpleStorage.sol\":703:896  function addPerson(string memory _name, uint256 _favoriteNumber) public {... */\n    tag_28:\n        /* \"contracts/Storage/SimpleStorage.sol\":785:797  listOfPeople */\n      0x01\n        /* \"contracts/Storage/SimpleStorage.sol\":803:833  Person(_favoriteNumber, _name) */\n      mload(0x40)\n      dup1\n      0x40\n      add\n      0x40\n      mstore\n      dup1\n        /* \"contracts/Storage/SimpleStorage.sol\":810:825  _favoriteNumber */\n      dup4\n        /* \"contracts/Storage/SimpleStorage.sol\":803:833  Person(_favoriteNumber, _name) */\n      dup2\n      mstore\n      0x20\n      add\n        /* \"contracts/Storage/SimpleStorage.sol\":827:832  _name */\n      dup5\n        /* \"contracts/Storage/SimpleStorage.sol\":803:833  Person(_favoriteNumber, _name) */\n      dup2\n      mstore\n      pop\n        /* \"contracts/Storage/SimpleStorage.sol\":785:834  listOfPeople.push(Person(_favoriteNumber, _name)) */\n      swap1\n      dup1\n      0x01\n      dup2\n      sload\n      add\n      dup1\n      dup3\n      sstore\n      dup1\n      swap2\n      pop\n      pop\n      0x01\n      swap1\n      sub\n      swap1\n      0x00\n      mstore\n      keccak256(0x00, 0x20)\n      swap1\n      0x02\n      mul\n      add\n      0x00\n      swap1\n      swap2\n      swap1\n      swap2\n      swap1\n      swap2\n      pop\n      0x00\n      dup3\n      add\n      mload\n      dup2\n      0x00\n      add\n      sstore\n      0x20\n      dup3\n      add\n      mload\n      dup2\n      0x01\n      add\n      swap1\n      dup2\n      tag_48\n      swap2\n      swap1\n      tag_49\n      jump\t// in\n    tag_48:\n      pop\n      pop\n      pop\n        /* \"contracts/Storage/SimpleStorage.sol\":874:889  _favoriteNumber */\n      dup1\n        /* \"contracts/Storage/SimpleStorage.sol\":844:864  nameToFavoriteNumber */\n      0x02\n        /* \"contracts/Storage/SimpleStorage.sol\":865:870  _name */\n      dup4\n        /* \"contracts/Storage/SimpleStorage.sol\":844:871  nameToFavoriteNumber[_name] */\n      mload(0x40)\n      tag_50\n      swap2\n      swap1\n      tag_51\n      jump\t// in\n    tag_50:\n      swap1\n      dup2\n      mstore\n      0x20\n      add\n      mload(0x40)\n      dup1\n      swap2\n      sub\n      swap1\n      keccak256\n        /* \"contracts/Storage/SimpleStorage.sol\":844:889  nameToFavoriteNumber[_name] = _favoriteNumber */\n      dup2\n      swap1\n      sstore\n      pop\n        /* \"contracts/Storage/SimpleStorage.sol\":703:896  function addPerson(string memory _name, uint256 _favoriteNumber) public {... */\n      pop\n      pop\n      jump\t// out\n        /* \"contracts/Storage/SimpleStorage.sol\":547:601  mapping(string => uint256) public nameToFavoriteNumber */\n    tag_32:\n      0x02\n      dup2\n      dup1\n      mload\n      0x20\n      dup2\n      add\n      dup3\n      add\n      dup1\n      mload\n      dup5\n      dup3\n      mstore\n      0x20\n      dup4\n      add\n      0x20\n      dup6\n      add\n      keccak256\n      dup2\n      dup4\n      mstore\n      dup1\n      swap6\n      pop\n      pop\n      pop\n      pop\n      pop\n      pop\n      0x00\n      swap2\n      pop\n      swap1\n      pop\n      sload\n      dup2\n      jump\t// out\n        /* \"#utility.yul\":7:84   */\n    tag_52:\n        /* \"#utility.yul\":44:51   */\n      0x00\n        /* \"#utility.yul\":73:78   */\n      dup2\n        /* \"#utility.yul\":62:78   */\n      swap1\n      pop\n        /* \"#utility.yul\":7:84   */\n      swap2\n      swap1\n      pop\n      jump\t// out\n        /* \"#utility.yul\":90:208   */\n    tag_53:\n        /* \"#utility.yul\":177:201   */\n      tag_97\n        /* \"#utility.yul\":195:200   */\n      dup2\n        /* \"#utility.yul\":177:201   */\n      tag_52\n      jump\t// in\n    tag_97:\n        /* \"#utility.yul\":172:175   */\n      dup3\n        /* \"#utility.yul\":165:202   */\n      mstore\n        /* \"#utility.yul\":90:208   */\n      pop\n      pop\n      jump\t// out\n        /* \"#utility.yul\":214:436   */\n    tag_12:\n        /* \"#utility.yul\":307:311   */\n      0x00\n        /* \"#utility.yul\":345:347   */\n      0x20\n        /* \"#utility.yul\":334:343   */\n      dup3\n        /* \"#utility.yul\":330:348   */\n      add\n        /* \"#utility.yul\":322:348   */\n      swap1\n      pop\n        /* \"#utility.yul\":358:429   */\n      tag_99\n        /* \"#utility.yul\":426:427   */\n      0x00\n        /* \"#utility.yul\":415:424   */\n      dup4\n        /* \"#utility.yul\":411:428   */\n      add\n        /* \"#utility.yul\":402:408   */\n      dup5\n        /* \"#utility.yul\":358:429   */\n      tag_53\n      jump\t// in\n    tag_99:\n        /* \"#utility.yul\":214:436   */\n      swap3\n      swap2\n      pop\n      pop\n      jump\t// out\n        /* \"#utility.yul\":442:517   */\n    tag_54:\n        /* \"#utility.yul\":475:481   */\n      0x00\n        /* \"#utility.yul\":508:510   */\n      0x40\n        /* \"#utility.yul\":502:511   */\n      mload\n        /* \"#utility.yul\":492:511   */\n      swap1\n      pop\n        /* \"#utility.yul\":442:517   */\n      swap1\n      jump\t// out\n        /* \"#utility.yul\":523:640   */\n    tag_55:\n        /* \"#utility.yul\":632:633   */\n      0x00\n        /* \"#utility.yul\":629:630   */\n      dup1\n        /* \"#utility.yul\":622:634   */\n      revert\n        /* \"#utility.yul\":646:763   */\n    tag_56:\n        /* \"#utility.yul\":755:756   */\n      0x00\n        /* \"#utility.yul\":752:753   */\n      dup1\n        /* \"#utility.yul\":745:757   */\n      revert\n        /* \"#utility.yul\":769:891   */\n    tag_57:\n        /* \"#utility.yul\":842:866   */\n      tag_104\n        /* \"#utility.yul\":860:865   */\n      dup2\n        /* \"#utility.yul\":842:866   */\n      tag_52\n      jump\t// in\n    tag_104:\n        /* \"#utility.yul\":835:840   */\n      dup2\n        /* \"#utility.yul\":832:867   */\n      eq\n        /* \"#utility.yul\":822:885   */\n      tag_105\n      jumpi\n        /* \"#utility.yul\":881:882   */\n      0x00\n        /* \"#utility.yul\":878:879   */\n      dup1\n        /* \"#utility.yul\":871:883   */\n      revert\n        /* \"#utility.yul\":822:885   */\n    tag_105:\n        /* \"#utility.yul\":769:891   */\n      pop\n      jump\t// out\n        /* \"#utility.yul\":897:1036   */\n    tag_58:\n        /* \"#utility.yul\":943:948   */\n      0x00\n        /* \"#utility.yul\":981:987   */\n      dup2\n        /* \"#utility.yul\":968:988   */\n      calldataload\n        /* \"#utility.yul\":959:988   */\n      swap1\n      pop\n        /* \"#utility.yul\":997:1030   */\n      tag_107\n        /* \"#utility.yul\":1024:1029   */\n      dup2\n        /* \"#utility.yul\":997:1030   */\n      tag_57\n      jump\t// in\n    tag_107:\n        /* \"#utility.yul\":897:1036   */\n      swap3\n      swap2\n      pop\n      pop\n      jump\t// out\n        /* \"#utility.yul\":1042:1371   */\n    tag_15:\n        /* \"#utility.yul\":1101:1107   */\n      0x00\n        /* \"#utility.yul\":1150:1152   */\n      0x20\n        /* \"#utility.yul\":1138:1147   */\n      dup3\n        /* \"#utility.yul\":1129:1136   */\n      dup5\n        /* \"#utility.yul\":1125:1148   */\n      sub\n        /* \"#utility.yul\":1121:1153   */\n      slt\n        /* \"#utility.yul\":1118:1237   */\n      iszero\n      tag_109\n      jumpi\n        /* \"#utility.yul\":1156:1235   */\n      tag_110\n      tag_55\n      jump\t// in\n    tag_110:\n        /* \"#utility.yul\":1118:1237   */\n    tag_109:\n        /* \"#utility.yul\":1276:1277   */\n      0x00\n        /* \"#utility.yul\":1301:1354   */\n      tag_111\n        /* \"#utility.yul\":1346:1353   */\n      dup5\n        /* \"#utility.yul\":1337:1343   */\n      dup3\n        /* \"#utility.yul\":1326:1335   */\n      dup6\n        /* \"#utility.yul\":1322:1344   */\n      add\n        /* \"#utility.yul\":1301:1354   */\n      tag_58\n      jump\t// in\n    tag_111:\n        /* \"#utility.yul\":1291:1354   */\n      swap2\n      pop\n        /* \"#utility.yul\":1247:1364   */\n      pop\n        /* \"#utility.yul\":1042:1371   */\n      swap3\n      swap2\n      pop\n      pop\n      jump\t// out\n        /* \"#utility.yul\":1377:1476   */\n    tag_59:\n        /* \"#utility.yul\":1429:1435   */\n      0x00\n        /* \"#utility.yul\":1463:1468   */\n      dup2\n        /* \"#utility.yul\":1457:1469   */\n      mload\n        /* \"#utility.yul\":1447:1469   */\n      swap1\n      pop\n        /* \"#utility.yul\":1377:1476   */\n      swap2\n      swap1\n      pop\n      jump\t// out\n        /* \"#utility.yul\":1482:1651   */\n    tag_60:\n        /* \"#utility.yul\":1566:1577   */\n      0x00\n        /* \"#utility.yul\":1600:1606   */\n      dup3\n        /* \"#utility.yul\":1595:1598   */\n      dup3\n        /* \"#utility.yul\":1588:1607   */\n      mstore\n        /* \"#utility.yul\":1640:1644   */\n      0x20\n        /* \"#utility.yul\":1635:1638   */\n      dup3\n        /* \"#utility.yul\":1631:1645   */\n      add\n        /* \"#utility.yul\":1616:1645   */\n      swap1\n      pop\n        /* \"#utility.yul\":1482:1651   */\n      swap3\n      swap2\n      pop\n      pop\n      jump\t// out\n        /* \"#utility.yul\":1657:1903   */\n    tag_61:\n        /* \"#utility.yul\":1738:1739   */\n      0x00\n        /* \"#utility.yul\":1748:1861   */\n    tag_115:\n        /* \"#utility.yul\":1762:1768   */\n      dup4\n        /* \"#utility.yul\":1759:1760   */\n      dup2\n        /* \"#utility.yul\":1756:1769   */\n      lt\n        /* \"#utility.yul\":1748:1861   */\n      iszero\n      tag_117\n      jumpi\n        /* \"#utility.yul\":1847:1848   */\n      dup1\n        /* \"#utility.yul\":1842:1845   */\n      dup3\n        /* \"#utility.yul\":1838:1849   */\n      add\n        /* \"#utility.yul\":1832:1850   */\n      mload\n        /* \"#utility.yul\":1828:1829   */\n      dup2\n        /* \"#utility.yul\":1823:1826   */\n      dup5\n        /* \"#utility.yul\":1819:1830   */\n      add\n        /* \"#utility.yul\":1812:1851   */\n      mstore\n        /* \"#utility.yul\":1784:1786   */\n      0x20\n        /* \"#utility.yul\":1781:1782   */\n      dup2\n        /* \"#utility.yul\":1777:1787   */\n      add\n        /* \"#utility.yul\":1772:1787   */\n      swap1\n      pop\n        /* \"#utility.yul\":1748:1861   */\n      jump(tag_115)\n    tag_117:\n        /* \"#utility.yul\":1895:1896   */\n      0x00\n        /* \"#utility.yul\":1886:1892   */\n      dup5\n        /* \"#utility.yul\":1881:1884   */\n      dup5\n        /* \"#utility.yul\":1877:1893   */\n      add\n        /* \"#utility.yul\":1870:1897   */\n      mstore\n        /* \"#utility.yul\":1719:1903   */\n      pop\n        /* \"#utility.yul\":1657:1903   */\n      pop\n      pop\n      pop\n      jump\t// out\n        /* \"#utility.yul\":1909:2011   */\n    tag_62:\n        /* \"#utility.yul\":1950:1956   */\n      0x00\n        /* \"#utility.yul\":2001:2003   */\n      0x1f\n        /* \"#utility.yul\":1997:2004   */\n      not\n        /* \"#utility.yul\":1992:1994   */\n      0x1f\n        /* \"#utility.yul\":1985:1990   */\n      dup4\n        /* \"#utility.yul\":1981:1995   */\n      add\n        /* \"#utility.yul\":1977:2005   */\n      and\n        /* \"#utility.yul\":1967:2005   */\n      swap1\n      pop\n        /* \"#utility.yul\":1909:2011   */\n      swap2\n      swap1\n      pop\n      jump\t// out\n        /* \"#utility.yul\":2017:2394   */\n    tag_63:\n        /* \"#utility.yul\":2105:2108   */\n      0x00\n        /* \"#utility.yul\":2133:2172   */\n      tag_120\n        /* \"#utility.yul\":2166:2171   */\n      dup3\n        /* \"#utility.yul\":2133:2172   */\n      tag_59\n      jump\t// in\n    tag_120:\n        /* \"#utility.yul\":2188:2259   */\n      tag_121\n        /* \"#utility.yul\":2252:2258   */\n      dup2\n        /* \"#utility.yul\":2247:2250   */\n      dup6\n        /* \"#utility.yul\":2188:2259   */\n      tag_60\n      jump\t// in\n    tag_121:\n        /* \"#utility.yul\":2181:2259   */\n      swap4\n      pop\n        /* \"#utility.yul\":2268:2333   */\n      tag_122\n        /* \"#utility.yul\":2326:2332   */\n      dup2\n        /* \"#utility.yul\":2321:2324   */\n      dup6\n        /* \"#utility.yul\":2314:2318   */\n      0x20\n        /* \"#utility.yul\":2307:2312   */\n      dup7\n        /* \"#utility.yul\":2303:2319   */\n      add\n        /* \"#utility.yul\":2268:2333   */\n      tag_61\n      jump\t// in\n    tag_122:\n        /* \"#utility.yul\":2358:2387   */\n      tag_123\n        /* \"#utility.yul\":2380:2386   */\n      dup2\n        /* \"#utility.yul\":2358:2387   */\n      tag_62\n      jump\t// in\n    tag_123:\n        /* \"#utility.yul\":2353:2356   */\n      dup5\n        /* \"#utility.yul\":2349:2388   */\n      add\n        /* \"#utility.yul\":2342:2388   */\n      swap2\n      pop\n        /* \"#utility.yul\":2109:2394   */\n      pop\n        /* \"#utility.yul\":2017:2394   */\n      swap3\n      swap2\n      pop\n      pop\n      jump\t// out\n        /* \"#utility.yul\":2400:2823   */\n    tag_18:\n        /* \"#utility.yul\":2541:2545   */\n      0x00\n        /* \"#utility.yul\":2579:2581   */\n      0x40\n        /* \"#utility.yul\":2568:2577   */\n      dup3\n        /* \"#utility.yul\":2564:2582   */\n      add\n        /* \"#utility.yul\":2556:2582   */\n      swap1\n      pop\n        /* \"#utility.yul\":2592:2663   */\n      tag_125\n        /* \"#utility.yul\":2660:2661   */\n      0x00\n        /* \"#utility.yul\":2649:2658   */\n      dup4\n        /* \"#utility.yul\":2645:2662   */\n      add\n        /* \"#utility.yul\":2636:2642   */\n      dup6\n        /* \"#utility.yul\":2592:2663   */\n      tag_53\n      jump\t// in\n    tag_125:\n        /* \"#utility.yul\":2710:2719   */\n      dup2\n        /* \"#utility.yul\":2704:2708   */\n      dup2\n        /* \"#utility.yul\":2700:2720   */\n      sub\n        /* \"#utility.yul\":2695:2697   */\n      0x20\n        /* \"#utility.yul\":2684:2693   */\n      dup4\n        /* \"#utility.yul\":2680:2698   */\n      add\n        /* \"#utility.yul\":2673:2721   */\n      mstore\n        /* \"#utility.yul\":2738:2816   */\n      tag_126\n        /* \"#utility.yul\":2811:2815   */\n      dup2\n        /* \"#utility.yul\":2802:2808   */\n      dup5\n        /* \"#utility.yul\":2738:2816   */\n      tag_63\n      jump\t// in\n    tag_126:\n        /* \"#utility.yul\":2730:2816   */\n      swap1\n      pop\n        /* \"#utility.yul\":2400:2823   */\n      swap4\n      swap3\n      pop\n      pop\n      pop\n      jump\t// out\n        /* \"#utility.yul\":2829:2946   */\n    tag_64:\n        /* \"#utility.yul\":2938:2939   */\n      0x00\n        /* \"#utility.yul\":2935:2936   */\n      dup1\n        /* \"#utility.yul\":2928:2940   */\n      revert\n        /* \"#utility.yul\":2952:3069   */\n    tag_65:\n        /* \"#utility.yul\":3061:3062   */\n      0x00\n        /* \"#utility.yul\":3058:3059   */\n      dup1\n        /* \"#utility.yul\":3051:3063   */\n      revert\n        /* \"#utility.yul\":3075:3255   */\n    tag_66:\n        /* \"#utility.yul\":3123:3200   */\n      0x4e487b7100000000000000000000000000000000000000000000000000000000\n        /* \"#utility.yul\":3120:3121   */\n      0x00\n        /* \"#utility.yul\":3113:3201   */\n      mstore\n        /* \"#utility.yul\":3220:3224   */\n      0x41\n        /* \"#utility.yul\":3217:3218   */\n      0x04\n        /* \"#utility.yul\":3210:3225   */\n      mstore\n        /* \"#utility.yul\":3244:3248   */\n      0x24\n        /* \"#utility.yul\":3241:3242   */\n      0x00\n        /* \"#utility.yul\":3234:3249   */\n      revert\n        /* \"#utility.yul\":3261:3542   */\n    tag_67:\n        /* \"#utility.yul\":3344:3371   */\n      tag_131\n        /* \"#utility.yul\":3366:3370   */\n      dup3\n        /* \"#utility.yul\":3344:3371   */\n      tag_62\n      jump\t// in\n    tag_131:\n        /* \"#utility.yul\":3336:3342   */\n      dup2\n        /* \"#utility.yul\":3332:3372   */\n      add\n        /* \"#utility.yul\":3474:3480   */\n      dup2\n        /* \"#utility.yul\":3462:3472   */\n      dup2\n        /* \"#utility.yul\":3459:3481   */\n      lt\n        /* \"#utility.yul\":3438:3456   */\n      0xffffffffffffffff\n        /* \"#utility.yul\":3426:3436   */\n      dup3\n        /* \"#utility.yul\":3423:3457   */\n      gt\n        /* \"#utility.yul\":3420:3482   */\n      or\n        /* \"#utility.yul\":3417:3505   */\n      iszero\n      tag_132\n      jumpi\n        /* \"#utility.yul\":3485:3503   */\n      tag_133\n      tag_66\n      jump\t// in\n    tag_133:\n        /* \"#utility.yul\":3417:3505   */\n    tag_132:\n        /* \"#utility.yul\":3525:3535   */\n      dup1\n        /* \"#utility.yul\":3521:3523   */\n      0x40\n        /* \"#utility.yul\":3514:3536   */\n      mstore\n        /* \"#utility.yul\":3304:3542   */\n      pop\n        /* \"#utility.yul\":3261:3542   */\n      pop\n      pop\n      jump\t// out\n        /* \"#utility.yul\":3548:3677   */\n    tag_68:\n        /* \"#utility.yul\":3582:3588   */\n      0x00\n        /* \"#utility.yul\":3609:3629   */\n      tag_135\n      tag_54\n      jump\t// in\n    tag_135:\n        /* \"#utility.yul\":3599:3629   */\n      swap1\n      pop\n        /* \"#utility.yul\":3638:3671   */\n      tag_136\n        /* \"#utility.yul\":3666:3670   */\n      dup3\n        /* \"#utility.yul\":3658:3664   */\n      dup3\n        /* \"#utility.yul\":3638:3671   */\n      tag_67\n      jump\t// in\n    tag_136:\n        /* \"#utility.yul\":3548:3677   */\n      swap2\n      swap1\n      pop\n      jump\t// out\n        /* \"#utility.yul\":3683:3991   */\n    tag_69:\n        /* \"#utility.yul\":3745:3749   */\n      0x00\n        /* \"#utility.yul\":3835:3853   */\n      0xffffffffffffffff\n        /* \"#utility.yul\":3827:3833   */\n      dup3\n        /* \"#utility.yul\":3824:3854   */\n      gt\n        /* \"#utility.yul\":3821:3877   */\n      iszero\n      tag_138\n      jumpi\n        /* \"#utility.yul\":3857:3875   */\n      tag_139\n      tag_66\n      jump\t// in\n    tag_139:\n        /* \"#utility.yul\":3821:3877   */\n    tag_138:\n        /* \"#utility.yul\":3895:3924   */\n      tag_140\n        /* \"#utility.yul\":3917:3923   */\n      dup3\n        /* \"#utility.yul\":3895:3924   */\n      tag_62\n      jump\t// in\n    tag_140:\n        /* \"#utility.yul\":3887:3924   */\n      swap1\n      pop\n        /* \"#utility.yul\":3979:3983   */\n      0x20\n        /* \"#utility.yul\":3973:3977   */\n      dup2\n        /* \"#utility.yul\":3969:3984   */\n      add\n        /* \"#utility.yul\":3961:3984   */\n      swap1\n      pop\n        /* \"#utility.yul\":3683:3991   */\n      swap2\n      swap1\n      pop\n      jump\t// out\n        /* \"#utility.yul\":3997:4143   */\n    tag_70:\n        /* \"#utility.yul\":4094:4100   */\n      dup3\n        /* \"#utility.yul\":4089:4092   */\n      dup2\n        /* \"#utility.yul\":4084:4087   */\n      dup4\n        /* \"#utility.yul\":4071:4101   */\n      calldatacopy\n        /* \"#utility.yul\":4135:4136   */\n      0x00\n        /* \"#utility.yul\":4126:4132   */\n      dup4\n        /* \"#utility.yul\":4121:4124   */\n      dup4\n        /* \"#utility.yul\":4117:4133   */\n      add\n        /* \"#utility.yul\":4110:4137   */\n      mstore\n        /* \"#utility.yul\":3997:4143   */\n      pop\n      pop\n      pop\n      jump\t// out\n        /* \"#utility.yul\":4149:4574   */\n    tag_71:\n        /* \"#utility.yul\":4227:4232   */\n      0x00\n        /* \"#utility.yul\":4252:4318   */\n      tag_143\n        /* \"#utility.yul\":4268:4317   */\n      tag_144\n        /* \"#utility.yul\":4310:4316   */\n      dup5\n        /* \"#utility.yul\":4268:4317   */\n      tag_69\n      jump\t// in\n    tag_144:\n        /* \"#utility.yul\":4252:4318   */\n      tag_68\n      jump\t// in\n    tag_143:\n        /* \"#utility.yul\":4243:4318   */\n      swap1\n      pop\n        /* \"#utility.yul\":4341:4347   */\n      dup3\n        /* \"#utility.yul\":4334:4339   */\n      dup2\n        /* \"#utility.yul\":4327:4348   */\n      mstore\n        /* \"#utility.yul\":4379:4383   */\n      0x20\n        /* \"#utility.yul\":4372:4377   */\n      dup2\n        /* \"#utility.yul\":4368:4384   */\n      add\n        /* \"#utility.yul\":4417:4420   */\n      dup5\n        /* \"#utility.yul\":4408:4414   */\n      dup5\n        /* \"#utility.yul\":4403:4406   */\n      dup5\n        /* \"#utility.yul\":4399:4415   */\n      add\n        /* \"#utility.yul\":4396:4421   */\n      gt\n        /* \"#utility.yul\":4393:4505   */\n      iszero\n      tag_145\n      jumpi\n        /* \"#utility.yul\":4424:4503   */\n      tag_146\n      tag_65\n      jump\t// in\n    tag_146:\n        /* \"#utility.yul\":4393:4505   */\n    tag_145:\n        /* \"#utility.yul\":4514:4568   */\n      tag_147\n        /* \"#utility.yul\":4561:4567   */\n      dup5\n        /* \"#utility.yul\":4556:4559   */\n      dup3\n        /* \"#utility.yul\":4551:4554   */\n      dup6\n        /* \"#utility.yul\":4514:4568   */\n      tag_70\n      jump\t// in\n    tag_147:\n        /* \"#utility.yul\":4233:4574   */\n      pop\n        /* \"#utility.yul\":4149:4574   */\n      swap4\n      swap3\n      pop\n      pop\n      pop\n      jump\t// out\n        /* \"#utility.yul\":4594:4934   */\n    tag_72:\n        /* \"#utility.yul\":4650:4655   */\n      0x00\n        /* \"#utility.yul\":4699:4702   */\n      dup3\n        /* \"#utility.yul\":4692:4696   */\n      0x1f\n        /* \"#utility.yul\":4684:4690   */\n      dup4\n        /* \"#utility.yul\":4680:4697   */\n      add\n        /* \"#utility.yul\":4676:4703   */\n      slt\n        /* \"#utility.yul\":4666:4788   */\n      tag_149\n      jumpi\n        /* \"#utility.yul\":4707:4786   */\n      tag_150\n      tag_64\n      jump\t// in\n    tag_150:\n        /* \"#utility.yul\":4666:4788   */\n    tag_149:\n        /* \"#utility.yul\":4824:4830   */\n      dup2\n        /* \"#utility.yul\":4811:4831   */\n      calldataload\n        /* \"#utility.yul\":4849:4928   */\n      tag_151\n        /* \"#utility.yul\":4924:4927   */\n      dup5\n        /* \"#utility.yul\":4916:4922   */\n      dup3\n        /* \"#utility.yul\":4909:4913   */\n      0x20\n        /* \"#utility.yul\":4901:4907   */\n      dup7\n        /* \"#utility.yul\":4897:4914   */\n      add\n        /* \"#utility.yul\":4849:4928   */\n      tag_71\n      jump\t// in\n    tag_151:\n        /* \"#utility.yul\":4840:4928   */\n      swap2\n      pop\n        /* \"#utility.yul\":4656:4934   */\n      pop\n        /* \"#utility.yul\":4594:4934   */\n      swap3\n      swap2\n      pop\n      pop\n      jump\t// out\n        /* \"#utility.yul\":4940:5594   */\n    tag_27:\n        /* \"#utility.yul\":5018:5024   */\n      0x00\n        /* \"#utility.yul\":5026:5032   */\n      dup1\n        /* \"#utility.yul\":5075:5077   */\n      0x40\n        /* \"#utility.yul\":5063:5072   */\n      dup4\n        /* \"#utility.yul\":5054:5061   */\n      dup6\n        /* \"#utility.yul\":5050:5073   */\n      sub\n        /* \"#utility.yul\":5046:5078   */\n      slt\n        /* \"#utility.yul\":5043:5162   */\n      iszero\n      tag_153\n      jumpi\n        /* \"#utility.yul\":5081:5160   */\n      tag_154\n      tag_55\n      jump\t// in\n    tag_154:\n        /* \"#utility.yul\":5043:5162   */\n    tag_153:\n        /* \"#utility.yul\":5229:5230   */\n      0x00\n        /* \"#utility.yul\":5218:5227   */\n      dup4\n        /* \"#utility.yul\":5214:5231   */\n      add\n        /* \"#utility.yul\":5201:5232   */\n      calldataload\n        /* \"#utility.yul\":5259:5277   */\n      0xffffffffffffffff\n        /* \"#utility.yul\":5251:5257   */\n      dup2\n        /* \"#utility.yul\":5248:5278   */\n      gt\n        /* \"#utility.yul\":5245:5362   */\n      iszero\n      tag_155\n      jumpi\n        /* \"#utility.yul\":5281:5360   */\n      tag_156\n      tag_56\n      jump\t// in\n    tag_156:\n        /* \"#utility.yul\":5245:5362   */\n    tag_155:\n        /* \"#utility.yul\":5386:5449   */\n      tag_157\n        /* \"#utility.yul\":5441:5448   */\n      dup6\n        /* \"#utility.yul\":5432:5438   */\n      dup3\n        /* \"#utility.yul\":5421:5430   */\n      dup7\n        /* \"#utility.yul\":5417:5439   */\n      add\n        /* \"#utility.yul\":5386:5449   */\n      tag_72\n      jump\t// in\n    tag_157:\n        /* \"#utility.yul\":5376:5449   */\n      swap3\n      pop\n        /* \"#utility.yul\":5172:5459   */\n      pop\n        /* \"#utility.yul\":5498:5500   */\n      0x20\n        /* \"#utility.yul\":5524:5577   */\n      tag_158\n        /* \"#utility.yul\":5569:5576   */\n      dup6\n        /* \"#utility.yul\":5560:5566   */\n      dup3\n        /* \"#utility.yul\":5549:5558   */\n      dup7\n        /* \"#utility.yul\":5545:5567   */\n      add\n        /* \"#utility.yul\":5524:5577   */\n      tag_58\n      jump\t// in\n    tag_158:\n        /* \"#utility.yul\":5514:5577   */\n      swap2\n      pop\n        /* \"#utility.yul\":5469:5587   */\n      pop\n        /* \"#utility.yul\":4940:5594   */\n      swap3\n      pop\n      swap3\n      swap1\n      pop\n      jump\t// out\n        /* \"#utility.yul\":5600:6109   */\n    tag_31:\n        /* \"#utility.yul\":5669:5675   */\n      0x00\n        /* \"#utility.yul\":5718:5720   */\n      0x20\n        /* \"#utility.yul\":5706:5715   */\n      dup3\n        /* \"#utility.yul\":5697:5704   */\n      dup5\n        /* \"#utility.yul\":5693:5716   */\n      sub\n        /* \"#utility.yul\":5689:5721   */\n      slt\n        /* \"#utility.yul\":5686:5805   */\n      iszero\n      tag_160\n      jumpi\n        /* \"#utility.yul\":5724:5803   */\n      tag_161\n      tag_55\n      jump\t// in\n    tag_161:\n        /* \"#utility.yul\":5686:5805   */\n    tag_160:\n        /* \"#utility.yul\":5872:5873   */\n      0x00\n        /* \"#utility.yul\":5861:5870   */\n      dup3\n        /* \"#utility.yul\":5857:5874   */\n      add\n        /* \"#utility.yul\":5844:5875   */\n      calldataload\n        /* \"#utility.yul\":5902:5920   */\n      0xffffffffffffffff\n        /* \"#utility.yul\":5894:5900   */\n      dup2\n        /* \"#utility.yul\":5891:5921   */\n      gt\n        /* \"#utility.yul\":5888:6005   */\n      iszero\n      tag_162\n      jumpi\n        /* \"#utility.yul\":5924:6003   */\n      tag_163\n      tag_56\n      jump\t// in\n    tag_163:\n        /* \"#utility.yul\":5888:6005   */\n    tag_162:\n        /* \"#utility.yul\":6029:6092   */\n      tag_164\n        /* \"#utility.yul\":6084:6091   */\n      dup5\n        /* \"#utility.yul\":6075:6081   */\n      dup3\n        /* \"#utility.yul\":6064:6073   */\n      dup6\n        /* \"#utility.yul\":6060:6082   */\n      add\n        /* \"#utility.yul\":6029:6092   */\n      tag_72\n      jump\t// in\n    tag_164:\n        /* \"#utility.yul\":6019:6092   */\n      swap2\n      pop\n        /* \"#utility.yul\":5815:6102   */\n      pop\n        /* \"#utility.yul\":5600:6109   */\n      swap3\n      swap2\n      pop\n      pop\n      jump\t// out\n        /* \"#utility.yul\":6115:6295   */\n    tag_73:\n        /* \"#utility.yul\":6163:6240   */\n      0x4e487b7100000000000000000000000000000000000000000000000000000000\n        /* \"#utility.yul\":6160:6161   */\n      0x00\n        /* \"#utility.yul\":6153:6241   */\n      mstore\n        /* \"#utility.yul\":6260:6264   */\n      0x22\n        /* \"#utility.yul\":6257:6258   */\n      0x04\n        /* \"#utility.yul\":6250:6265   */\n      mstore\n        /* \"#utility.yul\":6284:6288   */\n      0x24\n        /* \"#utility.yul\":6281:6282   */\n      0x00\n        /* \"#utility.yul\":6274:6289   */\n      revert\n        /* \"#utility.yul\":6301:6621   */\n    tag_38:\n        /* \"#utility.yul\":6345:6351   */\n      0x00\n        /* \"#utility.yul\":6382:6383   */\n      0x02\n        /* \"#utility.yul\":6376:6380   */\n      dup3\n        /* \"#utility.yul\":6372:6384   */\n      div\n        /* \"#utility.yul\":6362:6384   */\n      swap1\n      pop\n        /* \"#utility.yul\":6429:6430   */\n      0x01\n        /* \"#utility.yul\":6423:6427   */\n      dup3\n        /* \"#utility.yul\":6419:6431   */\n      and\n        /* \"#utility.yul\":6450:6468   */\n      dup1\n        /* \"#utility.yul\":6440:6521   */\n      tag_167\n      jumpi\n        /* \"#utility.yul\":6506:6510   */\n      0x7f\n        /* \"#utility.yul\":6498:6504   */\n      dup3\n        /* \"#utility.yul\":6494:6511   */\n      and\n        /* \"#utility.yul\":6484:6511   */\n      swap2\n      pop\n        /* \"#utility.yul\":6440:6521   */\n    tag_167:\n        /* \"#utility.yul\":6568:6570   */\n      0x20\n        /* \"#utility.yul\":6560:6566   */\n      dup3\n        /* \"#utility.yul\":6557:6571   */\n      lt\n        /* \"#utility.yul\":6537:6555   */\n      dup2\n        /* \"#utility.yul\":6534:6572   */\n      sub\n        /* \"#utility.yul\":6531:6615   */\n      tag_168\n      jumpi\n        /* \"#utility.yul\":6587:6605   */\n      tag_169\n      tag_73\n      jump\t// in\n    tag_169:\n        /* \"#utility.yul\":6531:6615   */\n    tag_168:\n        /* \"#utility.yul\":6352:6621   */\n      pop\n        /* \"#utility.yul\":6301:6621   */\n      swap2\n      swap1\n      pop\n      jump\t// out\n        /* \"#utility.yul\":6627:6753   */\n    tag_74:\n        /* \"#utility.yul\":6664:6671   */\n      0x00\n        /* \"#utility.yul\":6704:6746   */\n      0xffffffffffffffffffffffffffffffffffffffff\n        /* \"#utility.yul\":6697:6702   */\n      dup3\n        /* \"#utility.yul\":6693:6747   */\n      and\n        /* \"#utility.yul\":6682:6747   */\n      swap1\n      pop\n        /* \"#utility.yul\":6627:6753   */\n      swap2\n      swap1\n      pop\n      jump\t// out\n        /* \"#utility.yul\":6759:6855   */\n    tag_75:\n        /* \"#utility.yul\":6796:6803   */\n      0x00\n        /* \"#utility.yul\":6825:6849   */\n      tag_172\n        /* \"#utility.yul\":6843:6848   */\n      dup3\n        /* \"#utility.yul\":6825:6849   */\n      tag_74\n      jump\t// in\n    tag_172:\n        /* \"#utility.yul\":6814:6849   */\n      swap1\n      pop\n        /* \"#utility.yul\":6759:6855   */\n      swap2\n      swap1\n      pop\n      jump\t// out\n        /* \"#utility.yul\":6861:6979   */\n    tag_76:\n        /* \"#utility.yul\":6948:6972   */\n      tag_174\n        /* \"#utility.yul\":6966:6971   */\n      dup2\n        /* \"#utility.yul\":6948:6972   */\n      tag_75\n      jump\t// in\n    tag_174:\n        /* \"#utility.yul\":6943:6946   */\n      dup3\n        /* \"#utility.yul\":6936:6973   */\n      mstore\n        /* \"#utility.yul\":6861:6979   */\n      pop\n      pop\n      jump\t// out\n        /* \"#utility.yul\":6985:7317   */\n    tag_45:\n        /* \"#utility.yul\":7106:7110   */\n      0x00\n        /* \"#utility.yul\":7144:7146   */\n      0x40\n        /* \"#utility.yul\":7133:7142   */\n      dup3\n        /* \"#utility.yul\":7129:7147   */\n      add\n        /* \"#utility.yul\":7121:7147   */\n      swap1\n      pop\n        /* \"#utility.yul\":7157:7228   */\n      tag_176\n        /* \"#utility.yul\":7225:7226   */\n      0x00\n        /* \"#utility.yul\":7214:7223   */\n      dup4\n        /* \"#utility.yul\":7210:7227   */\n      add\n        /* \"#utility.yul\":7201:7207   */\n      dup6\n        /* \"#utility.yul\":7157:7228   */\n      tag_53\n      jump\t// in\n    tag_176:\n        /* \"#utility.yul\":7238:7310   */\n      tag_177\n        /* \"#utility.yul\":7306:7308   */\n      0x20\n        /* \"#utility.yul\":7295:7304   */\n      dup4\n        /* \"#utility.yul\":7291:7309   */\n      add\n        /* \"#utility.yul\":7282:7288   */\n      dup5\n        /* \"#utility.yul\":7238:7310   */\n      tag_76\n      jump\t// in\n    tag_177:\n        /* \"#utility.yul\":6985:7317   */\n      swap4\n      swap3\n      pop\n      pop\n      pop\n      jump\t// out\n        /* \"#utility.yul\":7323:7464   */\n    tag_77:\n        /* \"#utility.yul\":7372:7376   */\n      0x00\n        /* \"#utility.yul\":7395:7398   */\n      dup2\n        /* \"#utility.yul\":7387:7398   */\n      swap1\n      pop\n        /* \"#utility.yul\":7418:7421   */\n      dup2\n        /* \"#utility.yul\":7415:7416   */\n      0x00\n        /* \"#utility.yul\":7408:7422   */\n      mstore\n        /* \"#utility.yul\":7452:7456   */\n      0x20\n        /* \"#utility.yul\":7449:7450   */\n      0x00\n        /* \"#utility.yul\":7439:7457   */\n      keccak256\n        /* \"#utility.yul\":7431:7457   */\n      swap1\n      pop\n        /* \"#utility.yul\":7323:7464   */\n      swap2\n      swap1\n      pop\n      jump\t// out\n        /* \"#utility.yul\":7470:7563   */\n    tag_78:\n        /* \"#utility.yul\":7507:7513   */\n      0x00\n        /* \"#utility.yul\":7554:7556   */\n      0x20\n        /* \"#utility.yul\":7549:7551   */\n      0x1f\n        /* \"#utility.yul\":7542:7547   */\n      dup4\n        /* \"#utility.yul\":7538:7552   */\n      add\n        /* \"#utility.yul\":7534:7557   */\n      div\n        /* \"#utility.yul\":7524:7557   */\n      swap1\n      pop\n        /* \"#utility.yul\":7470:7563   */\n      swap2\n      swap1\n      pop\n      jump\t// out\n        /* \"#utility.yul\":7569:7676   */\n    tag_79:\n        /* \"#utility.yul\":7613:7621   */\n      0x00\n        /* \"#utility.yul\":7663:7668   */\n      dup3\n        /* \"#utility.yul\":7657:7661   */\n      dup3\n        /* \"#utility.yul\":7653:7669   */\n      shl\n        /* \"#utility.yul\":7632:7669   */\n      swap1\n      pop\n        /* \"#utility.yul\":7569:7676   */\n      swap3\n      swap2\n      pop\n      pop\n      jump\t// out\n        /* \"#utility.yul\":7682:8075   */\n    tag_80:\n        /* \"#utility.yul\":7751:7757   */\n      0x00\n        /* \"#utility.yul\":7801:7802   */\n      0x08\n        /* \"#utility.yul\":7789:7799   */\n      dup4\n        /* \"#utility.yul\":7785:7803   */\n      mul\n        /* \"#utility.yul\":7824:7921   */\n      tag_182\n        /* \"#utility.yul\":7854:7920   */\n      0xffffffffffffffffffffffffffffffffffffffffffffffffffffffffffffffff\n        /* \"#utility.yul\":7843:7852   */\n      dup3\n        /* \"#utility.yul\":7824:7921   */\n      tag_79\n      jump\t// in\n    tag_182:\n        /* \"#utility.yul\":7942:7981   */\n      tag_183\n        /* \"#utility.yul\":7972:7980   */\n      dup7\n        /* \"#utility.yul\":7961:7970   */\n      dup4\n        /* \"#utility.yul\":7942:7981   */\n      tag_79\n      jump\t// in\n    tag_183:\n        /* \"#utility.yul\":7930:7981   */\n      swap6\n      pop\n        /* \"#utility.yul\":8014:8018   */\n      dup1\n        /* \"#utility.yul\":8010:8019   */\n      not\n        /* \"#utility.yul\":8003:8008   */\n      dup5\n        /* \"#utility.yul\":7999:8020   */\n      and\n        /* \"#utility.yul\":7990:8020   */\n      swap4\n      pop\n        /* \"#utility.yul\":8063:8067   */\n      dup1\n        /* \"#utility.yul\":8053:8061   */\n      dup7\n        /* \"#utility.yul\":8049:8068   */\n      and\n        /* \"#utility.yul\":8042:8047   */\n      dup5\n        /* \"#utility.yul\":8039:8069   */\n      or\n        /* \"#utility.yul\":8029:8069   */\n      swap3\n      pop\n        /* \"#utility.yul\":7758:8075   */\n      pop\n      pop\n        /* \"#utility.yul\":7682:8075   */\n      swap4\n      swap3\n      pop\n      pop\n      pop\n      jump\t// out\n        /* \"#utility.yul\":8081:8141   */\n    tag_81:\n        /* \"#utility.yul\":8109:8112   */\n      0x00\n        /* \"#utility.yul\":8130:8135   */\n      dup2\n        /* \"#utility.yul\":8123:8135   */\n      swap1\n      pop\n        /* \"#utility.yul\":8081:8141   */\n      swap2\n      swap1\n      pop\n      jump\t// out\n        /* \"#utility.yul\":8147:8289   */\n    tag_82:\n        /* \"#utility.yul\":8197:8206   */\n      0x00\n        /* \"#utility.yul\":8230:8283   */\n      tag_186\n        /* \"#utility.yul\":8248:8282   */\n      tag_187\n        /* \"#utility.yul\":8257:8281   */\n      tag_188\n        /* \"#utility.yul\":8275:8280   */\n      dup5\n        /* \"#utility.yul\":8257:8281   */\n      tag_52\n      jump\t// in\n    tag_188:\n        /* \"#utility.yul\":8248:8282   */\n      tag_81\n      jump\t// in\n    tag_187:\n        /* \"#utility.yul\":8230:8283   */\n      tag_52\n      jump\t// in\n    tag_186:\n        /* \"#utility.yul\":8217:8283   */\n      swap1\n      pop\n        /* \"#utility.yul\":8147:8289   */\n      swap2\n      swap1\n      pop\n      jump\t// out\n        /* \"#utility.yul\":8295:8370   */\n    tag_83:\n        /* \"#utility.yul\":8338:8341   */\n      0x00\n        /* \"#utility.yul\":8359:8364   */\n      dup2\n        /* \"#utility.yul\":8352:8364   */\n      swap1\n      pop\n        /* \"#utility.yul\":8295:8370   */\n      swap2\n      swap1\n      pop\n      jump\t// out\n        /* \"#utility.yul\":8376:8645   */\n    tag_84:\n        /* \"#utility.yul\":8486:8525   */\n      tag_191\n        /* \"#utility.yul\":8517:8524   */\n      dup4\n        /* \"#utility.yul\":8486:8525   */\n      tag_82\n      jump\t// in\n    tag_191:\n        /* \"#utility.yul\":8547:8638   */\n      tag_192\n        /* \"#utility.yul\":8596:8637   */\n      tag_193\n        /* \"#utility.yul\":8620:8636   */\n      dup3\n        /* \"#utility.yul\":8596:8637   */\n      tag_83\n      jump\t// in\n    tag_193:\n        /* \"#utility.yul\":8588:8594   */\n      dup5\n        /* \"#utility.yul\":8581:8585   */\n      dup5\n        /* \"#utility.yul\":8575:8586   */\n      sload\n        /* \"#utility.yul\":8547:8638   */\n      tag_80\n      jump\t// in\n    tag_192:\n        /* \"#utility.yul\":8541:8545   */\n      dup3\n        /* \"#utility.yul\":8534:8639   */\n      sstore\n        /* \"#utility.yul\":8452:8645   */\n      pop\n        /* \"#utility.yul\":8376:8645   */\n      pop\n      pop\n      pop\n      jump\t// out\n        /* \"#utility.yul\":8651:8724   */\n    tag_85:\n        /* \"#utility.yul\":8696:8699   */\n      0x00\n        /* \"#utility.yul\":8651:8724   */\n      swap1\n      jump\t// out\n        /* \"#utility.yul\":8730:8919   */\n    tag_86:\n        /* \"#utility.yul\":8807:8839   */\n      tag_196\n      tag_85\n      jump\t// in\n    tag_196:\n        /* \"#utility.yul\":8848:8913   */\n      tag_197\n        /* \"#utility.yul\":8906:8912   */\n      dup2\n        /* \"#utility.yul\":8898:8904   */\n      dup5\n        /* \"#utility.yul\":8892:8896   */\n      dup5\n        /* \"#utility.yul\":8848:8913   */\n      tag_84\n      jump\t// in\n    tag_197:\n        /* \"#utility.yul\":8783:8919   */\n      pop\n        /* \"#utility.yul\":8730:8919   */\n      pop\n      pop\n      jump\t// out\n        /* \"#utility.yul\":8925:9111   */\n    tag_87:\n        /* \"#utility.yul\":8985:9105   */\n    tag_199:\n        /* \"#utility.yul\":9002:9005   */\n      dup2\n        /* \"#utility.yul\":8995:9000   */\n      dup2\n        /* \"#utility.yul\":8992:9006   */\n      lt\n        /* \"#utility.yul\":8985:9105   */\n      iszero\n      tag_201\n      jumpi\n        /* \"#utility.yul\":9056:9095   */\n      tag_202\n        /* \"#utility.yul\":9093:9094   */\n      0x00\n        /* \"#utility.yul\":9086:9091   */\n      dup3\n        /* \"#utility.yul\":9056:9095   */\n      tag_86\n      jump\t// in\n    tag_202:\n        /* \"#utility.yul\":9029:9030   */\n      0x01\n        /* \"#utility.yul\":9022:9027   */\n      dup2\n        /* \"#utility.yul\":9018:9031   */\n      add\n        /* \"#utility.yul\":9009:9031   */\n      swap1\n      pop\n        /* \"#utility.yul\":8985:9105   */\n      jump(tag_199)\n    tag_201:\n        /* \"#utility.yul\":8925:9111   */\n      pop\n      pop\n      jump\t// out\n        /* \"#utility.yul\":9117:9660   */\n    tag_88:\n        /* \"#utility.yul\":9218:9220   */\n      0x1f\n        /* \"#utility.yul\":9213:9216   */\n      dup3\n        /* \"#utility.yul\":9210:9221   */\n      gt\n        /* \"#utility.yul\":9207:9653   */\n      iszero\n      tag_204\n      jumpi\n        /* \"#utility.yul\":9252:9290   */\n      tag_205\n        /* \"#utility.yul\":9284:9289   */\n      dup2\n        /* \"#utility.yul\":9252:9290   */\n      tag_77\n      jump\t// in\n    tag_205:\n        /* \"#utility.yul\":9336:9365   */\n      tag_206\n        /* \"#utility.yul\":9354:9364   */\n      dup5\n        /* \"#utility.yul\":9336:9365   */\n      tag_78\n      jump\t// in\n    tag_206:\n        /* \"#utility.yul\":9326:9334   */\n      dup2\n        /* \"#utility.yul\":9322:9366   */\n      add\n        /* \"#utility.yul\":9519:9521   */\n      0x20\n        /* \"#utility.yul\":9507:9517   */\n      dup6\n        /* \"#utility.yul\":9504:9522   */\n      lt\n        /* \"#utility.yul\":9501:9550   */\n      iszero\n      tag_207\n      jumpi\n        /* \"#utility.yul\":9540:9548   */\n      dup2\n        /* \"#utility.yul\":9525:9548   */\n      swap1\n      pop\n        /* \"#utility.yul\":9501:9550   */\n    tag_207:\n        /* \"#utility.yul\":9563:9643   */\n      tag_208\n        /* \"#utility.yul\":9619:9641   */\n      tag_209\n        /* \"#utility.yul\":9637:9640   */\n      dup6\n        /* \"#utility.yul\":9619:9641   */\n      tag_78\n      jump\t// in\n    tag_209:\n        /* \"#utility.yul\":9609:9617   */\n      dup4\n        /* \"#utility.yul\":9605:9642   */\n      add\n        /* \"#utility.yul\":9592:9603   */\n      dup3\n        /* \"#utility.yul\":9563:9643   */\n      tag_87\n      jump\t// in\n    tag_208:\n        /* \"#utility.yul\":9222:9653   */\n      pop\n      pop\n        /* \"#utility.yul\":9207:9653   */\n    tag_204:\n        /* \"#utility.yul\":9117:9660   */\n      pop\n      pop\n      pop\n      jump\t// out\n        /* \"#utility.yul\":9666:9783   */\n    tag_89:\n        /* \"#utility.yul\":9720:9728   */\n      0x00\n        /* \"#utility.yul\":9770:9775   */\n      dup3\n        /* \"#utility.yul\":9764:9768   */\n      dup3\n        /* \"#utility.yul\":9760:9776   */\n      shr\n        /* \"#utility.yul\":9739:9776   */\n      swap1\n      pop\n        /* \"#utility.yul\":9666:9783   */\n      swap3\n      swap2\n      pop\n      pop\n      jump\t// out\n        /* \"#utility.yul\":9789:9958   */\n    tag_90:\n        /* \"#utility.yul\":9833:9839   */\n      0x00\n        /* \"#utility.yul\":9866:9917   */\n      tag_212\n        /* \"#utility.yul\":9914:9915   */\n      0x00\n        /* \"#utility.yul\":9910:9916   */\n      not\n        /* \"#utility.yul\":9902:9907   */\n      dup5\n        /* \"#utility.yul\":9899:9900   */\n      0x08\n        /* \"#utility.yul\":9895:9908   */\n      mul\n        /* \"#utility.yul\":9866:9917   */\n      tag_89\n      jump\t// in\n    tag_212:\n        /* \"#utility.yul\":9862:9918   */\n      not\n        /* \"#utility.yul\":9947:9951   */\n      dup1\n        /* \"#utility.yul\":9941:9945   */\n      dup4\n        /* \"#utility.yul\":9937:9952   */\n      and\n        /* \"#utility.yul\":9927:9952   */\n      swap2\n      pop\n        /* \"#utility.yul\":9840:9958   */\n      pop\n        /* \"#utility.yul\":9789:9958   */\n      swap3\n      swap2\n      pop\n      pop\n      jump\t// out\n        /* \"#utility.yul\":9963:10258   */\n    tag_91:\n        /* \"#utility.yul\":10039:10043   */\n      0x00\n        /* \"#utility.yul\":10185:10214   */\n      tag_214\n        /* \"#utility.yul\":10210:10213   */\n      dup4\n        /* \"#utility.yul\":10204:10208   */\n      dup4\n        /* \"#utility.yul\":10185:10214   */\n      tag_90\n      jump\t// in\n    tag_214:\n        /* \"#utility.yul\":10177:10214   */\n      swap2\n      pop\n        /* \"#utility.yul\":10247:10250   */\n      dup3\n        /* \"#utility.yul\":10244:10245   */\n      0x02\n        /* \"#utility.yul\":10240:10251   */\n      mul\n        /* \"#utility.yul\":10234:10238   */\n      dup3\n        /* \"#utility.yul\":10231:10252   */\n      or\n        /* \"#utility.yul\":10223:10252   */\n      swap1\n      pop\n        /* \"#utility.yul\":9963:10258   */\n      swap3\n      swap2\n      pop\n      pop\n      jump\t// out\n        /* \"#utility.yul\":10263:11658   */\n    tag_49:\n        /* \"#utility.yul\":10380:10417   */\n      tag_216\n        /* \"#utility.yul\":10413:10416   */\n      dup3\n        /* \"#utility.yul\":10380:10417   */\n      tag_59\n      jump\t// in\n    tag_216:\n        /* \"#utility.yul\":10482:10500   */\n      0xffffffffffffffff\n        /* \"#utility.yul\":10474:10480   */\n      dup2\n        /* \"#utility.yul\":10471:10501   */\n      gt\n        /* \"#utility.yul\":10468:10524   */\n      iszero\n      tag_217\n      jumpi\n        /* \"#utility.yul\":10504:10522   */\n      tag_218\n      tag_66\n      jump\t// in\n    tag_218:\n        /* \"#utility.yul\":10468:10524   */\n    tag_217:\n        /* \"#utility.yul\":10548:10586   */\n      tag_219\n        /* \"#utility.yul\":10580:10584   */\n      dup3\n        /* \"#utility.yul\":10574:10585   */\n      sload\n        /* \"#utility.yul\":10548:10586   */\n      tag_38\n      jump\t// in\n    tag_219:\n        /* \"#utility.yul\":10633:10700   */\n      tag_220\n        /* \"#utility.yul\":10693:10699   */\n      dup3\n        /* \"#utility.yul\":10685:10691   */\n      dup3\n        /* \"#utility.yul\":10679:10683   */\n      dup6\n        /* \"#utility.yul\":10633:10700   */\n      tag_88\n      jump\t// in\n    tag_220:\n        /* \"#utility.yul\":10727:10728   */\n      0x00\n        /* \"#utility.yul\":10751:10755   */\n      0x20\n        /* \"#utility.yul\":10738:10755   */\n      swap1\n      pop\n        /* \"#utility.yul\":10783:10785   */\n      0x1f\n        /* \"#utility.yul\":10775:10781   */\n      dup4\n        /* \"#utility.yul\":10772:10786   */\n      gt\n        /* \"#utility.yul\":10800:10801   */\n      0x01\n        /* \"#utility.yul\":10795:11413   */\n      dup2\n      eq\n      tag_222\n      jumpi\n        /* \"#utility.yul\":11457:11458   */\n      0x00\n        /* \"#utility.yul\":11474:11480   */\n      dup5\n        /* \"#utility.yul\":11471:11548   */\n      iszero\n      tag_223\n      jumpi\n        /* \"#utility.yul\":11523:11532   */\n      dup3\n        /* \"#utility.yul\":11518:11521   */\n      dup8\n        /* \"#utility.yul\":11514:11533   */\n      add\n        /* \"#utility.yul\":11508:11534   */\n      mload\n        /* \"#utility.yul\":11499:11534   */\n      swap1\n      pop\n        /* \"#utility.yul\":11471:11548   */\n    tag_223:\n        /* \"#utility.yul\":11574:11641   */\n      tag_224\n        /* \"#utility.yul\":11634:11640   */\n      dup6\n        /* \"#utility.yul\":11627:11632   */\n      dup3\n        /* \"#utility.yul\":11574:11641   */\n      tag_91\n      jump\t// in\n    tag_224:\n        /* \"#utility.yul\":11568:11572   */\n      dup7\n        /* \"#utility.yul\":11561:11642   */\n      sstore\n        /* \"#utility.yul\":11430:11652   */\n      pop\n        /* \"#utility.yul\":10765:11652   */\n      jump(tag_221)\n        /* \"#utility.yul\":10795:11413   */\n    tag_222:\n        /* \"#utility.yul\":10847:10851   */\n      0x1f\n        /* \"#utility.yul\":10843:10852   */\n      not\n        /* \"#utility.yul\":10835:10841   */\n      dup5\n        /* \"#utility.yul\":10831:10853   */\n      and\n        /* \"#utility.yul\":10881:10918   */\n      tag_225\n        /* \"#utility.yul\":10913:10917   */\n      dup7\n        /* \"#utility.yul\":10881:10918   */\n      tag_77\n      jump\t// in\n    tag_225:\n        /* \"#utility.yul\":10940:10941   */\n      0x00\n        /* \"#utility.yul\":10954:11162   */\n    tag_226:\n        /* \"#utility.yul\":10968:10975   */\n      dup3\n        /* \"#utility.yul\":10965:10966   */\n      dup2\n        /* \"#utility.yul\":10962:10976   */\n      lt\n        /* \"#utility.yul\":10954:11162   */\n      iszero\n      tag_228\n      jumpi\n        /* \"#utility.yul\":11047:11056   */\n      dup5\n        /* \"#utility.yul\":11042:11045   */\n      dup10\n        /* \"#utility.yul\":11038:11057   */\n      add\n        /* \"#utility.yul\":11032:11058   */\n      mload\n        /* \"#utility.yul\":11024:11030   */\n      dup3\n        /* \"#utility.yul\":11017:11059   */\n      sstore\n        /* \"#utility.yul\":11098:11099   */\n      0x01\n        /* \"#utility.yul\":11090:11096   */\n      dup3\n        /* \"#utility.yul\":11086:11100   */\n      add\n        /* \"#utility.yul\":11076:11100   */\n      swap2\n      pop\n        /* \"#utility.yul\":11145:11147   */\n      0x20\n        /* \"#utility.yul\":11134:11143   */\n      dup6\n        /* \"#utility.yul\":11130:11148   */\n      add\n        /* \"#utility.yul\":11117:11148   */\n      swap5\n      pop\n        /* \"#utility.yul\":10991:10995   */\n      0x20\n        /* \"#utility.yul\":10988:10989   */\n      dup2\n        /* \"#utility.yul\":10984:10996   */\n      add\n        /* \"#utility.yul\":10979:10996   */\n      swap1\n      pop\n        /* \"#utility.yul\":10954:11162   */\n      jump(tag_226)\n    tag_228:\n        /* \"#utility.yul\":11190:11196   */\n      dup7\n        /* \"#utility.yul\":11181:11188   */\n      dup4\n        /* \"#utility.yul\":11178:11197   */\n      lt\n        /* \"#utility.yul\":11175:11354   */\n      iszero\n      tag_229\n      jumpi\n        /* \"#utility.yul\":11248:11257   */\n      dup5\n        /* \"#utility.yul\":11243:11246   */\n      dup10\n        /* \"#utility.yul\":11239:11258   */\n      add\n        /* \"#utility.yul\":11233:11259   */\n      mload\n        /* \"#utility.yul\":11291:11339   */\n      tag_230\n        /* \"#utility.yul\":11333:11337   */\n      0x1f\n        /* \"#utility.yul\":11325:11331   */\n      dup10\n        /* \"#utility.yul\":11321:11338   */\n      and\n        /* \"#utility.yul\":11310:11319   */\n      dup3\n        /* \"#utility.yul\":11291:11339   */\n      tag_90\n      jump\t// in\n    tag_230:\n        /* \"#utility.yul\":11283:11289   */\n      dup4\n        /* \"#utility.yul\":11276:11340   */\n      sstore\n        /* \"#utility.yul\":11198:11354   */\n      pop\n        /* \"#utility.yul\":11175:11354   */\n    tag_229:\n        /* \"#utility.yul\":11400:11401   */\n      0x01\n        /* \"#utility.yul\":11396:11397   */\n      0x02\n        /* \"#utility.yul\":11388:11394   */\n      dup9\n        /* \"#utility.yul\":11384:11398   */\n      mul\n        /* \"#utility.yul\":11380:11402   */\n      add\n        /* \"#utility.yul\":11374:11378   */\n      dup9\n        /* \"#utility.yul\":11367:11403   */\n      sstore\n        /* \"#utility.yul\":10802:11413   */\n      pop\n      pop\n      pop\n        /* \"#utility.yul\":10765:11652   */\n    tag_221:\n      pop\n        /* \"#utility.yul\":10355:11658   */\n      pop\n      pop\n      pop\n        /* \"#utility.yul\":10263:11658   */\n      pop\n      pop\n      jump\t// out\n        /* \"#utility.yul\":11664:11812   */\n    tag_92:\n        /* \"#utility.yul\":11766:11777   */\n      0x00\n        /* \"#utility.yul\":11803:11806   */\n      dup2\n        /* \"#utility.yul\":11788:11806   */\n      swap1\n      pop\n        /* \"#utility.yul\":11664:11812   */\n      swap3\n      swap2\n      pop\n      pop\n      jump\t// out\n        /* \"#utility.yul\":11818:12208   */\n    tag_93:\n        /* \"#utility.yul\":11924:11927   */\n      0x00\n        /* \"#utility.yul\":11952:11991   */\n      tag_233\n        /* \"#utility.yul\":11985:11990   */\n      dup3\n        /* \"#utility.yul\":11952:11991   */\n      tag_59\n      jump\t// in\n    tag_233:\n        /* \"#utility.yul\":12007:12096   */\n      tag_234\n        /* \"#utility.yul\":12089:12095   */\n      dup2\n        /* \"#utility.yul\":12084:12087   */\n      dup6\n        /* \"#utility.yul\":12007:12096   */\n      tag_92\n      jump\t// in\n    tag_234:\n        /* \"#utility.yul\":12000:12096   */\n      swap4\n      pop\n        /* \"#utility.yul\":12105:12170   */\n      tag_235\n        /* \"#utility.yul\":12163:12169   */\n      dup2\n        /* \"#utility.yul\":12158:12161   */\n      dup6\n        /* \"#utility.yul\":12151:12155   */\n      0x20\n        /* \"#utility.yul\":12144:12149   */\n      dup7\n        /* \"#utility.yul\":12140:12156   */\n      add\n        /* \"#utility.yul\":12105:12170   */\n      tag_61\n      jump\t// in\n    tag_235:\n        /* \"#utility.yul\":12195:12201   */\n      dup1\n        /* \"#utility.yul\":12190:12193   */\n      dup5\n        /* \"#utility.yul\":12186:12202   */\n      add\n        /* \"#utility.yul\":12179:12202   */\n      swap2\n      pop\n        /* \"#utility.yul\":11928:12208   */\n      pop\n        /* \"#utility.yul\":11818:12208   */\n      swap3\n      swap2\n      pop\n      pop\n      jump\t// out\n        /* \"#utility.yul\":12214:12489   */\n    tag_51:\n        /* \"#utility.yul\":12346:12349   */\n      0x00\n        /* \"#utility.yul\":12368:12463   */\n      tag_237\n        /* \"#utility.yul\":12459:12462   */\n      dup3\n        /* \"#utility.yul\":12450:12456   */\n      dup5\n        /* \"#utility.yul\":12368:12463   */\n      tag_93\n      jump\t// in\n    tag_237:\n        /* \"#utility.yul\":12361:12463   */\n      swap2\n      pop\n        /* \"#utility.yul\":12480:12483   */\n      dup2\n        /* \"#utility.yul\":12473:12483   */\n      swap1\n      pop\n        /* \"#utility.yul\":12214:12489   */\n      swap3\n      swap2\n      pop\n      pop\n      jump\t// out\n\n    auxdata: 0xa2646970667358221220dfc61b79dd806f719d1265fac8a4762b09fbb64d31e7103603cd33e65decb7e364736f6c63430008180033\n}\n",
				"bytecode": {
					"linkReferences": {},
					"object": "608060405234801561000f575f80fd5b506109c18061001d5f395ff3fe608060405234801561000f575f80fd5b5060043610610060575f3560e01c80632e64cec1146100645780632ebce63114610082578063471f7cdf146100b35780636057361d146100d15780636f760f41146100ed5780638bab8dd514610109575b5f80fd5b61006c610139565b6040516100799190610308565b60405180910390f35b61009c6004803603810190610097919061035c565b610141565b6040516100aa929190610411565b60405180910390f35b6100bb6101f6565b6040516100c89190610308565b60405180910390f35b6100eb60048036038101906100e6919061035c565b6101fb565b005b6101076004803603810190610102919061056b565b61023f565b005b610123600480360381019061011e91906105c5565b6102c3565b6040516101309190610308565b60405180910390f35b5f8054905090565b60018181548110610150575f80fd5b905f5260205f2090600202015f91509050805f01549080600101805461017590610639565b80601f01602080910402602001604051908101604052809291908181526020018280546101a190610639565b80156101ec5780601f106101c3576101008083540402835291602001916101ec565b820191905f5260205f20905b8154815290600101906020018083116101cf57829003601f168201915b5050505050905082565b5f5481565b5f547ffd80bdf4e1fe7264964c4ddaa96ea8fcfcd2cca0a02493201f234b1bc3ae0368823360405161022e9291906106a8565b60405180910390a2805f8190555050565b6001604051806040016040528083815260200184815250908060018154018082558091505060019003905f5260205f2090600202015f909190919091505f820151815f01556020820151816001019081610299919061086c565b505050806002836040516102ad9190610975565b9081526020016040518091039020819055505050565b6002818051602081018201805184825260208301602085012081835280955050505050505f915090505481565b5f819050919050565b610302816102f0565b82525050565b5f60208201905061031b5f8301846102f9565b92915050565b5f604051905090565b5f80fd5b5f80fd5b61033b816102f0565b8114610345575f80fd5b50565b5f8135905061035681610332565b92915050565b5f602082840312156103715761037061032a565b5b5f61037e84828501610348565b91505092915050565b5f81519050919050565b5f82825260208201905092915050565b5f5b838110156103be5780820151818401526020810190506103a3565b5f8484015250505050565b5f601f19601f8301169050919050565b5f6103e382610387565b6103ed8185610391565b93506103fd8185602086016103a1565b610406816103c9565b840191505092915050565b5f6040820190506104245f8301856102f9565b818103602083015261043681846103d9565b90509392505050565b5f80fd5b5f80fd5b7f4e487b71000000000000000000000000000000000000000000000000000000005f52604160045260245ffd5b61047d826103c9565b810181811067ffffffffffffffff8211171561049c5761049b610447565b5b80604052505050565b5f6104ae610321565b90506104ba8282610474565b919050565b5f67ffffffffffffffff8211156104d9576104d8610447565b5b6104e2826103c9565b9050602081019050919050565b828183375f83830152505050565b5f61050f61050a846104bf565b6104a5565b90508281526020810184848401111561052b5761052a610443565b5b6105368482856104ef565b509392505050565b5f82601f8301126105525761055161043f565b5b81356105628482602086016104fd565b91505092915050565b5f80604083850312156105815761058061032a565b5b5f83013567ffffffffffffffff81111561059e5761059d61032e565b5b6105aa8582860161053e565b92505060206105bb85828601610348565b9150509250929050565b5f602082840312156105da576105d961032a565b5b5f82013567ffffffffffffffff8111156105f7576105f661032e565b5b6106038482850161053e565b91505092915050565b7f4e487b71000000000000000000000000000000000000000000000000000000005f52602260045260245ffd5b5f600282049050600182168061065057607f821691505b6020821081036106635761066261060c565b5b50919050565b5f73ffffffffffffffffffffffffffffffffffffffff82169050919050565b5f61069282610669565b9050919050565b6106a281610688565b82525050565b5f6040820190506106bb5f8301856102f9565b6106c86020830184610699565b9392505050565b5f819050815f5260205f209050919050565b5f6020601f8301049050919050565b5f82821b905092915050565b5f6008830261072b7fffffffffffffffffffffffffffffffffffffffffffffffffffffffffffffffff826106f0565b61073586836106f0565b95508019841693508086168417925050509392505050565b5f819050919050565b5f61077061076b610766846102f0565b61074d565b6102f0565b9050919050565b5f819050919050565b61078983610756565b61079d61079582610777565b8484546106fc565b825550505050565b5f90565b6107b16107a5565b6107bc818484610780565b505050565b5b818110156107df576107d45f826107a9565b6001810190506107c2565b5050565b601f821115610824576107f5816106cf565b6107fe846106e1565b8101602085101561080d578190505b610821610819856106e1565b8301826107c1565b50505b505050565b5f82821c905092915050565b5f6108445f1984600802610829565b1980831691505092915050565b5f61085c8383610835565b9150826002028217905092915050565b61087582610387565b67ffffffffffffffff81111561088e5761088d610447565b5b6108988254610639565b6108a38282856107e3565b5f60209050601f8311600181146108d4575f84156108c2578287015190505b6108cc8582610851565b865550610933565b601f1984166108e2866106cf565b5f5b82811015610909578489015182556001820191506020850194506020810190506108e4565b868310156109265784890151610922601f891682610835565b8355505b6001600288020188555050505b505050505050565b5f81905092915050565b5f61094f82610387565b610959818561093b565b93506109698185602086016103a1565b80840191505092915050565b5f6109808284610945565b91508190509291505056fea2646970667358221220dfc61b79dd806f719d1265fac8a4762b09fbb64d31e7103603cd33e65decb7e364736f6c63430008180033",
					"opcodes": "PUSH1 0x80 PUSH1 0x40 MSTORE CALLVALUE DUP1 ISZERO PUSH2 0xF JUMPI PUSH0 DUP1 REVERT JUMPDEST POP PUSH2 0x9C1 DUP1 PUSH2 0x1D PUSH0 CODECOPY PUSH0 RETURN INVALID PUSH1 0x80 PUSH1 0x40 MSTORE CALLVALUE DUP1 ISZERO PUSH2 0xF JUMPI PUSH0 DUP1 REVERT JUMPDEST POP PUSH1 0x4 CALLDATASIZE LT PUSH2 0x60 JUMPI PUSH0 CALLDATALOAD PUSH1 0xE0 SHR DUP1 PUSH4 0x2E64CEC1 EQ PUSH2 0x64 JUMPI DUP1 PUSH4 0x2EBCE631 EQ PUSH2 0x82 JUMPI DUP1 PUSH4 0x471F7CDF EQ PUSH2 0xB3 JUMPI DUP1 PUSH4 0x6057361D EQ PUSH2 0xD1 JUMPI DUP1 PUSH4 0x6F760F41 EQ PUSH2 0xED JUMPI DUP1 PUSH4 0x8BAB8DD5 EQ PUSH2 0x109 JUMPI JUMPDEST PUSH0 DUP1 REVERT JUMPDEST PUSH2 0x6C PUSH2 0x139 JUMP JUMPDEST PUSH1 0x40 MLOAD PUSH2 0x79 SWAP2 SWAP1 PUSH2 0x308 JUMP JUMPDEST PUSH1 0x40 MLOAD DUP1 SWAP2 SUB SWAP1 RETURN JUMPDEST PUSH2 0x9C PUSH1 0x4 DUP1 CALLDATASIZE SUB DUP2 ADD SWAP1 PUSH2 0x97 SWAP2 SWAP1 PUSH2 0x35C JUMP JUMPDEST PUSH2 0x141 JUMP JUMPDEST PUSH1 0x40 MLOAD PUSH2 0xAA SWAP3 SWAP2 SWAP1 PUSH2 0x411 JUMP JUMPDEST PUSH1 0x40 MLOAD DUP1 SWAP2 SUB SWAP1 RETURN JUMPDEST PUSH2 0xBB PUSH2 0x1F6 JUMP JUMPDEST PUSH1 0x40 MLOAD PUSH2 0xC8 SWAP2 SWAP1 PUSH2 0x308 JUMP JUMPDEST PUSH1 0x40 MLOAD DUP1 SWAP2 SUB SWAP1 RETURN JUMPDEST PUSH2 0xEB PUSH1 0x4 DUP1 CALLDATASIZE SUB DUP2 ADD SWAP1 PUSH2 0xE6 SWAP2 SWAP1 PUSH2 0x35C JUMP JUMPDEST PUSH2 0x1FB JUMP JUMPDEST STOP JUMPDEST PUSH2 0x107 PUSH1 0x4 DUP1 CALLDATASIZE SUB DUP2 ADD SWAP1 PUSH2 0x102 SWAP2 SWAP1 PUSH2 0x56B JUMP JUMPDEST PUSH2 0x23F JUMP JUMPDEST STOP JUMPDEST PUSH2 0x123 PUSH1 0x4 DUP1 CALLDATASIZE SUB DUP2 ADD SWAP1 PUSH2 0x11E SWAP2 SWAP1 PUSH2 0x5C5 JUMP JUMPDEST PUSH2 0x2C3 JUMP JUMPDEST PUSH1 0x40 MLOAD PUSH2 0x130 SWAP2 SWAP1 PUSH2 0x308 JUMP JUMPDEST PUSH1 0x40 MLOAD DUP1 SWAP2 SUB SWAP1 RETURN JUMPDEST PUSH0 DUP1 SLOAD SWAP1 POP SWAP1 JUMP JUMPDEST PUSH1 0x1 DUP2 DUP2 SLOAD DUP2 LT PUSH2 0x150 JUMPI PUSH0 DUP1 REVERT JUMPDEST SWAP1 PUSH0 MSTORE PUSH1 0x20 PUSH0 KECCAK256 SWAP1 PUSH1 0x2 MUL ADD PUSH0 SWAP2 POP SWAP1 POP DUP1 PUSH0 ADD SLOAD SWAP1 DUP1 PUSH1 0x1 ADD DUP1 SLOAD PUSH2 0x175 SWAP1 PUSH2 0x639 JUMP JUMPDEST DUP1 PUSH1 0x1F ADD PUSH1 0x20 DUP1 SWAP2 DIV MUL PUSH1 0x20 ADD PUSH1 0x40 MLOAD SWAP1 DUP2 ADD PUSH1 0x40 MSTORE DUP1 SWAP3 SWAP2 SWAP1 DUP2 DUP2 MSTORE PUSH1 0x20 ADD DUP3 DUP1 SLOAD PUSH2 0x1A1 SWAP1 PUSH2 0x639 JUMP JUMPDEST DUP1 ISZERO PUSH2 0x1EC JUMPI DUP1 PUSH1 0x1F LT PUSH2 0x1C3 JUMPI PUSH2 0x100 DUP1 DUP4 SLOAD DIV MUL DUP4 MSTORE SWAP2 PUSH1 0x20 ADD SWAP2 PUSH2 0x1EC JUMP JUMPDEST DUP3 ADD SWAP2 SWAP1 PUSH0 MSTORE PUSH1 0x20 PUSH0 KECCAK256 SWAP1 JUMPDEST DUP2 SLOAD DUP2 MSTORE SWAP1 PUSH1 0x1 ADD SWAP1 PUSH1 0x20 ADD DUP1 DUP4 GT PUSH2 0x1CF JUMPI DUP3 SWAP1 SUB PUSH1 0x1F AND DUP3 ADD SWAP2 JUMPDEST POP POP POP POP POP SWAP1 POP DUP3 JUMP JUMPDEST PUSH0 SLOAD DUP2 JUMP JUMPDEST PUSH0 SLOAD PUSH32 0xFD80BDF4E1FE7264964C4DDAA96EA8FCFCD2CCA0A02493201F234B1BC3AE0368 DUP3 CALLER PUSH1 0x40 MLOAD PUSH2 0x22E SWAP3 SWAP2 SWAP1 PUSH2 0x6A8 JUMP JUMPDEST PUSH1 0x40 MLOAD DUP1 SWAP2 SUB SWAP1 LOG2 DUP1 PUSH0 DUP2 SWAP1 SSTORE POP POP JUMP JUMPDEST PUSH1 0x1 PUSH1 0x40 MLOAD DUP1 PUSH1 0x40 ADD PUSH1 0x40 MSTORE DUP1 DUP4 DUP2 MSTORE PUSH1 0x20 ADD DUP5 DUP2 MSTORE POP SWAP1 DUP1 PUSH1 0x1 DUP2 SLOAD ADD DUP1 DUP3 SSTORE DUP1 SWAP2 POP POP PUSH1 0x1 SWAP1 SUB SWAP1 PUSH0 MSTORE PUSH1 0x20 PUSH0 KECCAK256 SWAP1 PUSH1 0x2 MUL ADD PUSH0 SWAP1 SWAP2 SWAP1 SWAP2 SWAP1 SWAP2 POP PUSH0 DUP3 ADD MLOAD DUP2 PUSH0 ADD SSTORE PUSH1 0x20 DUP3 ADD MLOAD DUP2 PUSH1 0x1 ADD SWAP1 DUP2 PUSH2 0x299 SWAP2 SWAP1 PUSH2 0x86C JUMP JUMPDEST POP POP POP DUP1 PUSH1 0x2 DUP4 PUSH1 0x40 MLOAD PUSH2 0x2AD SWAP2 SWAP1 PUSH2 0x975 JUMP JUMPDEST SWAP1 DUP2 MSTORE PUSH1 0x20 ADD PUSH1 0x40 MLOAD DUP1 SWAP2 SUB SWAP1 KECCAK256 DUP2 SWAP1 SSTORE POP POP POP JUMP JUMPDEST PUSH1 0x2 DUP2 DUP1 MLOAD PUSH1 0x20 DUP2 ADD DUP3 ADD DUP1 MLOAD DUP5 DUP3 MSTORE PUSH1 0x20 DUP4 ADD PUSH1 0x20 DUP6 ADD KECCAK256 DUP2 DUP4 MSTORE DUP1 SWAP6 POP POP POP POP POP POP PUSH0 SWAP2 POP SWAP1 POP SLOAD DUP2 JUMP JUMPDEST PUSH0 DUP2 SWAP1 POP SWAP2 SWAP1 POP JUMP JUMPDEST PUSH2 0x302 DUP2 PUSH2 0x2F0 JUMP JUMPDEST DUP3 MSTORE POP POP JUMP JUMPDEST PUSH0 PUSH1 0x20 DUP3 ADD SWAP1 POP PUSH2 0x31B PUSH0 DUP4 ADD DUP5 PUSH2 0x2F9 JUMP JUMPDEST SWAP3 SWAP2 POP POP JUMP JUMPDEST PUSH0 PUSH1 0x40 MLOAD SWAP1 POP SWAP1 JUMP JUMPDEST PUSH0 DUP1 REVERT JUMPDEST PUSH0 DUP1 REVERT JUMPDEST PUSH2 0x33B DUP2 PUSH2 0x2F0 JUMP JUMPDEST DUP2 EQ PUSH2 0x345 JUMPI PUSH0 DUP1 REVERT JUMPDEST POP JUMP JUMPDEST PUSH0 DUP2 CALLDATALOAD SWAP1 POP PUSH2 0x356 DUP2 PUSH2 0x332 JUMP JUMPDEST SWAP3 SWAP2 POP POP JUMP JUMPDEST PUSH0 PUSH1 0x20 DUP3 DUP5 SUB SLT ISZERO PUSH2 0x371 JUMPI PUSH2 0x370 PUSH2 0x32A JUMP JUMPDEST JUMPDEST PUSH0 PUSH2 0x37E DUP5 DUP3 DUP6 ADD PUSH2 0x348 JUMP JUMPDEST SWAP2 POP POP SWAP3 SWAP2 POP POP JUMP JUMPDEST PUSH0 DUP2 MLOAD SWAP1 POP SWAP2 SWAP1 POP JUMP JUMPDEST PUSH0 DUP3 DUP3 MSTORE PUSH1 0x20 DUP3 ADD SWAP1 POP SWAP3 SWAP2 POP POP JUMP JUMPDEST PUSH0 JUMPDEST DUP4 DUP2 LT ISZERO PUSH2 0x3BE JUMPI DUP1 DUP3 ADD MLOAD DUP2 DUP5 ADD MSTORE PUSH1 0x20 DUP2 ADD SWAP1 POP PUSH2 0x3A3 JUMP JUMPDEST PUSH0 DUP5 DUP5 ADD MSTORE POP POP POP POP JUMP JUMPDEST PUSH0 PUSH1 0x1F NOT PUSH1 0x1F DUP4 ADD AND SWAP1 POP SWAP2 SWAP1 POP JUMP JUMPDEST PUSH0 PUSH2 0x3E3 DUP3 PUSH2 0x387 JUMP JUMPDEST PUSH2 0x3ED DUP2 DUP6 PUSH2 0x391 JUMP JUMPDEST SWAP4 POP PUSH2 0x3FD DUP2 DUP6 PUSH1 0x20 DUP7 ADD PUSH2 0x3A1 JUMP JUMPDEST PUSH2 0x406 DUP2 PUSH2 0x3C9 JUMP JUMPDEST DUP5 ADD SWAP2 POP POP SWAP3 SWAP2 POP POP JUMP JUMPDEST PUSH0 PUSH1 0x40 DUP3 ADD SWAP1 POP PUSH2 0x424 PUSH0 DUP4 ADD DUP6 PUSH2 0x2F9 JUMP JUMPDEST DUP2 DUP2 SUB PUSH1 0x20 DUP4 ADD MSTORE PUSH2 0x436 DUP2 DUP5 PUSH2 0x3D9 JUMP JUMPDEST SWAP1 POP SWAP4 SWAP3 POP POP POP JUMP JUMPDEST PUSH0 DUP1 REVERT JUMPDEST PUSH0 DUP1 REVERT JUMPDEST PUSH32 0x4E487B7100000000000000000000000000000000000000000000000000000000 PUSH0 MSTORE PUSH1 0x41 PUSH1 0x4 MSTORE PUSH1 0x24 PUSH0 REVERT JUMPDEST PUSH2 0x47D DUP3 PUSH2 0x3C9 JUMP JUMPDEST DUP2 ADD DUP2 DUP2 LT PUSH8 0xFFFFFFFFFFFFFFFF DUP3 GT OR ISZERO PUSH2 0x49C JUMPI PUSH2 0x49B PUSH2 0x447 JUMP JUMPDEST JUMPDEST DUP1 PUSH1 0x40 MSTORE POP POP POP JUMP JUMPDEST PUSH0 PUSH2 0x4AE PUSH2 0x321 JUMP JUMPDEST SWAP1 POP PUSH2 0x4BA DUP3 DUP3 PUSH2 0x474 JUMP JUMPDEST SWAP2 SWAP1 POP JUMP JUMPDEST PUSH0 PUSH8 0xFFFFFFFFFFFFFFFF DUP3 GT ISZERO PUSH2 0x4D9 JUMPI PUSH2 0x4D8 PUSH2 0x447 JUMP JUMPDEST JUMPDEST PUSH2 0x4E2 DUP3 PUSH2 0x3C9 JUMP JUMPDEST SWAP1 POP PUSH1 0x20 DUP2 ADD SWAP1 POP SWAP2 SWAP1 POP JUMP JUMPDEST DUP3 DUP2 DUP4 CALLDATACOPY PUSH0 DUP4 DUP4 ADD MSTORE POP POP POP JUMP JUMPDEST PUSH0 PUSH2 0x50F PUSH2 0x50A DUP5 PUSH2 0x4BF JUMP JUMPDEST PUSH2 0x4A5 JUMP JUMPDEST SWAP1 POP DUP3 DUP2 MSTORE PUSH1 0x20 DUP2 ADD DUP5 DUP5 DUP5 ADD GT ISZERO PUSH2 0x52B JUMPI PUSH2 0x52A PUSH2 0x443 JUMP JUMPDEST JUMPDEST PUSH2 0x536 DUP5 DUP3 DUP6 PUSH2 0x4EF JUMP JUMPDEST POP SWAP4 SWAP3 POP POP POP JUMP JUMPDEST PUSH0 DUP3 PUSH1 0x1F DUP4 ADD SLT PUSH2 0x552 JUMPI PUSH2 0x551 PUSH2 0x43F JUMP JUMPDEST JUMPDEST DUP2 CALLDATALOAD PUSH2 0x562 DUP5 DUP3 PUSH1 0x20 DUP7 ADD PUSH2 0x4FD JUMP JUMPDEST SWAP2 POP POP SWAP3 SWAP2 POP POP JUMP JUMPDEST PUSH0 DUP1 PUSH1 0x40 DUP4 DUP6 SUB SLT ISZERO PUSH2 0x581 JUMPI PUSH2 0x580 PUSH2 0x32A JUMP JUMPDEST JUMPDEST PUSH0 DUP4 ADD CALLDATALOAD PUSH8 0xFFFFFFFFFFFFFFFF DUP2 GT ISZERO PUSH2 0x59E JUMPI PUSH2 0x59D PUSH2 0x32E JUMP JUMPDEST JUMPDEST PUSH2 0x5AA DUP6 DUP3 DUP7 ADD PUSH2 0x53E JUMP JUMPDEST SWAP3 POP POP PUSH1 0x20 PUSH2 0x5BB DUP6 DUP3 DUP7 ADD PUSH2 0x348 JUMP JUMPDEST SWAP2 POP POP SWAP3 POP SWAP3 SWAP1 POP JUMP JUMPDEST PUSH0 PUSH1 0x20 DUP3 DUP5 SUB SLT ISZERO PUSH2 0x5DA JUMPI PUSH2 0x5D9 PUSH2 0x32A JUMP JUMPDEST JUMPDEST PUSH0 DUP3 ADD CALLDATALOAD PUSH8 0xFFFFFFFFFFFFFFFF DUP2 GT ISZERO PUSH2 0x5F7 JUMPI PUSH2 0x5F6 PUSH2 0x32E JUMP JUMPDEST JUMPDEST PUSH2 0x603 DUP5 DUP3 DUP6 ADD PUSH2 0x53E JUMP JUMPDEST SWAP2 POP POP SWAP3 SWAP2 POP POP JUMP JUMPDEST PUSH32 0x4E487B7100000000000000000000000000000000000000000000000000000000 PUSH0 MSTORE PUSH1 0x22 PUSH1 0x4 MSTORE PUSH1 0x24 PUSH0 REVERT JUMPDEST PUSH0 PUSH1 0x2 DUP3 DIV SWAP1 POP PUSH1 0x1 DUP3 AND DUP1 PUSH2 0x650 JUMPI PUSH1 0x7F DUP3 AND SWAP2 POP JUMPDEST PUSH1 0x20 DUP3 LT DUP2 SUB PUSH2 0x663 JUMPI PUSH2 0x662 PUSH2 0x60C JUMP JUMPDEST JUMPDEST POP SWAP2 SWAP1 POP JUMP JUMPDEST PUSH0 PUSH20 0xFFFFFFFFFFFFFFFFFFFFFFFFFFFFFFFFFFFFFFFF DUP3 AND SWAP1 POP SWAP2 SWAP1 POP JUMP JUMPDEST PUSH0 PUSH2 0x692 DUP3 PUSH2 0x669 JUMP JUMPDEST SWAP1 POP SWAP2 SWAP1 POP JUMP JUMPDEST PUSH2 0x6A2 DUP2 PUSH2 0x688 JUMP JUMPDEST DUP3 MSTORE POP POP JUMP JUMPDEST PUSH0 PUSH1 0x40 DUP3 ADD SWAP1 POP PUSH2 0x6BB PUSH0 DUP4 ADD DUP6 PUSH2 0x2F9 JUMP JUMPDEST PUSH2 0x6C8 PUSH1 0x20 DUP4 ADD DUP5 PUSH2 0x699 JUMP JUMPDEST SWAP4 SWAP3 POP POP POP JUMP JUMPDEST PUSH0 DUP2 SWAP1 POP DUP2 PUSH0 MSTORE PUSH1 0x20 PUSH0 KECCAK256 SWAP1 POP SWAP2 SWAP1 POP JUMP JUMPDEST PUSH0 PUSH1 0x20 PUSH1 0x1F DUP4 ADD DIV SWAP1 POP SWAP2 SWAP1 POP JUMP JUMPDEST PUSH0 DUP3 DUP3 SHL SWAP1 POP SWAP3 SWAP2 POP POP JUMP JUMPDEST PUSH0 PUSH1 0x8 DUP4 MUL PUSH2 0x72B PUSH32 0xFFFFFFFFFFFFFFFFFFFFFFFFFFFFFFFFFFFFFFFFFFFFFFFFFFFFFFFFFFFFFFFF DUP3 PUSH2 0x6F0 JUMP JUMPDEST PUSH2 0x735 DUP7 DUP4 PUSH2 0x6F0 JUMP JUMPDEST SWAP6 POP DUP1 NOT DUP5 AND SWAP4 POP DUP1 DUP7 AND DUP5 OR SWAP3 POP POP POP SWAP4 SWAP3 POP POP POP JUMP JUMPDEST PUSH0 DUP2 SWAP1 POP SWAP2 SWAP1 POP JUMP JUMPDEST PUSH0 PUSH2 0x770 PUSH2 0x76B PUSH2 0x766 DUP5 PUSH2 0x2F0 JUMP JUMPDEST PUSH2 0x74D JUMP JUMPDEST PUSH2 0x2F0 JUMP JUMPDEST SWAP1 POP SWAP2 SWAP1 POP JUMP JUMPDEST PUSH0 DUP2 SWAP1 POP SWAP2 SWAP1 POP JUMP JUMPDEST PUSH2 0x789 DUP4 PUSH2 0x756 JUMP JUMPDEST PUSH2 0x79D PUSH2 0x795 DUP3 PUSH2 0x777 JUMP JUMPDEST DUP5 DUP5 SLOAD PUSH2 0x6FC JUMP JUMPDEST DUP3 SSTORE POP POP POP POP JUMP JUMPDEST PUSH0 SWAP1 JUMP JUMPDEST PUSH2 0x7B1 PUSH2 0x7A5 JUMP JUMPDEST PUSH2 0x7BC DUP2 DUP5 DUP5 PUSH2 0x780 JUMP JUMPDEST POP POP POP JUMP JUMPDEST JUMPDEST DUP2 DUP2 LT ISZERO PUSH2 0x7DF JUMPI PUSH2 0x7D4 PUSH0 DUP3 PUSH2 0x7A9 JUMP JUMPDEST PUSH1 0x1 DUP2 ADD SWAP1 POP PUSH2 0x7C2 JUMP JUMPDEST POP POP JUMP JUMPDEST PUSH1 0x1F DUP3 GT ISZERO PUSH2 0x824 JUMPI PUSH2 0x7F5 DUP2 PUSH2 0x6CF JUMP JUMPDEST PUSH2 0x7FE DUP5 PUSH2 0x6E1 JUMP JUMPDEST DUP2 ADD PUSH1 0x20 DUP6 LT ISZERO PUSH2 0x80D JUMPI DUP2 SWAP1 POP JUMPDEST PUSH2 0x821 PUSH2 0x819 DUP6 PUSH2 0x6E1 JUMP JUMPDEST DUP4 ADD DUP3 PUSH2 0x7C1 JUMP JUMPDEST POP POP JUMPDEST POP POP POP JUMP JUMPDEST PUSH0 DUP3 DUP3 SHR SWAP1 POP SWAP3 SWAP2 POP POP JUMP JUMPDEST PUSH0 PUSH2 0x844 PUSH0 NOT DUP5 PUSH1 0x8 MUL PUSH2 0x829 JUMP JUMPDEST NOT DUP1 DUP4 AND SWAP2 POP POP SWAP3 SWAP2 POP POP JUMP JUMPDEST PUSH0 PUSH2 0x85C DUP4 DUP4 PUSH2 0x835 JUMP JUMPDEST SWAP2 POP DUP3 PUSH1 0x2 MUL DUP3 OR SWAP1 POP SWAP3 SWAP2 POP POP JUMP JUMPDEST PUSH2 0x875 DUP3 PUSH2 0x387 JUMP JUMPDEST PUSH8 0xFFFFFFFFFFFFFFFF DUP2 GT ISZERO PUSH2 0x88E JUMPI PUSH2 0x88D PUSH2 0x447 JUMP JUMPDEST JUMPDEST PUSH2 0x898 DUP3 SLOAD PUSH2 0x639 JUMP JUMPDEST PUSH2 0x8A3 DUP3 DUP3 DUP6 PUSH2 0x7E3 JUMP JUMPDEST PUSH0 PUSH1 0x20 SWAP1 POP PUSH1 0x1F DUP4 GT PUSH1 0x1 DUP2 EQ PUSH2 0x8D4 JUMPI PUSH0 DUP5 ISZERO PUSH2 0x8C2 JUMPI DUP3 DUP8 ADD MLOAD SWAP1 POP JUMPDEST PUSH2 0x8CC DUP6 DUP3 PUSH2 0x851 JUMP JUMPDEST DUP7 SSTORE POP PUSH2 0x933 JUMP JUMPDEST PUSH1 0x1F NOT DUP5 AND PUSH2 0x8E2 DUP7 PUSH2 0x6CF JUMP JUMPDEST PUSH0 JUMPDEST DUP3 DUP2 LT ISZERO PUSH2 0x909 JUMPI DUP5 DUP10 ADD MLOAD DUP3 SSTORE PUSH1 0x1 DUP3 ADD SWAP2 POP PUSH1 0x20 DUP6 ADD SWAP5 POP PUSH1 0x20 DUP2 ADD SWAP1 POP PUSH2 0x8E4 JUMP JUMPDEST DUP7 DUP4 LT ISZERO PUSH2 0x926 JUMPI DUP5 DUP10 ADD MLOAD PUSH2 0x922 PUSH1 0x1F DUP10 AND DUP3 PUSH2 0x835 JUMP JUMPDEST DUP4 SSTORE POP JUMPDEST PUSH1 0x1 PUSH1 0x2 DUP9 MUL ADD DUP9 SSTORE POP POP POP JUMPDEST POP POP POP POP POP POP JUMP JUMPDEST PUSH0 DUP2 SWAP1 POP SWAP3 SWAP2 POP POP JUMP JUMPDEST PUSH0 PUSH2 0x94F DUP3 PUSH2 0x387 JUMP JUMPDEST PUSH2 0x959 DUP2 DUP6 PUSH2 0x93B JUMP JUMPDEST SWAP4 POP PUSH2 0x969 DUP2 DUP6 PUSH1 0x20 DUP7 ADD PUSH2 0x3A1 JUMP JUMPDEST DUP1 DUP5 ADD SWAP2 POP POP SWAP3 SWAP2 POP POP JUMP JUMPDEST PUSH0 PUSH2 0x980 DUP3 DUP5 PUSH2 0x945 JUMP JUMPDEST SWAP2 POP DUP2 SWAP1 POP SWAP3 SWAP2 POP POP JUMP INVALID LOG2 PUSH5 0x6970667358 0x22 SLT KECCAK256 0xDF 0xC6 SHL PUSH26 0xDD806F719D1265FAC8A4762B09FBB64D31E7103603CD33E65DEC 0xB7 0xE3 PUSH5 0x736F6C6343 STOP ADDMOD XOR STOP CALLER "
				},
				"gasEstimates": {
					"creation": {
						"codeDepositCost": "499400",
						"executionCost": "535",
						"totalCost": "499935"
					},
					"external": {
						"addPerson(string,uint256)": "infinite",
						"favoriteNumber()": "2446",
						"listOfPeople(uint256)": "infinite",
						"nameToFavoriteNumber(string)": "infinite",
						"retrieve()": "2410",
						"store(uint256)": "infinite"
					}
				},
				"methodIdentifiers": {
					"addPerson(string,uint256)": "6f760f41",
					"favoriteNumber()": "471f7cdf",
					"listOfPeople(uint256)": "2ebce631",
					"nameToFavoriteNumber(string)": "8bab8dd5",
					"retrieve()": "2e64cec1",
					"store(uint256)": "6057361d"
				}
			},
			"storageLayout": {
				"storage": [
					{
						"astId": 3,
						"contract": "contracts/Storage/SimpleStorage.sol:SimpleStorage",
						"label": "favoriteNumber",
						"offset": 0,
						"slot": "0",
						"type": "t_uint256"
					},
					{
						"astId": 37,
						"contract": "contracts/Storage/SimpleStorage.sol:SimpleStorage",
						"label": "listOfPeople",
						"offset": 0,
						"slot": "1",
						"type": "t_array(t_struct(Person)16_storage)dyn_storage"
					},
					{
						"astId": 41,
						"contract": "contracts/Storage/SimpleStorage.sol:SimpleStorage",
						"label": "nameToFavoriteNumber",
						"offset": 0,
						"slot": "2",
						"type": "t_mapping(t_string_memory_ptr,t_uint256)"
					}
				],
				"types": {
					"t_array(t_struct(Person)16_storage)dyn_storage": {
						"base": "t_struct(Person)16_storage",
						"encoding": "dynamic_array",
						"label": "struct SimpleStorage.Person[]",
						"numberOfBytes": "32"
					},
					"t_mapping(t_string_memory_ptr,t_uint256)": {
						"encoding": "mapping",
						"key": "t_string_memory_ptr",
						"label": "mapping(string => uint256)",
						"numberOfBytes": "32",
						"value": "t_uint256"
					},
					"t_string_memory_ptr": {
						"encoding": "bytes",
						"label": "string",
						"numberOfBytes": "32"
					},
					"t_string_storage": {
						"encoding": "bytes",
						"label": "string",
						"numberOfBytes": "32"
					},
					"t_struct(Person)16_storage": {
						"encoding": "inplace",
						"label": "struct SimpleStorage.Person",
						"members": [
							{
								"astId": 13,
								"contract": "contracts/Storage/SimpleStorage.sol:SimpleStorage",
								"label": "favoriteNumber",
								"offset": 0,
								"slot": "0",
								"type": "t_uint256"
							},
							{
								"astId": 15,
								"contract": "contracts/Storage/SimpleStorage.sol:SimpleStorage",
								"label": "name",
								"offset": 0,
								"slot": "1",
								"type": "t_string_storage"
							}
						],
						"numberOfBytes": "64"
					},
					"t_uint256": {
						"encoding": "inplace",
						"label": "uint256",
						"numberOfBytes": "32"
					}
				}
			},
			"userdoc": {
				"kind": "user",
				"methods": {},
				"version": 1
			}
		}
	}
}